:020000040800F2
:10000000C8350020315A000871580008735800089C
:10001000755800087758000879580008000000005B
:10002000000000000000000000000000032900089C
:100030007B58000800000000BD280008FD210008D2
:100040006D5A0008715A0008755A0008795A00085C
:100050007D5A0008815A0008855A0008895A00080C
:100060008D5A0008915A0008955A0008995A0008BC
:100070009D5A0008A15A00087D58000883580008BE
:10008000A55A0008A95A0008AD5A0008B15A00083C
:10009000B55A0008B95A0008BD5A0008C15A0008EC
:1000A000C55A000889580008C95A0008CD5A0008E6
:1000B000D15A0008D55A0008A1580008D95A00089A
:1000C000DD5A0008E15A0008E55A0008E95A00081C
:1000D000ED5A0008F15A0008F55A0008F95A0008CC
:1000E000FD5A0008015B0008055B000810B5DFF849
:1000F000004B042204F114014FF4706000F01FFE65
:100100000422DFF8F01A4FF4A06000F018FE04F1AA
:100110001801BDE8104004224FF4807000F00FBEBB
:1001200080B58021002000F0ACFD002000F07EFDB5
:10013000FFF7DCFF07E080B58021002000F0A1FD83
:10014000002000F073FDBDE808400622DFF8A01A89
:100150004FF4106000F0F3BD70B5DFF89C3ADFF8A3
:100160009C4ADFF89C5A060018BF0346DFF8800A55
:10017000C3630B0018BF0C46110018BF1546456439
:10018000046470BD1CB5062269464FF4106000F08F
:10019000A3FDDFF85C0A826B012111700123816BE2
:1001A0004B700622816B8A700022816BCA70826B51
:1001B000436B111D1B0E0B708023426B120C4A7097
:1001C000426B120A8A70426BCA700022816B0A81EC
:1001D00001F80A3F4A700021826B1173826B5173E0
:1001E000826B9173826BD173826B1174826B5174C9
:1001F000826B9174826BD174826B1175826B5175B5
:10020000826B9175826BD175826B1176826B5176A0
:10021000826B9176826BD176826B01781177826BDB
:1002200041785177826B81789177826BC178D177F1
:10023000826B017982F82010826B417982F821105B
:10024000062100F028F81A77491CCAB20F2AF8DDF7
:10025000002100F020F883F82C20491CCAB2402A63
:10026000F7DB002100F017F883F86C20491CCAB2B4
:10027000802AF7DB826B632182F8EC108221826B8B
:1002800082F8ED105321826B82F8EE106321806BAF
:1002900080F8EF1013BD836BCCB22344002270476B
:1002A0002DE9FE43FFF76EFFDFF84449A16B002004
:1002B000A060E0604FF01208352081F8F0000120C6
:1002C000A16B81F8F1000027A16B81F8F2003D20BD
:1002D000A16B81F8F3000720A16B81F8F4000120E5
:1002E000A16B81F8F500A16B207881F8F600A16B75
:1002F000607881F8F700A16BA07881F8F800A16B15
:10030000E07881F8F900A16B207981F8FA00A16BFF
:10031000607981F8FB000C20A16B81F8FC000020C3
:10032000A16B81F8FD0003E009F80800A8467F1CD6
:10033000BEB2A01990F82000A16B08F101050028B9
:1003400001F1EC091FFA88F8EED100F07FF909F805
:100350000800BF1DE07800F057FC00F05EF800F0E8
:1003600076F900F05AF800F04FFC00F04EF800F07B
:100370006EF900F04AF800F047FC00F041F86D1CFF
:10038000D054A8B2A16B861B3144372281F8E570A6
:100390006D1CA16B01F1EC0300261A54ABB200F006
:1003A00058F900F02AF8012000F028F8032000F0A6
:1003B00025F800F022F80F2000F020F83A2000F095
:1003C0001DF83B2000F01AF8FF20D0546D1C02E00D
:1003D000EC316D1C8E54AAB2A16BB2F59C7FF7DB99
:1003E00001AA8DF8040050709070D07001AB4320CA
:1003F00000904FF40972207F24E10620D0546D1C38
:10040000A16B01F1EC02ABB27047A16B01F1EC0200
:10041000ABB26D1CD05460797047A16B01F1EC0256
:10042000ABB26D1CD054207970472DE9FE43FFF725
:10043000A9FEDFF8BC4794F91D10FF2501A8032988
:1004400018BF04291AD1A26B00219172A26BD1723C
:10045000A26B217D1173A26B617D5173A26BA17D93
:100460009173A26BE17DD173627A217A8DF80410C9
:100470004270A17AE27A8170C27004E08DF8045073
:1004800045708570C5703521A26B82F8F01001218E
:10049000A26B82F8F1100321A26B82F8F2103D21C9
:1004A000A26B82F8F3100721A26B82F8F4100121ED
:1004B000A26B82F8F5101026A26B217882F8F61054
:1004C000A26B617882F8F710A26BA17882F8F8101D
:1004D000A26BE17882F8F910A26B217982F8FA1008
:1004E000A26B617982F8FB10C078FF2830D1A06B35
:1004F000322180F8FC100421A06B80F8FD101C262E
:10050000A06B217D80F8FE10A06B617D80F8FF104C
:10051000A06BA17D80F80011A06BE17D80F8011136
:100520003621A06B80F802110421A06B80F8031122
:10053000A06B217A80F80411A06B617A80F8051114
:10054000A06BA17A80F80611A06BE17A80F8071100
:100550000C2000F07EF89055761C00F07AF8002010
:100560009055761C804604E009F806003E4608F1E6
:100570000108A06B04EB080100F1EC0991F82000E0
:10058000771C0028B6B2EFD100F060F809F8060039
:10059000E07800F039FB00F06FF800F058F800F058
:1005A0006BF800F031FB00F05FF800F050F800F05D
:1005B0005BF800F029FB00F052F87F1CD054B8B271
:1005C000A16BA0EB0806314408F1060281F8E52092
:1005D0003722A16B01F1EC037F1C1A54BBB200F06F
:1005E00038F8082000F039F8012000F036F8032030
:1005F00000F033F8062000F030F80F2000F02DF85E
:100600003A2000F02AF83B2000F027F81F2000F0E5
:1006100024F82120D0547F1CA06B00F1EC01BAB269
:100620007F1C8D54BFB2002002E0EC31C8557F1C06
:10063000A16BB7F59C7FF8DB4320009001AB207FD6
:100640004FF4097200F094FEBDE8F783E0780009EA
:10065000DAE2A16B01F1EC027047D0547F1CA16B70
:1006600001F1EC02BBB27047A16B01F1EC02BBB22D
:100670007F1CD05460797047A16B01F1EC02BBB2D2
:100680007F1CD054207970471CB5FFF77BFDDFF845
:100690006005826B002191720023826BD17235213B
:1006A000826B82F8F0100121826B82F8F110042134
:1006B000826B82F8F2103D21826B82F8F3100721E1
:1006C000826B82F8F4100121826B82F8F510826B44
:1006D000017882F8F610826B417882F8F710826B0D
:1006E000817882F8F810826BC17882F8F910826BF9
:1006F000017982F8FA10826B417982F8FB1032217D
:10070000826B82F8FC100421826B82F8FD10826BF0
:10071000017D82F8FE10826B417D82F8FF10826BB2
:10072000817D82F80011826BC17D82F80111362132
:10073000826B82F802110421826B82F80311826BB2
:10074000017A82F80411826B417A82F80511826B7A
:10075000817A82F80611826BC17A82F80711FF2133
:10076000826B82F808111D22846B1444521CB2F56E
:100770009C7F84F8EC30F7DB01AA8DF804105170EF
:100780009170D17001AB432100914FF40972816BDC
:10079000007F00F0EDFD13BD2DE9F843DFF8505464
:1007A000287F84B000F00AFB0024010055D001A985
:1007B00000910246A96B287F02AB00F07FFE024643
:1007C000BDF80400432840F0B480AE6B2978307F38
:1007D000884202BF707F697888423ED1B07FA97895
:1007E000884202BFF07FE978884236D196F820002F
:1007F0002979884202BF96F82100697988422CD174
:1008000002A8297AC37890F8028090F80190002914
:1008100004BF687A002805D1A87A002804BFE87AC6
:1008200000281CD09DF80800884204BF697A8945D9
:1008300005D1A87A804504BFE97A8B420FD09DF894
:100840000800297B884204BF687B814505D1A97BCC
:10085000884504BFE87B834201D000206AE006F1AE
:10086000F00192B28818A0F1F00CDFF8882300E0C4
:10087000614661455DD20E78881C76B1012E11D09B
:10088000032E19D0062E24D0332E2DD0352E06D08F
:10089000362E39D0FF2EEBD048E0491CE9E704782A
:1008A000C91CE6E701781170417851708178917028
:1008B000C178D170011DDCE791F801E006782E7651
:1008C000CF786F760E79AE764979E97600EB0E0136
:1008D000CFE791F801E006781671CF7857710E795D
:1008E00096714979D171F1E70078A862CE7806EB6C
:1008F0000026AE62087900EB0620A8624E7906EB6E
:100900000020A862891DB4E700782872C878687250
:100910000879A8724879E872891D9DF80800287343
:1009200085F80D9085F80E80EB73A2E749780144B5
:100930009FE760B205B0BDE8F0830000F8B5AC4DAC
:1009400095F91D00062801D10520F2BD287F400140
:1009500000F5427000F06AF9222805D0287F0023B4
:100960004422022100F0B6FA0124FFF715FF95F9A1
:100970001D70E97DAA7D6B7D2E7D042FC0B228D825
:10098000DFE807F003091C32470000206861FFF729
:1009900087FC6C771DE002280CD1A86B017C2975BF
:1009A000427C6A75817CA975C07CE875FFF73DFDC6
:1009B00002200DE000F048F804460AE0052810D1B6
:1009C00000F074F838B1E86B804700F0E1F80320DC
:1009D00068772046F2BD00F0DBF8686C80470020A5
:1009E000F6E706282CD0E5E7A86A042410F1010FE9
:1009F000EFD0EF6A4008B842EBD2686B6B74401CD2
:100A0000AA74E97468632E74FFF70FFD00F0C0F854
:100A1000BFE70424052811D12F7C0020A877B74216
:100A200004BF687C984205D1AB7C934204BFE87C4C
:100A30008842CAD0286C80470324C6E70628B9D16B
:100A400000F0A6F80120C3E738B5694D95F91E10EE
:100A500095F91D000124022916DA296BEA6A9142F0
:100A600022D2012805D0022814BF0428FFF7DDFC9C
:100A700001E0FFF715FC0020E862E96AA87F0A316F
:100A8000401C2963A8770FE0012804D0022818BF72
:100A9000042804D006E000206877002402E0FFF775
:100AA000FFFB6C7700F074F8204632BD7CB54FF444
:100AB000D85000F0BBF8064603214FF4D85000F0A0
:100AC000E0F841F2883000901122494C52A1207F79
:100AD00004F1140300F04CFC054631464FF4D850A5
:100AE00000F0CFF815F10D0F01D1012076BDFFF711
:100AF000CBFDE06AE16A091A0229FBD3002076BD2A
:100B00007CB504460D4604220021684600F0D0FD65
:100B1000374E062231464FF4106000F0DDF8317890
:100B20007078B2780143F0781143327901437079DB
:100B3000114301430ED108207070DC220020317077
:100B4000B270F07031717071062231464FF410604E
:100B500000F0F5F834773079F3787279B563C4181A
:100B60001419584042401219264882187263694687
:100B700004224FF4706000F0E2F8042269464FF45A
:100B8000807000F0DCF800F003F80020707773BD8F
:100B900017480021C1620A22026381777047144915
:100BA0000A7D02704B7D43708A7D8270C97DC17061
:100BB00070470F490A7E02704B7E43708A7E8270B6
:100BC000C97EC17070470B490A7802704B78437038
:100BD0008A788270C978C170704706490A790270B4
:100BE0004B7943708A798270C979C170704700006F
:100BF00000000020AC310020ED00000821010008B9
:100C0000370100087856341200F00F000A2801DA84
:100C10003030704737307047434845434B5F495049
:100C20005F434F4E464C4943540000007CB55E4D37
:100C30000446E868804769698847686A260A210C83
:100C400000281CBFAA6A002A09D1C8B2296A8847AD
:100C50002A6AF0B29047296AE0B2884708E08DF826
:100C600000108DF801608DF802400321684690471E
:100C7000E8698047A9690446884728698047204673
:100C800076BDF8B5484D0646E8680C468047696968
:100C9000884746F00406AA6A370A300C62B9296A06
:100CA000C0B288472A6AF8B29047296AF0B28847EA
:100CB0002A6A204690470AE08DF800008DF80170FE
:100CC0008DF802608DF80340042168469047A869BA
:100CD000804729698847F1BD2DE9FC41324C054622
:100CE000E0680E469046804761698847606A2F0A2F
:100CF000290C00281CBFA26A002A12D1C8B2216A9E
:100D00008847226AF8B29047216AE8B288470025EE
:100D1000A8B2404512D2E0698047A9B26D1C705458
:100D2000F6E78DF800108DF801708DF80250032160
:100D300068469047626A4146304690472EE02DE96A
:100D4000FC41194C0746E0680D46904680476169B2
:100D5000884747F00407A26A3E0A380C8AB9216A1C
:100D6000C0B28847226AF0B29047216AF8B2884739
:100D70000027B8B2404511D2285C216A88477F1C01
:100D8000F7E78DF800008DF801608DF802700321FF
:100D900068469047A26A414628469047A069804726
:100DA00021698847BDE8F381881100202DE9F041D1
:100DB000450105F5045705F5005506E02DE9F0411C
:100DC000450105F51C5705F5185500260837083567
:100DD0002846FFF72BFF804600F030F800EB082490
:100DE000A4B23CB12846FFF721FF804600F026F868
:100DF00000EB0826B0B2A042EAD1BDE8F0812DE9AF
:100E0000F04714000546884611D06F0107F51056CB
:100E100000F00FF807F5145700F00EF8AD0000EBE6
:100E2000092AAD1C00F026F8FFF789FF2AE0BDE88B
:100E3000F08708363046F9E6814608373846F5E649
:100E40002DE9F04714000546884611D06F0107F5DB
:100E50002056FFF7EEFF07F52457FFF7EDFFAD0033
:100E600000EB092AED1C00F005F8FFF735FF09E05B
:100E7000BDE8F0871FFA8AF0ED002246414605EBF7
:100E80000020704754442104090E3046FFF7F9FE54
:100E9000E1B23846BDE8F047F3E6F8B5440104F5A1
:100EA000205608360D46FFF7C5FF04F524540746C3
:100EB00008342046FFF7BAFE00EB07202D18ADB22C
:100EC0002804010E3046FFF7DCFEE9B22046BDE8FB
:100ED000F440D6E62DE9FC4206460F4615461C4670
:100EE000082EC8BF4FF0FF3067DC781E03D0401ECD
:100EF00002280ED90AE0042269464FF47060FFF719
:100F0000EBFE009828B96FF0020056E06FF0040085
:100F100053E060075BD4200007D0012F02D0022FDE
:100F20004DD002E014F0210F51D0304600F052F8BD
:100F300004F0F00040EA0701B000401CC000FFF7D9
:100F4000A0FE2800DFF8647709D13D89681C4FF6C0
:100F5000F07281B2914208BF4FF4404038814FEAAD
:100F60004619290A09F58160FFF78BFEE9B209F5F8
:100F7000A160FFF786FE09F58475012100F082FB70
:100F800000F07DFB0028FBD10120B0407989C043EF
:100F900004F001040140B4400C437C8107EB46029D
:100FA000B9890840B88100201082B85509F542700F
:100FB000FFF73CFE0028F9D070B2BDE8F68204F0DD
:100FC000A00020281CBF04F090011029ADD16FF0C3
:100FD0000500F2E7F8B506463446092C00DB5DE370
:100FE000650105F58477102100F0BFF900F0B7F92D
:100FF0000028FBD11F2105F50270FFF742FE0120FA
:1010000000FA06F6DFF8A40641898289F6433140EA
:101010004181164000EB440386810021198201556D
:1010200005F54270FFF702FE0028F9D10120F2BD5C
:101030002DE9F0410646092E0C46174603DB4FF01A
:10104000FF30BDE8F081B00000F020FB00F020F997
:1010500018BF6FF00400F4D1750105F542784046E1
:10106000FFF7E4FD132818BF6FF00200E9D100F08C
:1010700015FA00EB022010F1010F14BF00286FF0E9
:101080000B00DED0380008BF6FF00A00D9D0042270
:10109000214605F60840FFF752FE05F58050390A53
:1010A00000F009FA05F58850F9B200F004FA05F5E8
:1010B0008477042100F059F900F051F90028FBD1A0
:1010C00000F048F902FA06F6314218BF0020B8D104
:1010D0004046FFF7ABFD172813D005F5027600F068
:1010E00047F8000705D44046FFF7A0FD0028EFD1E0
:1010F00004E000F008F86FF00C00A2E76FF00300C6
:101100009FE701209DE708213046FFF7BABD70B583
:101110000446092C00DB2EE000F0B7FA00F0B8F826
:1011200000D02BE0650105F58476FFF7ECFF00F0B9
:101130001FF80028FBD1DFF874158A890120A04030
:1011400082438A814989014201D0002070BD05F5A2
:101150004270FFF76BFD48B105F50270FFF766FDC1
:101160000007F4D52046FFF735FF9AE2012070BD55
:101170003046FFF75BBD4FF0FF3070BD6FF00400ED
:1011800070BD2DE9FE4F074688461446082FC8BF9C
:101190004FF0FF307ADCB80000F078FA00F078F811
:1011A00018BF6FF0040071D1ADF80040200008BFF7
:1011B0006FF00D006AD0780100F5427B5846FFF7CA
:1011C00035FD6FF00609172818BF1C283DD1DFF840
:1011D000DC64B0890125BD4028420ED0780100F5BD
:1011E00002742046FFF722FDC10630D510212046AB
:1011F000FFF747FDB089A843B0817C0101940198B5
:1012000000F5F85000F053F98006BDF80010000C0E
:10121000884288BF0846ADF800003846FFF7C6FD93
:1012200004465846FFF702FD172818BF1C2809D1AD
:101230007189BDF800A0294201D054450FDB544507
:10124000EBDB0EE03846FFF7C5FE48461EE0000720
:1012500005D53846FFF7BEFE6FF00C0016E0002003
:1012600014E0414652463846FFF7C9FD019800F5A3
:10127000847420212046FFF704FD2046FFF7D6FCAA
:101280000028FAD1B0890543B5815046BDE8FE8FEC
:1012900000F00F00012870472DE9F8430546884605
:1012A0001446092DA8BF4FF0FF3051DAA80000F016
:1012B000EDF9FFF7EDFF18BF6FF0040048D12000F3
:1012C00008BF6FF00D0043D06F0107F5F05000F03C
:1012D000EEF88602B6B2A64288BF26462846FFF739
:1012E0006DFD044607F54270FFF7A0FC17280DD0EE
:1012F0001C2814D1DCB92846FFF758FD814607F5B4
:10130000F85000F0D4F8B9EB802F08D000F022F8A4
:10131000AA40114200D044B1002CDFD007E028469B
:10132000FFF758FE6FF0060012E0002010E0B44214
:10133000B8BF2646324641462846FFF781FD07F5ED
:10134000847700F011F800F00AF80028FBD130464D
:10135000BDE8F283DFF85403418901227047384623
:10136000FFF764BC09F5847740213846FFF789BC54
:101370002DE9F0470746082F884691461C4603DDB5
:101380004FF0FF30BDE8F087BE00761CF000FFF79D
:101390004DFC00F00F00801E022805D8B9F1000FA7
:1013A00005D16FF00D00EDE76FF00400EAE700F003
:1013B00075F810EB022007D1F000FFF737FC40076B
:1013C00058BF6FF00B00DDD5089D280007D1F00055
:1013D000FFF72CFC400758BF6FF00A00D2D54FEA48
:1013E000471A0AF54276FFF7C3FE422818BF2228A3
:1013F00004D0322818BF6FF00600C3D10422214662
:101400000AF60840FFF79BFC0AF58050290A00F015
:1014100052F80AF58850E9B200F04DF80AF5F85094
:1014200000F045F88402A4B24C4588BF4C463846CB
:10143000FFF7BCFC0546FFF79BFE48B1FFF78AFFAC
:10144000BA40114201D0A54205DBA542EFDB04E022
:101450006FF0030096E7002094E7224641463846A5
:10146000FFF7CDFC0AF584762021FFF74DFEFFF74C
:101470007FFE0028FBD10AF50276FFF779FEC10650
:1014800002D40007F7D504E01021FFF73DFE204607
:1014900078E7FFF738FE6FF00C0073E7207861788B
:1014A000A27801EB0021E07802EB012270470830BE
:1014B000FFF7BCBB090A0830FFF7E3BB2DE9FB4788
:1014C000002783B0044690461D460928A8BF4FF068
:1014D000FF300EDA800000F0D9F88DF8080000F037
:1014E0000F00801E022805D85FEA080005D16FF0C2
:1014F0000D00C1E06FF00400BEE0DFF8B0A10AEB20
:1015000044064FEA4419308AB8B92046FFF756FC22
:10151000074609F54270FFF789FB58B1BAF80A107F
:101520000122A240114202D0002F384604D0002FE1
:10153000EBD002E06FF003009EE09DF8080000F0A1
:101540000700022804D076D3042827D048D372E0BD
:10155000308A002865D1082200F09CF8FFF702FFCE
:10156000FFF7FDFE0028FBD10E989DF800102970B2
:101570009DF801206A709DF80210A9709DF8032063
:10158000EA709DF8041001809DF8052002EB01220D
:1015900002809DF806009DF807103CE0308A002884
:1015A0003FD1022200F076F809F58475402100F061
:1015B00069F800F064F80028FBD19DF800009DF860
:1015C000011001EB0021881E308240F2EB5280B204
:1015D000904223DB2046FFF7FDFC6FF47A704BE06E
:1015E000308AF0B9062200F055F8FFF7BBFEFFF78E
:1015F000B6FE0028FBD19DF8000028709DF8011070
:1016000069709DF80200A8709DF80310E9709DF8BC
:1016100004009DF8051001EB0021318280200AF8BA
:101620000400378AB84538BF474604993A462046F1
:10163000FFF706FC04E039462046FFF72EFC378210
:1016400009F58470029040210298FFF71AFB029876
:10165000FFF7ECFA0028FAD1308AC01B308280B242
:1016600030B11AF8040040F001000AF8040002E06A
:1016700000210AF80410384606B0BDE8F087284675
:10168000FFF7D4BA2846FFF7FCBAA000401CC00000
:10169000FFF7CCBA69462046FFF7D2BB4FF0FF30C8
:1016A000F2BD6FF00C0070BD00000000581100206A
:1016B00010B5044610460A460146204600F002F8DE
:1016C000204610BD4018491C1CBFB1F1010100F8B3
:1016D000012DF9D1704730B501688468421841681E
:1016E00002EB5103C90703D54C4401E0491C08D162
:1016F0009A4218BF12F9011B01D10C3030BD12F80B
:10170000015B002904F8015BF0D4491EF7D5EFE72F
:10171000F0B585B050260B9D25B986F3118800F0F1
:1017200043FAFEE70C9C24B986F3118800F03CFADA
:10173000FEE75C270097DDF800E0BEF15C0F04D007
:1017400086F3118800F030FAFEE7256300260225B3
:1017500084F8595004AF0A9D0396029401970095AE
:1017600000F034F8204600F078F8049805B0F0BD99
:101770002DE9F8430646174684B088469946B800D6
:1017800000F078FB05001CD05C2000F073FB040027
:1017900014D00020256384F85900039002940D981A
:1017A0000C99019000914B463A464146304600F074
:1017B0000DF8204600F051F8012004E0284600F022
:1017C000DFFB4FF0FF3005B0BDE8F0832DE9F047B7
:1017D0000A9D81460C461746286B9846A522B900FB
:1017E00000F01CFC296B01EB8702171FFF08FF00AC
:1017F0000021625C6B1883F83420605C10B1491CD6
:101800001029F6D3089E002085F84300372E88BFA4
:101810003726099CEE6205F14C0ACAF80400CAF8A2
:101820000060281D00F024FC05F1180000F020FCE9
:101830002D61C6F13806AE616D620020CAF808005D
:1018400000218AF80C1042464946384600F04CFC0C
:10185000286004B12560BDE8F0872DE9F04100F073
:101860006BF8DFF87855DFF87885E86C401CE864A1
:101870001426A86A28BBAC62E86C012829D100278D
:1018800006FB07F0404400F0E6FB7F1C382FF7D33F
:1018900005F1740000F0DFFB05F18807384600F021
:1018A000DAFB284600F0D7FB05F1140000F0D3FB6B
:1018B00005F1380000F0CFFB05F17400E8622F63FA
:1018C00007E0A86D28B9E06AA96ACA6A904228BFF1
:1018D000AC62A86EE26A401C6064696D914238BFD8
:1018E0006A65A8665643211D08EB060000F0C3FB9D
:1018F00000F073FCA86D30B100F0A2F903D200F043
:1019000078FA00F051F9BDE8F08180B588B1DFF8D0
:10191000CC24116F21B100F02EF900F045F9FEE75B
:10192000116F491C1167002100F06EFA00F044F8B5
:1019300008B900F034F901BD044600F035BC80B5AB
:1019400086B000210591049103AA04A905A800F01E
:101950009AFD0598049902900022009201910023BB
:10196000039A0FF208510FF26130FFF7D1FE98B1E0
:1019700000F0A2FD5021012810D181F3118800F060
:1019800013F9DFF8D4044FF0FF31C16601228265FC
:101990000021016500F0C6FB07B000BD10F1010F8A
:1019A000FAD181F3118800F0FFF8FEE7DFF8A80410
:1019B000016F491C0167704770B5DFF82064306F14
:1019C0000024002520B900F043F800F0EDF8FEE710
:1019D00000F0EAFB306F401E3067306F002836D1D0
:1019E000F06CD0B933E0F068C46800F035F800F06E
:1019F000BBF9E06A716D814238BF70651423DFF86E
:101A00005C245843211D104400F035FBE06AB16AA4
:101A1000CA6A904224BF0121316630680028E2D1B1
:101A20000CB100F088F9F46D44B100F01DF808B174
:101A300001203066641EF8D10020F065306E30B1B0
:101A4000DFF81C144FF08050012500F0ACF8C9E11C
:101A5000502181F31188704704F1180000F031BB68
:101A6000DFF8F403006D70472DE9F843DFF86C737D
:101A7000386F002600284FD13C6D641C3C6510D1A6
:101A8000F86A006820B1FFF7E3FF00F08DF8FEE789
:101A9000F86A396BF9623863786E401C786600F03A
:101AA0004AF9F86EDFF8B49384424FF0140827D354
:101AB0001FE0F96AC868C568686884422AD3281D8F
:101AC00000F0FFFAA86A18B105F1180000F0F9FA61
:101AD000E86A796D814238BF786508FB00F0291DFE
:101AE000484400F0C8FAE86AB96ACA6A904228BF56
:101AF0000126F86A00680028DBD14FF0FF31F96653
:101B0000B86AC06A08FB00F859F80810022906D321
:101B1000012604E0F866F3E7F86D401CF865386EBE
:101B200000B1012662E110B5DFF8B022106F10B1EC
:101B30000121116610BD1066516DDFF8203300E001
:101B4000491E14244C43185930B90029F8D100F02B
:101B500012F800F029F8FEE7181900F108044368AC
:101B60005B684360A34204BF5B6843604068C3682E
:101B70009362516510BD502080F31188704710B5F5
:101B80000C4620B9FFF7F7FF00F00EF8FEE700F073
:101B900027F800F07DFA2046BDE8104009E0DFF8A4
:101BA000C0124FF080500860BFF34F8FBFF36F8FAC
:101BB0007047012128E138B50D46144620B9FFF7DA
:101BC000DAFFFFF7F1FFFEE700F00AF800F053FA42
:101BD0000CB14FF0FF3521462846BDE8344013E1F3
:101BE000DFF87422936A03F11801704738B5C068B2
:101BF000C46824B9FFF7BFFFFFF7D6FFFEE7FFF782
:101C00002BFFDFF85452286F40B900F0ADF800F018
:101C100013F838BF6A6500F0F1F802E004F118012A
:101C2000284600F028FA00F00BF803D201212966BB
:101C3000012032BD002032BDE26A686D90427047DB
:101C4000A86AC16AE06A81427047DFF80C124A6EE6
:101C50000260096D41607047F8B504460D4650209A
:101C600024B980F31188FFF79FFFFEE725B980F3C1
:101C70001188FFF799FFFEE700F096FADFF8D80128
:101C8000016D62682E688B1A16F1010F0ED0476E37
:101C9000D4F800C0674501D091420BD2B34207D2BD
:101CA000F31A2B60416E2160006D6060002402E039
:101CB00000202860012400F090FA2046F2BDDFF8F1
:101CC000981101200866704770B5454CDFF88851BF
:101CD00011E000F069FA286AC668301D00F0F1F9D9
:101CE000E86C401EE864686B401E686300F075FA9B
:101CF000304600F009F8686B0028EAD12168022913
:101D0000F9D3FFF74CFFF6E710B5044694F85900F5
:101D100040B9206B00F034F92046BDE8104000F0D7
:101D20002FB910BD0128F7D00228FAD0FFF723FF02
:101D3000FFF73AFFFEE72949C86A006810B94FF07B
:101D4000FF3203E0C86AC268D0684268CA6670475A
:101D5000DFF80411886D08B901207047086F08B9D1
:101D60000220704700207047201D00F0AAB938B546
:101D70000446002134B3DFF8E050A86A50228442C0
:101D800004D082F31188FFF70FFFFEE7206D20B922
:101D900082F31188FFF708FFFEE7E26AE36C401E5A
:101DA0009A4220650ED068B9FFF7DEFFE06CE06272
:101DB000C0F13800A061FFF73FFF38BF6A6500F04F
:101DC00003F80121084632BD1420DFF89030424369
:101DD000211D981800F04FB900000000C42E00200B
:101DE000D41D002000F0F9F9284670BD3046BDE84A
:101DF000F2831B4A4FF08051116070471420174B3B
:101E00004243211D98187047F8B5134D2F6D0C46AD
:101E1000A96A0646081D00F054F916F1010F05D114
:101E200024B1A86A011D05F138001BE0A86AF61963
:101E30004660BE42A86A05D2011D286BBDE8F44089
:101E400000F026B9011DE86A00F022F9E86E86422A
:101E500038BFEE66F1BD0000C42E0020D41D002066
:101E600004ED00E0BDE8F44000F005B949444C45FC
:101E7000000000002DE9F8430446FFF797FD664F88
:101E8000B8684FF00009002508BB07F1180307F1F7
:101E9000180113F0070F4FF440600A4605D0CA1D21
:101EA000D208D200C2F54060081880180838C0086F
:101EB000C0003A607D60B86045600560831A536079
:101EC000106050683861F8604FF0004078614FF062
:101ED00050087869044243D1002C41D0083414F0F2
:101EE000070F04D004F1080004F00704041B002CC1
:101EF00036D0F868A04233D33E68394601E0314617
:101F000006467068A04202D230680028F7D1B8684F
:101F1000864225D00A683068086002F108097268B4
:101F2000121B112A0CD3311911F0070002D000F056
:101F300020F8FEE7301D02517460084600F047F8B3
:101F40007168F8683C69401AF860FA68A24288BF74
:101F5000224678693A6101437160356009F00705EE
:101F6000FFF72AFD15B100F004F8FEE74846BDE88A
:101F7000F28388F31188BFF34F8FBFF36F8F7047E1
:101F8000002800D1704738B5A0F10804224D6168DF
:101F90006A695023114204D183F31188FFF7EBFFE4
:101FA000FEE7206820B183F31188FFF7E4FFFEE726
:101FB00091436160FFF7FAFCE96860684118E960E5
:101FC000204600F004F8BDE83140FFF7F5BC30B51D
:101FD00011490A4600E01A4613688342FBD353684E
:101FE000D418844203D14068C31853601046436834
:101FF0001468C518A54208D189688C4204D061686C
:10200000CB184360246800E00C460460824218BF8D
:10201000106030BD00000000BC11002062F30F22F0
:1020200062F31F4200B500BF130096469446103974
:1020300028BFA0E80C50FAD85FEA417C28BF0CC04A
:1020400048BF40F8042BC90728BF20F8022B48BF1F
:1020500000F8012B00BD4FF0FF3200F10801826053
:102060004160C16000F10802026100210160704717
:1020700000210161704710B542684A6093688B6027
:1020800094686160916008610168491C016010BD3D
:1020900030B50A6812F1010F08BF036907D000F1DB
:1020A000080300E023465C682568AA42FAD25A6811
:1020B0004A6091608B60596008610168491C016049
:1020C00030BD4368016982689A60836842685A60DB
:1020D0004A68824204BF83684B600022026108683C
:1020E000401E086008687047490810B54900A0F113
:1020F0000C034FF0807459609C600FF20D01196061
:1021000040F8202D203810BD52494A68502012F165
:10211000010F80F31188BFF34F8FBFF36F8F00D093
:10212000FEE7FEE71CB54C490A780192FF230B70CD
:102130000C788DF800409DF80000464C00F05000EF
:102140002070072005E09DF800205200401E8DF809
:1021500000209DF800201306F5D4424212F1030F2F
:1021600003D0A06000F018F8FEE7000200F4E06081
:10217000A060019808703948016841F4700101605D
:10218000026842F07042026000F084FB0020606050
:1021900000F0C7FB002016BD502080F31188BFF36C
:1021A0004F8FBFF36F8F7047502080F31188BFF3BC
:1021B0004F8FBFF36F8F27494A68521C012A4A602C
:1021C0000AD127490A68130606D080F31188BFF3A5
:1021D0004F8FBFF36F8FFEE770471E49486838B9CD
:1021E000502080F31188BFF34F8FBFF36F8FFEE74E
:1021F000401E486008BF80F31188704780B5FFF724
:10220000CBFFFFF731FC18B115494FF08050086043
:10221000002282F3118801BD10B5EFF30580502133
:1022200010280C4A09D30F4B185C1478A04204D232
:1022300081F31188FFF7B3FFFEE790680A4A13683D
:1022400003F4E063984204D281F31188FFF7A7FFFB
:10225000FEE710BD4C11002000E400E020ED00E09E
:1022600004ED00E0F0E300E00CED00E0EFF30580AA
:10227000002804BFEFF31080002807D1DFF8F81121
:102280000868022803D1EFF3118000B182E00868EA
:1022900010B901220A6070474FF0FF30704700000C
:1022A00080B500F0ECF804BFEFF31080002807D1F0
:1022B000DFF8C4110868022803D1EFF3118000B1E0
:1022C00009E00868012805D102220A60FFF737FB00
:1022D000002002BD02E06FF0050002BD4FF0FF30AC
:1022E00002BDF0B585B000230493EFF30583002B06
:1022F00004BFEFF31083002B49D1DFF87C311C6859
:10230000022C03D1EFF31183002B40D103003ED008
:102310000023802518268DF80C3003AC5AB31368BF
:1023200003B11C4693691BB11E0004D0392E02D2A2
:102330001379DF0701D500202AE0536903B19D0816
:10234000D2F80CC0976887B1BCF15C0F1FD312693B
:10235000002A18BF002B1AD001920B460297009654
:102360002A462146FFF7D4F910E0BCF1000F04BF64
:102370001269002A0BD104AB019300960B46AAB256
:102380002146FFF7F5F9012801D0002004900498B8
:1023900005B0F0BD6FF005007047DFF8DC000168A4
:1023A0000229704710B500F05DF804BFEFF310810B
:1023B000002905D100F05AF805D1EFF3118111B1D0
:1023C0006FF0050403E0002408B1FFF79EFA2046F1
:1023D00010BD80B500F045FA010004D048680968D6
:1023E000BDE80440084701BD2DE9FC4107460E4603
:1023F00090461C46002500F042F804BFEFF3108021
:10240000002824D1FFF7C9FF02D1EFF31180F0B902
:1024100038001CD00820FFF72DFD030017D01F60E7
:10242000C3F80480320018BF01220020DFF87C606E
:1024300094B1216801B10846E168A46854B130291B
:1024400005D301940096012100F07AF8054628464C
:10245000BDE8F6810029FAD10096012100F056F876
:10246000F4E70025EFF305810029704702490A6867
:10247000022A704700000000BC3100200446EFF340
:102480000580002870470A4B036003F15C00086078
:10249000802111607047074B036003F15C00086006
:1024A0004FF480711160704700000000D3230008D2
:1024B000902600203422002010B586B000F0AAF942
:1024C000DFF8B843A068C0B100210591049103AAC8
:1024D00004A905A8FFF7DFFF0598049902900222DE
:1024E000009201910023039A0FF298310FF2191014
:1024F000FFF70EF90028E06005D1502181F3118823
:1025000000F069F9FEE7012006B010BD2DE9FC419D
:1025100005460E46174698463020FFF7ABFC0400F0
:102520000BD008980090019443463A46314628461D
:1025300000F025F8002184F82C102046BDE8F68133
:102540007CB5302400945025009C302C04D085F3B9
:10255000118800F040F9FEE7079C002C04D185F3B8
:10256000118800F038F9FEE707D0069D0194009528
:1025700000F005F8012684F82C60204676BD2DE990
:10258000F8430D0006469146984602D100F020F926
:10259000FEE7099C74B1089F00F03CF92660A56134
:1025A000C4F81C90C4F820806762201DBDE8F24387
:1025B000FFF75EBDBDE8F183F8B5044684B01E4662
:1025C000002014B900F004F9FEE7DFF8B072BD682E
:1025D000BDB106290091019202940CDAFFF7B8FB15
:1025E000022807BF0A9A002300230022B868694620
:1025F00000F02CFA05E0002332466946284600F038
:10260000BCFA05B0F0BD0000F8B586B09B4D296856
:10261000086810B90124002602E0C8680668002492
:10262000FFF7C4F901A800F099F8074601980028BF
:1026300039D124BBB74227D3FFF7BEF92868C16858
:10264000CC68201DFFF73DFDE069012810D1A1698C
:1026500033463A468919204600F0C2F840B10020BE
:1026600000900023324600212046FFF7A5FF18B155
:10267000616A204688471FE000F0AAF8FEE7686814
:1026800001684C1EA441E40FA8682246F11B00F02B
:10269000FBFBFFF791F978B979494FF0805008605A
:1026A00000F099F808E0FFF787F905E003460246D5
:1026B0000918204600F094F8A868002202A900F04A
:1026C000ABFA0028A3D00298002803D505990498F6
:1026D000039A904702980028EED4049C606910B1D8
:1026E000201DFFF7EEFC01A800F038F80299092937
:1026F000E2D8DFE801F0151515050E061515050ED3
:10270000DAE794F82C000028D6D12046FFF738FCF1
:10271000D2E70399A1610029C8D100F059F8FEE77A
:1027200003990246A0690B464118204600F058F86C
:102730000028C1D0616A20468847E0690128BBD1E2
:1027400000210091039AA069821800232046FFF718
:1027500033FF0028B0D100F03BF8FEE72DE9FC4143
:102760000646FFF77DF9454D04462869844209D3A2
:10277000002131602C61E0E678603F61391D2868F6
:10278000FFF786FC29680868E8B1C868D0F80080BF
:10279000C768381DFFF795FC796A38468847F8699D
:1027A0000128EFD1B86940448045E5D3002000906E
:1027B0000023424600213846FFF7FEFE0028E1D103
:1027C00000F006F8FEE76868696028600121D0E73C
:1027D000502080F31188BFF34F8FBFF36F8F704786
:1027E00038B500248A4241600061244D06D38169D6
:1027F000D21A8A4206D2011D686807E09A4203D2C3
:10280000994201D3012403E0011D2868FFF740FC31
:10281000204632BD1CB5FFF7C7FC184CA068E0B9D4
:1028200004F11400FFF717FC04F12800FFF713FC74
:1028300004F1140004F1280100222060616000927C
:1028400004F13C0304F18C0210210A2000F0B6F8D8
:10285000A06010B10DA100F003FBBDE81340FFF72D
:10286000BCBC10B5040002D1FFF7B2FFFEE7FFF7D2
:102870009BFC246AFFF7B1FC204610BDEC2C002025
:1028800004ED00E0546D722053766300546D725174
:10289000000000000748084B002101600022826010
:1028A0004FF47A721968B1FBF2F2521E42600721AE
:1028B0000160704710E000E084110020EFF3098010
:1028C000BFF36F8F1D4B1A6820E9F00F106008B539
:1028D0004FF0500080F31188BFF34F8FBFF36F8F1D
:1028E000FFF721F94FF0000080F31188BDE80840A0
:1028F00019680868B0E8F00F80F30988BFF36F8F9C
:1029000070470E4B19680868B0E8F00F80F309882B
:10291000BFF36F8F4FF0000080F311884EF00D0E63
:10292000704707480068006880F3088862B661B69F
:10293000BFF34F8FBFF36F8F00DF0000EC2E00203E
:1029400008ED00E038B504000D4602D100F076F83D
:10295000FEE7FFF729FCE26B206C216842438818F0
:1029600060600021A1632068E26BA060521E206CB1
:10297000216842438818E0604FF0FF3104F14400C1
:102980000170417075B92069A0B104F11000FFF722
:102990002DF978B1DFF8E8144FF08050086000F0AE
:1029A000D3F907E004F11000FFF755FB04F1240010
:1029B000FFF751FBFFF711FC012032BD7CB51C462F
:1029C000502320B983F3118800F0BEF9FEE724B943
:1029D00083F3118800F0B8F9FEE72AB129B983F32F
:1029E000118800F0B1F9FEE771B950250095009EFD
:1029F000502E0ED134B1069B012584F84650009428
:102A000000F00CF8204676BD83F3118800F09CF9A5
:102A1000FEE783F3118800F097F9FEE738B5049DCF
:102A20001C4600290CBF2D602A60E86329642846F3
:102A30000121FFF787FF85F84C4031BD502080F31E
:102A40001188BFF34F8FBFF36F8F70472DE9F647A3
:102A500082B004461E46502714B900F073F9FEE711
:102A60005FEA010A01D1206C60B9022E02D1E06B4D
:102A700001280AD1FFF76CF950B9039840B100F072
:102A800061F9FEE700F05EF9FEE700F05BF9FEE7B2
:102A900027460024DFF8E8834FF080592EE00398A2
:102AA00000284BD014B900F043F90124FFF795FB3F
:102AB000FEF77CFFFFF778FB07F1440000F03BF9DD
:102AC00004BF0022027000F02EF904BF0022427001
:102AD000FFF783FB00F04DF8002844D1FFF764FBBB
:102AE000B86BF96B884214BF00250125FFF775FB11
:102AF00045BB384600F075F9FEF75EFFFFF754FB63
:102B0000B86BF96B884201D3022EC8D132465146C8
:102B1000384600F01EF9796A29B107F12400FFF761
:102B200065F808B904E018B1C8F8009000F00CF995
:102B3000FFF753FB012004B0BDE8F087FFF74DFB22
:102B40000020F8E7039907F11000FFF718F838465E
:102B500000F047F9FEF730FF0028CFD1C8F8009009
:102B600000F0F2F8CAE7384600F03BF9FEF724FF20
:102B7000E6E703A96846FFF76FB82DE9F843044676
:102B8000884615461E46502714B900F0DBF8FEE7CC
:102B9000B8F1000F01D1206C20BB022E02D1E06BF6
:102BA000012822D1FFF738FBEFF3118900F02AF852
:102BB00001D3022E21D194F9457032464146204678
:102BC00000F0C7F817F1010F12D1606A98B104F153
:102BD0002400FFF70BF8002818BF002D0BD00120B0
:102BE000286008E000F0AEF8FEE700F0ABF8FEE782
:102BF0007F1C84F84570012000E0002089F31188D3
:102C0000BDE8F28387F31188BFF34F8FBFF36F8F57
:102C1000A06BE16B884270472DE9F74306460F46EB
:102C20000024502526B985F3118800F08DF8FEE7C1
:102C30000FB9306C48B9FFF78BF878B9029868B1D2
:102C400085F3118800F080F8FEE785F3118800F025
:102C50007BF8FEE700F074F8FEF7AEFEFFF7A4FA8B
:102C6000B56BDFF81C82002D4FF0805932D10298ED
:102C7000002845D014B900F05BF80124FFF7ADFA45
:102C8000FEF794FEFFF790FA06F14400415711F168
:102C9000010F04BF0022027000F045F804BF0022BB
:102CA0004270FFF79AFA02A9FFF764FF0028304646
:102CB0002AD100F0CAF80028CCD000F02FF800F09C
:102CC0003FF8FEF779FE0028C8D1C8F8009000F060
:102CD0003BF8C3E73946304600F06FF86D1EB56328
:102CE000306940B106F11000FEF780FF18B1C8F856
:102CF000009000F029F8FFF770FA0120BDE8FE838C
:102D0000FFF76BFA0020F9E700F06BF8FEF754FECE
:102D1000304600F09AF80028A0D0F3E7029906F1B7
:102D20002400FEF72CBF90F9011011F1010F70473C
:102D30006846FEF78ABF90F9001011F1010F704745
:102D400030464EE087F31188BFF34F8FBFF36F8F8C
:102D50007047F8B506461546B46B326C002742B989
:102D6000306830BB7068FFF702F8002107467160D9
:102D70001FE065B9B06800F0ABF8B068316C7268FC
:102D800008449042B06014D33068B06011E0F0683D
:102D900000F09EF8306CF16840420144F160326806
:102DA000914202D271680844F060022D01D104B151
:102DB000641E641CB4633846F2BD026C002A0B46E4
:102DC00000D1704710B5C16844681144C160A14288
:102DD00024BF0168C160C168BDE81040184600F01A
:102DE00077B8F8B50546FFF7DFF905F1440494F923
:102DF000016007E005F12400FEF7F8FE08B1FEF7D8
:102E00005EFF761E70B2012802DB686A0028F1D1ED
:102E10004FF0FF366670FFF7E0F9FFF7C5F994F958
:102E2000007007E005F11000FEF7E0FE08B1FEF7C4
:102E300046FF7F1E78B2012802DB28690028F1D105
:102E40002670BDE8F140FFF7C8B910B50446FFF79A
:102E5000ABF9A06B441EA441FFF7BFF9E00F10BD12
:102E600010B50023074C54F833201AB15B1C082B13
:102E7000F9D310BD44F8331004EBC301486010BD12
:102E800004ED00E030310020F8B504460D4616464A
:102E9000FFF78AF904F1380797F90C0010F1010FD8
:102EA00004BF0021397397F90D0010F1010F04BF21
:102EB00000217973FFF791F9386828B9324629461D
:102EC00004F12400FEF777FE2046BDE8F24088E7D3
:102ED0004AB1000011F8013B521E00F8013B1CBF33
:102EE00011F8013BF8E7704738B5040001D1012023
:102EF00032BD606A28B900F090F905D00021E16187
:102F000002E00020206160610020A06204F1500511
:102F1000687820B900212970204600F047FB022084
:102F2000687000F082FA6068A168E26800F482705C
:102F300001F404410843217C02F400621043227D25
:102F400001F002010843A16902F001021043227F4F
:102F500001F40071084394F8201002F03802104385
:102F6000A26A01F080010843216802F40052104374
:102F70000860A0692168000C00F004004860206827
:102F8000C16921F40061C16100206860012169709C
:102F900032BD2DE9F843054605F150070026387883
:102FA0000C4691469846012808BF022000F0908008
:102FB0000120387000F0BCFB7978012918BF022687
:102FC00040F08380002C18BFB9F1000F79D00321A5
:102FD000797000237B602C63A5F83490A5F83690B7
:102FE0000021A963AB87E9876B642964AB68B3F5FB
:102FF000004F09D129680B6823F040030B60296852
:103000000C6844F480440C6029680B685C0603D4A7
:103010000B6843F040030B604446E968B1F5006F6C
:10302000696821D1002918BFB9F1010F00F0F1F949
:10303000804604E0296B0A88C26000F0CBF9E88E74
:10304000002833D0286881688A07F3D400F070FB29
:10305000A0EB0800A04204D314F1010FEFD0032627
:1030600031E0002CEBD1FAE7002918BFB9F1010FCC
:1030700000F0C3F9804606E0296B0A780273286BDA
:10308000411C00F0A9F9E88E80B1286881688A07A0
:10309000F2D400F04DFBA0EB0800A04203D314F1E2
:1030A000010FF0D0DBE7002CEDD1D8E742462146F6
:1030B000284600F045FA08B12020786000F091F928
:1030C00008B1012601E001207870002139703046F6
:1030D000BDE8F2832DE9F843044604F150070026C9
:1030E00078780D4691469846012818BF022640F090
:1030F0008F8000F092F804BFA068002809D1042650
:103100007E70CDF800804B462A46204600F089F8B4
:1031100081E03878012808BF02207CD00120387077
:1031200000F006FB002D18BFB9F1000F6CD0042190
:10313000797000227A60A563A4F83C90A4F83E90D0
:1031400000212163A286E18622646164A268B2F54F
:10315000004F09D121680A6822F040020A60216804
:103160000B6823F480430B6021680A68530603D47C
:103170000A6842F040020A600546E168002926D14B
:1031800008E0007BA16B0870A06B421CA263E08F7B
:10319000411EE187E08F68B320688168CA07F0D4D8
:1031A00000F0C6FA401B404504D318F1010FF1D0DE
:1031B00003262BE0B8F1000FECD1F9E7C068A16B52
:1031C0000880A06B821CA263E08F411EE187E08F24
:1031D00080B120688168CA07F0D400F0A9FA401BCA
:1031E000404503D318F1010FF1D0E1E7B8F1000F2A
:1031F000EDD1DDE72A464146204600F07CF908B1D2
:1032000020207860786808B1012601E001207870FC
:10321000002139703046BDE8F2836068B0F5827FE6
:1032200070472DE9FC47054605F150070C463878F4
:1032300091464FF001084FF0000A012808BF022014
:1032400000F0C6801E4687F8008000F071FA7B7897
:10325000012B0AD06968B1F5827F02BFA9680029F5
:10326000042B02D04FF0020AAFE0002C18BFB9F1D6
:10327000000F00D00EB9C246A7E07B78042B1CBF1C
:103280004FF0050C87F801C000237B60C5F838902B
:10329000EE87AE872C63EE86AE862B646B6429685E
:1032A0000C68630603D40C6844F040040C60E968C1
:1032B0000A9CB1F5006F696838D1002918BF012E4A
:1032C00000F0A7F88146E88E002804BFE88F0028A8
:1032D00068D02968886882070BD5E88E002818BF57
:1032E000B8F1000F05D0286B0288CA60D04600F004
:1032F00071F829688868C2070CD5E88F50B1C86892
:10330000A96B08804FF00108A86B821CAA63E88FA4
:10331000411EE98700F00CFAA0EB0900A042D2D3CD
:1033200014F1010FCFD04FF0030A4CE0002918BF71
:10333000012E00F062F88146E88E002804BFE88F75
:1033400000282FD02968886882070DD5E88E0028CC
:1033500018BFB8F1000F07D0286B02780A73D04667
:10336000286B411C00F038F829688868C2070CD522
:10337000E88F50B1C868A96B08704FF00108A86BBE
:10338000421CAA63E88F411EE98700F0D1F9A0EB47
:103390000900A04203D314F1010FCDD0C3E7002CE4
:1033A000CAD1C0E74A462146284600F0C9F820B1F4
:1033B00020204FF0010A786007E000F012F810B109
:1033C0004FF0010A01E00120787000213970504669
:1033D000BDE8F687286B811C2963E88E411EE986CB
:1033E0007047A86838B9002100912968CA6800921E
:1033F00089680091009A7868704709D1296B2B6819
:103400000A781A73296B4A1C2A63E98E4A1EEA86D7
:10341000704709D1296B2B680A88DA60296B8A1CEE
:103420002A63E98E4A1EEA8670472068016821F007
:103430004001016070472DE9F843089C05460E469F
:1034400090461F4600F074F9381A241800F070F9FD
:103450008146444801684901090D6143009105E036
:10346000009800B900240098401E009028688168E8
:103470003140B1420CBF01200020404532D017F14D
:10348000010FF3D000F054F9A0EB0900A04201D2E3
:10349000002CE5D12868416821F0E00141606868AE
:1034A000B0F5827F08D1A868B0F5004F18BFB0F51D
:1034B000806F01D100F019F8A86AB0F5005F09D15A
:1034C0002868016821F4005101602868026842F40C
:1034D0000052026005F1500001214170002202708B
:1034E000032000E00020BDE8F2832868016821F095
:1034F0004001016070471CB504460B46FFF78DFE86
:1035000008D1A068B0F5004F18BFB0F5806F04D1A6
:10351000FFF78BFFFFF781FE06D1A068B0F5806F43
:1035200002D10092012101E0009280210022204678
:10353000FFF781FF10B100F00FF816BD002016BD97
:103540001CB500920B46044600228021FFF773FF52
:1035500008B100F001F816BD606D40F02000606514
:10356000032070478411002080B56748016841F04E
:1035700001010160026802F00102009200994268B4
:1035800042F0805242600022406800F0805000907B
:103590000F2100986FF0010000F0EAF85B48016825
:1035A00021F0E06141F00071016001BD78B585B0A6
:1035B00000F09BF82168564881424AD15248554D47
:1035C0004168554E41F480414160416801F48041B9
:1035D00004910499026842F0080202604FF420410D
:1035E000006800F0080000F086F800F034F84FF4AE
:1035F0008040002100900191029100F02CF8002001
:10360000706000218020F060B16031617161B16152
:10361000F1613046414D356000F0DCF808B100F052
:1036200035FBE664746205F114003D4E3060802085
:1036300010210022F0607160B26032617261B2618B
:10364000F261304600F0C6F808B100F01FFBA66436
:10365000746206B070BD2846694600F021BB006860
:103660003049884200D0704780B52748026842F44C
:10367000006202600022006800F4006000900521F2
:103680000098192000F074F8BDE80240192000F0FD
:103690008CB818B585B000F028F82168224881421E
:1036A00021D11948214C016841F480410160026830
:1036B00002F4804204920499026842F0040202601B
:1036C0004FF40071006800F0040000F014F8204688
:1036D000FFF7C2FF4FF4806000210090019102913A
:1036E0002046FFF7B9FF06B010BD044610220021A6
:1036F0006846FDF7DDBF0490022204980091019214
:10370000032103917047000018100240040001409B
:1037100000380040000C0140A83000204400024066
:10372000EC300020002C014000380140000801402E
:1037300001484068704700BF78110020090102006D
:1037400002D41F48815470471E4B02F00F021A44E6
:1037500002F8041C70471C4B19684FF6FF02000268
:10376000114000F4E06008431849084318607047AE
:1037700070B5154B1C68C4F302230124C3F107057F
:10378000052D2EBF0F2504FA05F56D1E1E1D072EF3
:1037900034BF0023DB1E2940994004FA03F3BDE83F
:1037A00070405B1E1A401143C8E7010007D4012294
:1037B00000F01F01064B8A40400943F82020704763
:1037C00000E400E018ED00E00CED00E00000FA0578
:1037D00000E100E030B508B9012030BD0268DFF833
:1037E000B0118A18142400F13803B2FBF4F4A400D9
:1037F000DFF8A0119C605960022280F82120016846
:103800000C684168826805686FF30D140C43C16849
:10381000144302690C434169144382690C43C16932
:1038200014430C432C6000221A60012380F82130DD
:1038300080F82020002030BD2DE9F84F00F128024B
:1038400004275169594BD1F800E0056858492E68A2
:10385000D2F818A0544CDFF84C81DFF84491DFF81F
:103860003CB1DFF834C107FA0AF71EEA070F31D07E
:1038700077072FD5D5F800E05FEA8E6605D4D5F836
:1038800000E02EF0040EC5F800E00568654508BFAD
:10389000042318D05D4508BF402314D04D4508BF10
:1038A0004FF480630FD0454508BF4FF480430AD0E2
:1038B000A54208BF4FF4802305D09D420CBF4FF4B2
:1038C00080034FF080630B60516800295DD0BDE834
:1038D000F44F0847022707FA0AF71EEA070F36D007
:1038E000B70734D5D5F800E05FEA8E6608D4D5F87E
:1038F00000E02EF00A0EC5F800E0012580F8215006
:103900000568654508BF022318D05D4508BF202320
:1039100014D04D4508BF4FF400730FD0454508BF84
:103920004FF400530AD0A54208BF4FF4003305D02E
:103930009D420CBF4FF400134FF000730B60002149
:1039400080F82010116801B3BDE8F44F0847082142
:1039500001FA0AF11EEA010F17D0310715D52B68BD
:1039600023F00E032B600124916953698C405C6045
:1039700001211161012380F82130002180F82010FD
:10398000916811B1BDE8F44F0847BDE8F18F000020
:10399000F8FFFDBF00000240080002401C0002408A
:1039A0003000024044000240580002406C000240D7
:1039B0000400024070B586B000F05EFA00F0FDF839
:1039C000102200F02BF9A64CA64D6068A64E40F0E0
:1039D000100060600022606800F0100004900498FD
:1039E000616841F020016160606800F0200004908F
:1039F0000498616841F004016160606800F00400AF
:103A000004900498616841F0080161604FF400512E
:103A1000606800F0080004900498284600F00EFA50
:103A200000224FF48051304600F008FA4FF4005164
:103A30000091012201920021029102220392694623
:103A4000284600F02DF94FF4404100F0B1F8284627
:103A500000F026F949F6FF1100F0AAF8834800F0BB
:103A60001FF940F6FF7100F0A3F8304600F018F996
:103A7000012101910022022103914FF4805502920D
:103A800000956946304600F00BF9206840F00100CF
:103A9000206000222168764C01F00101009105218F
:103AA00000980E20FFF764FE0E20FFF77EFE002236
:103AB00005210F20FFF75CFE0F20FFF776FE6D4813
:103AC00020604FF4827161600A2000224FF400717F
:103AD000E062A260E26022616261A161E261226251
:103AE0006262A2622046FFF7FFF908B100F0CEF84B
:103AF0006148A0654FF4E131E16500202066606611
:103B0000A0660C2120676067E16604F1580000F0B0
:103B1000C5F908B100F0BAF81022002102A8FDF79B
:103B2000C7FD082200F07AF8544E5548306041F63F
:103B30001F4109200022F0607160B2603261726141
:103B4000B261304600F02AFA08B100F09FF8029501
:103B500002A9304600F01CFB08B100F097F80021E4
:103B6000009101913046694600F0E4FB08B100F095
:103B70008DF8FEF77BFB00BF45A30FF2D5000022B6
:103B80000121A034FEF730FCA06000213D4D0FF272
:103B900095002A46FEF7A5FB206005F124020021CE
:103BA0000FF29900FEF79DFB6060FEF779FBFEE7E0
:103BB0000091032201926946704700B58FB0282218
:103BC000002105A8FDF774FD142200F027F84FF43A
:103BD00080310022069107920D91012005900990F5
:103BE00002224FF4E0110C920E9105A800F0D4FBD4
:103BF00008B172B6FEE7022101910F204FF48061F7
:103C0000009000220391029204920221684600F083
:103C10004DFD08B172B6FEE70FB000BD0021684649
:103C2000FDF746BD80B500F05AFE4FF47A70FEF7FE
:103C3000B9FB0120FEF7B6FBF7E7000080B50F489F
:103C400000F0B9F900F0F1FE0120FEF7ABFBF9E757
:103C5000704700680C49884208BF00F009BF7047F0
:103C60001410024000100140000C01400008014007
:103C7000182E002000380040003801401830002085
:103C8000002C0140BC5800080008004072B6FEE756
:103C9000585A000800000000703100203000000079
:103CA0002DE9F8474FF0000E0024664A664BDFF816
:103CB0009C814FF00F0982460DE017683840106074
:103CC00007E0C2F804C04D68ED03F6D5106807435D
:103CD00017600EF1010E0F6837FA0EF000F0AC809D
:103CE000012000FA0EFC0CEA07076745F1D148688D
:103CF00038B301281AD002281DD003282ED011284D
:103D000016D012281AD0524DA8421CBF514DA842BD
:103D100017D0514DA8421CBF504DA84211D0504D54
:103D2000A8421CBF4F4DA8420BD018E0CC6816E04B
:103D3000CC68241D13E0CC68083410E0CC680C3447
:103D40000DE0886808B9042409E0012819BF082497
:103D5000CAF814C00824CAF810C000E00024B7F55F
:103D6000807F03D250464FEA8E0C05E0AEF1080585
:103D70000AF104004FEA850C056809FA0CF6B54310
:103D800004FA0CF646EA050CC0F800C04868C0000A
:103D90009FD5D8F8000040F00100C8F80000D8F81E
:103DA000005005F0010500954FEA8E0500984FEA96
:103DB0009E0053F8206005F00C0C09FA0CF526EA79
:103DC0000505294EB24508BF00260ED0274EB24544
:103DD00008BF012609D0264EB24508BF022604D0EE
:103DE000244EB2450CBF0326042606FA0CF646EA1A
:103DF000050C43F820C0F8434D68D2F808C0ED0226
:103E00004CBF47EA0C0C00EA0C0CC2F808C04D6825
:103E1000D2F80CC0AD024CBF47EA0C0C00EA0C0C07
:103E2000C2F80CC04D68D2F804C0AD034CBF47EADD
:103E30000C0C00EA0C0C44E7BDE8F18702B9090458
:103E40000161704700040140080001401810024061
:103E500000001110000012100000211000002210BC
:103E6000000031100000321000080140000C014039
:103E7000001001400014014080B50748016841F07E
:103E8000100101600320FFF766FC0F2000F0F8FD31
:103E9000FFF76AFB002002BD0020024038B5040095
:103EA00001D1012032BD00F01BF808B900F01CF868
:103EB00000F01FF800F027F8FFE7416100F001F87B
:103EC00032BD2068C16841F40051C16000206860C3
:103ED000202169702020A8700021616300207047B4
:103EE00004F1400568787047002129702046FFF7EB
:103EF000D0BB242068702068C16821F40051C160E3
:103F0000204600F00AB82068016921F4904101615F
:103F10002068416921F02A01704710B504462268E3
:103F20001169E06821F4405101431161D3681949D6
:103F3000A0680B402169034360690B430343D360CE
:103F40005169A06921F440710143516112498A42CB
:103F500002D100F054FC01E000F049FC6268192134
:103F600048439200B0FBF2F16423B1FBF3F26FF02F
:103F7000630000FB021109013231B1FBF3F000F0E4
:103F8000F00101EB0211226800F00F004018906070
:103F900010BD0000F3E9FFFF0038014038B5040010
:103FA00001D1012032BD00F049F818B900F04EF9F6
:103FB000FFF755FB2AE090F83D10012901D00120C0
:103FC0007047022180F83D100168CA6842F0010282
:103FD000CA600168DFF85C20914218BFB1F1804FE0
:103FE00007D0DFF8542091421CBFDFF858309942C7
:103FF00005D1896801F00701062905D001680A6822
:10400000084642F0010202600020704702206870FA
:10401000211D206800F01EF90120A8720121A9705D
:10402000E87029716871A971E87129726872697004
:10403000002032BD002C01400004004004F13C058A
:10404000687870470008004010B504462068016990
:104050008A0715D5C1688A0712D56FF00201016180
:1040600001222277806910F0030F204602D000F071
:1040700055FD03E000F053FD00F087F800202077A5
:10408000206801694A0715D5C1684A0712D56FF043
:104090000401016102222277806910F4407F2046EA
:1040A00002D000F03BFD03E000F039FD00F06DF8B8
:1040B00000202077206801690A0715D5C1680A0722
:1040C00012D56FF00801016104222277C06910F057
:1040D000030F204602D000F021FD03E000F01FFD99
:1040E00000F053F80020207720680169CA0615D532
:1040F000C168CA0612D56FF010010161082222774B
:10410000C06910F4407F204602D000F007FD03E0B4
:1041100000F005FD00F039F80020207720680169E3
:10412000CA0708D5C168CA0705D56FF0010101614A
:104130002046FFF78EFD206801690A0608D5C16890
:104140000A0605D56FF080010161204600F0E8FC09
:10415000206801694A0608D5C1684A0605D56FF08E
:1041600040010161204600F0DCFC206801698A06FC
:104170000AD5C1688A0607D56FF020010161204683
:10418000BDE8104000F0CEBC10BD204600F0CBBC16
:1041900070B5064606F13C0500242878012801D1B7
:1041A000022070BD0120287002226A70DFF804012D
:1041B00032689368034093600868020018BF1028B3
:1041C00030D0202818BF30282CD0402826D05028A6
:1041D00019D060281BD0702806D0B0F5805F27D09A
:1041E000B0F5005F07D022E000F02BF8306881685E
:1041F00041F0770105E000F024F83068816841F46F
:104200008041816014E000F018F850210BE0CA688A
:104210004968306800F067F8602104E000F00DF8AC
:10422000402100E00146306800F06FF800E0012412
:104230000120687000F00AF870BDCA6849683068EB
:1042400042E0CB684A688968306866E000212970DE
:104250002046704770B50368174E184C184DB04291
:1042600018BFB0F1804F03D0A84218BFA04209D1B7
:104270004A6823F070031343B0421CBFB0F1804F73
:10428000A84201D0A04203D1CA6823F4407313436B
:104290004A6923F0800313430360B0428B68C36212
:1042A0000A68826202D10969064A116001234361EA
:1042B00070BD00008800FFFF002C01400008004096
:1042C00000040040302C014010B5036A046A640801
:1042D0006400046223F00A03846924F0F00444EAD1
:1042E0000214846123E010B5036A046A24F0100408
:1042F000046223F0A003846924F4704444EA023485
:10430000846143EA0113036210BD826822F07002E7
:10431000114341F007018160704710B5846824F4AF
:104320007F442143114341EA0321816010BD1943B9
:10433000016210BD70B500F13C031A78012A01D169
:10434000022070BD01221A7002245C7005686E683C
:10435000AC680A6826F0700616436E6002680B4867
:10436000824218BFB2F1804F05D0094882421CBF7B
:10437000084DAA4204D1486824F0800404439460A4
:10438000012159700020187070BD0000002C014000
:1043900000040040000800402DE9F843040016D056
:1043A0002078DFF8A464C10713D5706800F00C0012
:1043B000042807D0706800F00C00082841D170680C
:1043C000C1033ED53068810303D56068002800F042
:1043D00064812078DFF88074810719D5706810F047
:1043E0000C0F07D0706800F00C00082861D17068CD
:1043F000C1035ED43068810703D52069012840F0ED
:104400004C813168606921F0F80141EAC0013160F6
:104410002178080740F18180A069DFF84014002866
:1044200000F0A68001220A60FFF782F90546706A53
:10443000810763D4FFF77CF9401B0228F7D90320DA
:104440002EE16068B0F5803F04D1306840F48030E0
:10445000306014E008B930680AE0B0F5A02F306889
:1044600006D140F480203060316841F4803105E0AD
:1044700020F480303060316821F480213160606840
:1044800058B1FFF755F9054630688103A1D4FFF70D
:104490004FF9401B6528F7D3D1E7FFF749F90546E7
:1044A0003068810395D5FFF743F9401B6528F7D3A2
:1044B000C5E72069A8B101213960FFF739F9054640
:1044C0003068810705D4FFF733F9401B0228F7D97C
:1044D000B5E73068616920F0F80040EAC10030605B
:1044E00096E73860FFF724F90546316888078FD5CD
:1044F000FFF71EF9401B0228F7D9A0E7DFF84C03AD
:104500000168C9084FF47A72B1FBF2F2009200BF61
:104510000098411E00280091F9D1207841076ED5FE
:10452000F0690025C10009D4F06940F08050F061C5
:104530000125F06900F0805000900098DFF820839A
:10454000D8F80000C10520D4D8F8000040F48070ED
:10455000C8F80000FFF7ECF88146D8F80000C10564
:1045600013D4FFF7E5F8A0EB09006528F5D366E75B
:104570000860FFF7DDF80546706A8107CDD5FFF7C3
:10458000D7F8401B0228F7D959E7E068012808D07E
:1045900008B9306A09E00528306A06D140F0040005
:1045A0003062306A40F0010005E0400840003062AF
:1045B000306A20F00400306241F28938E06860B16E
:1045C000FFF7B6F88146306A810713D4FFF7B0F8D9
:1045D000A0EB09004045F6D331E7FFF7A9F8814683
:1045E000306A810706D5FFF7A3F8A0EB0900404524
:1045F000F6D324E71DB1F06920F08050F061E06946
:1046000000284CD0716801F00C01082938D002282C
:104610002AD100F047F805463068810105D5FFF73B
:1046200087F8401B0228F7D909E7206AB0F5803FD8
:1046300005D17168A06821F400310143716072688E
:10464000206A616A22F4741202430A4372600120F4
:1046500000F029F804463068810120D4FFF768F89B
:10466000001B0228F7D9EAE600F01CF8044630687F
:10467000810114D5FFF75CF8001B0228F7D9DEE6AC
:1046800001280AD07068226A00F48031914202BF8A
:1046900000F47010616A884201D0012000E000201F
:1046A000BDE8F28300203866FFF742B82DE9F041FB
:1046B000040088464ED06B4E00F077F802D200F02E
:1046C0006FF847D12068604D810712D5400703D5A8
:1046D000696841F4E06169602078010703D5686882
:1046E00040F4605068606968A06821F0F0010143FF
:1046F00069602178C80725D56068012802D129683A
:104700008A0303E00228296802D18A0102D421E049
:104710008A071FD56968890840EA81006860FFF749
:1047200007F807466868616800F00C00B0EB810F7D
:1047300008D0FEF7FDFFC01B41F289318842F1D35A
:1047400003202BE0306800F00700804504D200F021
:1047500027F801D0012021E02078410705D56A68BB
:10476000E06822F4E06202436A602178080706D517
:104770006968206921F4605141EAC001696000F074
:1047800019F86A683849314BC2F30312895CC84092
:1047900018603048006800F073F90020BDE8F0812F
:1047A0003168C90848EAC1013160306800F007008B
:1047B000404570472D4926480A6802F00C03082B33
:1047C00000D0704710B500BF2BA4C2F38343D203BF
:1047D000E35C08D5096858432BA3C1F340415A5CF8
:1047E000B0FBF2F010BD18462149484310BD1748F0
:1047F0001E4A006813681F49C3F3022206E01348EB
:104800001A4A006813681B49C3F3C222895CC84076
:10481000704710B50F220260144A136803F00303B7
:104820004360146804F0F0048460136803F4E063E8
:10483000C3601268D20802F4E062026109480268AB
:1048400002F007020A6010BD00100240841100202F
:1048500000127A008011002000004242800442428F
:104860000070004000200240205A0008041002405E
:1048700000093D00645A0008020304050607080900
:104880000A0B0C0D0E0F101001020000002200E0B8
:1048900001224FF480513748FFF7D0BA0A4601464B
:1048A0004FF0FF333448FEF715BC0A4601464FF07F
:1048B000FF333148FEF76DBB80B501216846FFF735
:1048C000EDFF9DF8000002BD01B501216846FFF72C
:1048D000ECFF01BD2949012008707047704738B5C9
:1048E00027492848254D284C00F02BF9274928480E
:1048F00000F034F92749284800F03DF9291D281D0A
:1049000000F089F9062205F10C014FF41060FCF764
:1049100016FA05F124010020FCF7F2F81F49204A9D
:104920000846FBF719FC02E0FCF708F8641E28783B
:1049300008B9002CF8D12878D0B105F11200FCF7A5
:104940002EF905F11A00FCF734F905F11600FCF711
:104950003AF905F62400FCF740F905F10C0000F0E7
:1049600091F905F22441012000F0CEF90120687090
:1049700031BD0000000C0140182E0020480000202E
:10498000914800088D480008A0860100C948000829
:10499000B9480008AB4800089D480008D548000801
:1049A000DD48000810B5284C0022626096B0022154
:1049B000201D00F0D7F940F25B7204F1D801201DF0
:1049C00000F00CFA4FF4006004F1DC016422029064
:1049D0000191009204F174034FF47A72211D04F1E5
:1049E000180000F038FA684618495822FEF770FAA5
:1049F00004218DF80810002016A200BF19A103920F
:104A0000109110A213923C218DF81B00ADF81810E4
:104A100001228DF81A20694604F1180000F084FB89
:104A2000606116B00120207010BD0948017801298D
:104A300007D105480178012904BF0120FDF7B2BC68
:104A4000B0E7704700000000700800201858000808
:104A50004900002077353530302D636C69656E7400
:104A600000000000757365726E616D6500000000E6
:104A700002494A68087882184A6070477811002015
:104A800078B50446204887B0016841F00401016010
:104A900001A9006800F00400009002A8009AFFF746
:104AA000B8FE059810B9FFF7A2FE02E0FFF79FFEDF
:104AB0004000164D1649174B2960B0FBF3F0401E1D
:104AC00040F2E73268600021EA602961A960A961CB
:104AD0002846FFF763FA060012D12846FFF76BFA63
:104AE00006000DD11E20FEF760FE102C07D200221A
:104AF00021461E20FEF73CFE0748046000E0012628
:104B0000304608B070BD00001C100240603000202C
:104B10000008004040420F0080110020704770479D
:104B200070477047704770477047704770477047CD
:104B300000787047017070470020704770477047D9
:104B40007047020001D00A0003D1DFF87C01DFF8D2
:104B50007C11DFF8702191615061704710B500F051
:104B600017F801D00B0003D1DFF86401DFF86411FE
:104B7000D061116210BD10B500F00AF801D00B0031
:104B800003D1DFF85401DFF854115062916210BD77
:104B9000DFF8302113889C05FDD503007047000025
:104BA00000B585B0062203A94FF41060FCF794F815
:104BB000042202A94FF48070FCF78EF8042201A9A8
:104BC0004FF4A060FCF788F8042269464FF4706047
:104BD000FCF782F880210020FCF753F80020FCF756
:104BE00025F8062203A94FF41060FCF7A8F8042268
:104BF00002A94FF48070FCF7A2F8042201A94FF437
:104C0000A060FCF79CF8042269464FF47060FCF742
:104C100096F805B000BD70B505460C46FFF7C0FF1D
:104C2000A5B1002000216A5C101842B2112A19DADD
:104C3000491C0829F7DB0026A95D41F6087000EB46
:104C40004610FCF71EF8761C082EF5DBC4B10020D8
:104C50000021625C101842B2112A03DA491C0829AB
:104C6000F7DB02E04FF0FF3070BD0025615D41F6DB
:104C7000086000EB4510FCF704F86D1C082DF5DB0F
:104C8000002070BD10B500F02DF8FCF758F800F0CA
:104C900035F8FCF754F800F02BF8FCF750F8042234
:104CA000A11D4FF47060FCF74AF80D48A17C01701B
:104CB000E27C4270217D8170627DC270A17D0171B4
:104CC00010BD0000881100202D4B00082F4B00085C
:104CD000394B00083D4B00083F4B0008414B000892
:104CE000B43100200446062221464FF4106070477C
:104CF000042204F10A014FF4A0607047042204F179
:104D00000E014FF480707047034A107041F2221078
:104D10005160508070470000A031002000214160A8
:104D2000704741680E4A1068091AC80F70470C4A4C
:104D30001368C9184160704710B5094B1C684FF4DF
:104D40007A7202FB0141416010BD05494068096863
:104D5000411A00208842B8BF084670470000000092
:104D6000C031002001600FF23D020FF211014160DD
:104D700082600FF26101C1607047000070B500F001
:104D800020F817280CD12068C0B2FCF717F838B10A
:104D9000B2B229462068BDE87040C0B2FCF77CBAC8
:104DA000002070BD70B500F00CF8172807D1B2B222
:104DB00029462068BDE87040C0B2FCF7E2B9002087
:104DC00070BD04460D4620684001164600F542704D
:104DD000FBF72CBF0068C0B2FCF799B970B5044668
:104DE0000D4620681646002343F239020121C0B265
:104DF000FCF770F82368984206D132462946D8B2AB
:104E0000FCF716F9012800D0002070BDF8B5044663
:104E10000D461646002711E03046FFF782FFB8B96D
:104E20003046FFF792FF0346206D2169D0F808C095
:104E30002A463944E04700280AD4C719AF42EBDBC1
:104E400006D1A16904F15400FFF776FF0020F2BDFE
:104E50004FF0FF30F2BD38B501650024002100EBB2
:104E6000C105491C04296C62F9DD069D059C049965
:104E700081604260002103614461C5600162017785
:104E8000C164012240F8542BBDE83240FFF746BF11
:104E90002DE9FE4304460D4690464FF0FF390026AB
:104EA00004EBC607796A21B3284600F068FAB0B966
:104EB000AA686868796A131802E05A1E491C521CD5
:104EC000087840B19A4206D292F800E0BEF12F0F66
:104ED00022D12F28F2D09A4208BF002809D1B86AFF
:104EE00038B10195CDF800806846B96A88474FF01F
:104EF0000009761C042ED3DD19F1010F09D1E06CF5
:104F000038B10195CDF800806846E16C88474FF0D4
:104F100000094846BDE8FE832B2805D02328CCD0C5
:104F20007045CBD0D7E7521C501C9842C6D20078AF
:104F30002F28F8D1C2E73EB505464FF0FF34A869E7
:104F400008B900241AE005F15400FFF7EAFEA8B101
:104F5000287F98B900F0D2F84FF47A7100F0CAF8BF
:104F6000A968286900F053FB0146002906DD6A465E
:104F700000F02AF9040004BF0120287720463EBD36
:104F80002DE9F84788460FF258210A688DB005468A
:104F900001924046FFF7D9FE0346286D69694468CF
:104FA0000122A047002601284FF6FF773AD140465C
:104FB000FFF7CBFE82464FF001090524641E14D092
:104FC000286DD0F804C0534601226946E047012805
:104FD0000BD19DF8000000F07F0009FB00669DF8F2
:104FE000000001064FEAC919E8D468693146401C3F
:104FF00000F0F8F8002E81460DDD4046FFF7A5FED3
:10500000034668692C6D4844411C2046646832465A
:10501000A047B04206D1686901788DF80410019864
:10502000C0F303170024032F05D0052F3FD00D2F09
:1050300008BF2C7751E0E868049009A869690391DA
:105040000AAA08A902900191009207AB0DF119027A
:1050500005A90DF11A0000F0EFFA012841D10598D9
:105060008DF8180006AA0AA92846FFF711FF9DF837
:105070001800002831D0012805D1BDF81C0000908F
:105080000023042206E0022824D1BDF81C00009071
:1050900000230522A968286900F046FB002819DDD5
:1050A00000F024F8044614F1010F16D11AE000F0C4
:1050B0008DF801280ED1BDF8060000900023A968E4
:1050C0002869062200F030FB002803DD00F00EF80E
:1050D0000400E8D04FF0FF3404E02846FFF72BFF30
:1050E00004B93C4620460EB0BDE8F0870146424672
:1050F00028468BE66846FFF71ABE04466846FFF767
:105100000DBEF8B504460D4616464FF0FF37304643
:10511000FFF707FE30B931462046FFF731FF07465B
:10512000AF42F4D13846F2BD2DE9F84199B00746B7
:105130000D4603A823495822FDF7CAFE4FF0FF3859
:105140003E6A4446BEBB01A8FFF7E8FD796801A8A6
:10515000FFF7EDFD05B903AD298BB96107F15400E7
:10516000FFF7EAFDB96838692A4600F063F90028BC
:1051700021DD014601AA3846FFF748FE040017D199
:1051800001AA02213846FFF7BCFF022817D1FF21F0
:1051900000228DF800108DF801206946FB687A69BD
:1051A0000DF1010000F0E0F9012808D19DF8004060
:1051B0000CB90120386220461AB0BDE8F08144469F
:1051C000F9E70000C057000828461FE6E86800908D
:1051D0000DF106026B690DF1050101A800F07ABA24
:1051E0000000000010B5024600208B1101EB536453
:1051F000E411A1EBC41321460029C8BF43F080038A
:105200001354401C0029F0DC10BDF8B50D460027F2
:10521000044601262F607F1C052F11DA0121684604
:10522000A04701280CD19DF80010286801F07F01EB
:1052300006FB01002860F6019DF800000106EAD493
:105240003846F2BD401C802801DA401C7047B0F59A
:10525000804F01DA801C70470C49884201DAC01C7B
:105260007047001D704730B5094B1C68002203E0F1
:1052700014F8015B0570521C8A42F9DB1C60084679
:1052800030BD034A10600348BFE70000FFFF1F0066
:10529000C43100206752000801460A68137850782C
:1052A000921C00EB03200A60704701460A6812F85E
:1052B000010B0A6070470268117001684B1C0360A3
:1052C000704710B5CA11046801EB12631B122370FA
:1052D0000268531C0360197001684A1C026010BD0B
:1052E00070B504460D46284600F04CFA0646314695
:1052F0002046FFF7E6FF206832462946FDF7E8FD25
:1053000020683044206070BD3EB51546002D04462F
:105310000BDD2946FFF7D5FF029920682A46FDF7E5
:10532000D7FD21682944216037BD19B103B0BDE81C
:105330003040D5E703B0BDE830400021C1E7F8B503
:105340000E460446306817460025381A01280BDD42
:105350003046FFF7A1FF60606168306801448F420A
:1053600002D3A06031600125002020602846F2BDF4
:1053700080B510B100F006FA0146084602BD70B5CE
:1053800004680D4624B1204600F0FCF9064601E011
:1053900084684668284600F0F5F9864208D132460E
:1053A0002946204600F0F8F9401E8041C00F70BD2C
:1053B000002070BD0000000038B504460025207AAA
:1053C000032808BF0C2502D0042808BF0A2504F1D1
:1053D0000C0393E80700FFF7CBFF4519E07EAD1CF7
:1053E00060B104F1240107C9FFF7C2FF451904F1B8
:1053F000300007C8FFF7BCFF45192D1D206C0028A1
:1054000004BFA06C002806D004F1400107C9FFF7D3
:10541000AFFF4519AD1CE06C002804BF606D00288B
:1054200006D004F14C0107C9FFF7A2FF4519AD1CD6
:10543000284632BDFEB515467BA31F68019704467A
:1054400078A0026802920E4600942846FFF7B4FF47
:105450000746FFF7F7FE864202DA6FF00100FEBD55
:1054600000208DF808000120029960F307110291D5
:1054700068461021FFF71FFF00983946FFF7B2FE7C
:105480000099084400902A7A042A05D161A168464F
:10549000FFF726FF042104E060A16846FFF720FF24
:1054A00003216846FFF707FF00208DF804000199EB
:1054B000A87E60F34101E87E00B104200143019120
:1054C00005F13C010198C0F3800038B14A78019899
:1054D00062F3C4000A7862F345100190486800281E
:1054E00004BFC868002803D0019840F080000190F4
:1054F0000869002804BF8869002803D0019840F09B
:105500004000019068469DF80410FFF7D4FE298BF7
:105510006846FFF7D6FE05F10C0000F01FF8E87EA4
:1055200048B105F124010EC96846FFF7EDFE05F10B
:10553000300000F013F80198C0F3C01018B105F165
:10554000400000F00BF80198C0F3801018B105F18D
:105550004C0000F003F80098001BFEBD90E80E0020
:105560006846FFF7D1BE00007FB50D462FA10B683E
:105570002FA1009204460A68019302926846FFF741
:1055800094FE8DF8040000260198C0F30310022851
:1055900018D1009803A9FFF774FE064600980399F6
:1055A0003044012900900DDD6846FFF77EFE8DF83E
:1055B000080001260298C0F3C01020706846FFF76B
:1055C00074FE2870304604B070BD00003EB500BFC8
:1055D00018A31D680095044601940229B8BF6FF016
:1055E000010412DB00208DF80000009862F3071020
:1055F000009001A89DF80010FFF75DFE01980021C2
:10560000FFF7F0FD01990844041B20463EBD0C2223
:10561000DCE700004D515454000000004D51497327
:1056200064700000000000000000000000000000A6
:1056300000000000000000002DE9FE43804600BF8E
:1056400037A00C46164601680D9A0191009200277A
:105650001D4602976846FFF728FE8DF80400019862
:10566000C0F30310032831D10198DDF82890C0F36E
:10567000C00088F800000198C0F341002060019943
:1056800001F00101317002A90098FFF7FAFD074609
:105690000098C0190090014602980E1832466946DB
:1056A0004846FFF74CFE88B10098301A0ED42168A6
:1056B000002903DD6846FFF7EFFD28800C9A00986B
:1056C0000B99361A16600127009A0A603846BDE821
:1056D000FE8300007FB5054612A0009314460268C1
:1056E00001920E466846FFF7E0FD8DF8040002A91E
:1056F0000198C0F3C00030700198C0F30310287007
:105700000098FFF7BEFD0099029A0144012A00911A
:1057100004DD6846FFF7C0FD2080012004B070BDA5
:1057200000000000000000003EB5054614A000681F
:1057300000950429B8BF6FF001051EDB63F3C300B9
:1057400062F30710062A0CBF0221002120F0060098
:1057500008430190069C9DF804106846FFF7ABFDD6
:1057600000980221FFF73EFD009908440090214671
:105770006846FFF7A6FD0098451B28463EBD000081
:105780000000000000F1010310F8011B11B110F836
:10579000011BFBE7C01A704704E010F8013B6BB136
:1057A000491C521E52B10B7890F800C09C45F4D0B1
:1057B00002D24FF0FF307047012070470020704741
:1057C0004D515443000000000400000000000000A0
:1057D00000000000000000003C0001004D51545743
:1057E00000000000000000000000000000000000B9
:1057F00000000000000000000000000000000000A9
:105800000000000000000000000000000000000098
:1058100000000000000000004D5154430000000053
:105820000400000000000000000000000000000074
:105830003C0001004D5154570000000000000000E2
:105840000000000000000000000000000000000058
:105850000000000000000000000000000000000048
:105860000000000000000000000000000000000038
:10587000FEE7FEE7FEE7FEE7FEE770470A48FDF7B2
:10588000DBBF0A48FDF7D8BF80B50948FEF7DCFB4F
:1058900008480168491C042928BF0021016001BD96
:1058A0000548FEF7D1BB0000A8300020EC300020F6
:1058B00018300020C031002060300020405A00081D
:1058C00000000000602F00205C000000EC28002099
:1058D00000020000180000000000000000000000AE
:1058E0004C5A000800000000BC2F00205C000000A3
:1058F000EC2A002000020000190000000000000057
:105900000000000030B4002512E050F8042BD3074B
:1059100044BF4A44521E091F042942F8045BFAD2CC
:1059200013468C0744BF15809B1CC90748BF1D70D8
:1059300050F8041B0029E8D130BC704710B500F0C6
:1059400013F8020000230024E4431068A04203D0AF
:1059500011000220ABBE13605068A04203D0111D9D
:105960000220ABBE536010BD00487047B411002048
:1059700010B5074979441831064C7C44163404E0CC
:105980000A68081D114488470146A142F8D110BD9C
:1059900008000000240000006DFFFFFF0C20000045
:1059A000BC110020000000002FBDFFFF5C010000C3
:1059B000680100000000002000F00DF8002801D070
:1059C000FFF7D6FFAFF300800020AFF30080FDF7B4
:1059D000F1FF00F002F80120704700F001B800006C
:1059E0000746384600F002F8FBE7000080B5FFF7F5
:1059F000A5FF024A11001820ABBEFBE726000200FB
:105A00000548014603B4684680F30988AFF3008077
:105A1000AFF30080FFF7D0FFA5EDF5FE7047000063
:105A2000000000000000000001020304060708094E
:105A300001488047014800471D5A0008015A0008E4
:105A40004D61696E5461736B000000004D515454F8
:105A50005461736B0000000054696D6572317365A9
:105A6000630000000000000001020304FFF7FEBF16
:105A7000FFF7FEBFFFF7FEBFFFF7FEBFFFF7FEBF5A
:105A8000FFF7FEBFFFF7FEBFFFF7FEBFFFF7FEBF4A
:105A9000FFF7FEBFFFF7FEBFFFF7FEBFFFF7FEBF3A
:105AA000FFF7FEBFFFF7FEBFFFF7FEBFFFF7FEBF2A
:105AB000FFF7FEBFFFF7FEBFFFF7FEBFFFF7FEBF1A
:105AC000FFF7FEBFFFF7FEBFFFF7FEBFFFF7FEBF0A
:105AD000FFF7FEBFFFF7FEBFFFF7FEBFFFF7FEBFFA
