:020000040800F2
:2000000060290020F1D6000819D600081BD600081DD600081FD6000821D600080000000081
:200020000000000000000000000000006BBC000823D600080000000025BC0008CFAF000821
:200040001BD700081FD7000823D7000827D700082BD700082FD7000833D7000837D7000860
:200060003BD700083FD7000843D7000847D700084BD700084FD7000853D7000857D7000840
:200080005BD700085FD7000863D7000867D7000825D600086BD700086FD7000873D7000873
:2000A00077D700087BD700087FD7000883D7000887D700088BD700088FD7000893D7000820
:2000C00097D700089BD700089FD70008A3D70008A7D70008ABD70008AFD70008B3D7000800
:2000E000B7D70008BBD70008BFD70008C3D70008C7D700082BD60008CBD70008CFD7000889
:20010000D3D70008D7D70008DBD70008DFD70008E3D70008E7D70008EBD70008EFD70008DF
:20012000F3D70008F7D70008FBD70008FFD70008151903000000000000000000000000002E
:2001400000000000000000000000000000000000000000000000000000000000000000009F
:2001600000000000000000000000000000000000000000000000000000000000000005007A
:2001800000000000000000000000000000000000006000006000006000006000006000007F
:2001A00060000060000020000020000000000000000030000070000020000000000000007F
:2001C0000000000000000000000007000000000000000000000000000000000000C8000050
:2001E00048000048000048000008000000000000000000000000000000000000000000001F
:200200000000000000000000000000000000000000000000000009000000000000000000D5
:200220000000000000000000001200001200001200000000007F000024000024000024009D
:2002400000240000FE0000240000040000000000480000000000000000000000000000000C
:200260000000090000000000000000000000000000000800000800000E00003E00002000F9
:20028000006000003000003800001E00000600000200000300000600003E00001800001001
:2002A00000001000000000000000000000000E000000000000000000000000000000000020
:2002C00000300000480000480000888000880000090000482000725000004000044800000F
:2002E00048000840001050001020000000000000000000000000000000000B0000000000D3
:20030000000000000000000000000000000400001E00001300003300001200001E0000182D
:2003200000003C40004C4000C6C000C380006380007FC00018C000000000000000000000F2
:200340000000000000000400000000000000000000000000000000000060000060000020B9
:2003600000002000000000000000000000000000000000000000000000000000000000005D
:20038000000000000000000000000000000000000000050000000000000000000000000058
:2003A000000008000010000010000020000020000020000020000060000060000060000075
:2003C000200000200000200000200000300000100000080000000000000000000000050050
:2003E000000000000000000000000000000060000020000030000010000010000018000015
:20040000180000180000180000180000180000100000100000100000300000200000600084
:200420000000000000000000000008000000000000000000000000000000000000000000B4
:20044000120000040000480000080000140000120000000000000000000000000000000010
:20046000000000000000000000000000000000000000000000000D0000000000000000006F
:200480000000000000000000000000000000000000000200000200000200000200007FE0F5
:2004A00000060000020000020000020000020000000000000000000000000000000000002E
:2004C000000005000000000000000000000000000000000000000000000000000000000017
:2004E0000000000000000000000000000000000000000000000020000060000040000040FC
:200500000000000000000000000000000000060000000000000000000000000000000000D5
:200520000000000000000000000000000000000000000000000078000078000000000000CB
:20054000000000000000000000000000000000000000000000000000000005000000000096
:2005600000000000000000000000000000000000000000000000000000000000000000007B
:2005800000000000000000000000000000003000007000002000000000000000000000009B
:2005A000000000000000060000000000000000000000000000000000000800000800000025
:2005C00000001000001000001000002000002000002000004000004000004000008000004B
:2005E0008000008000000000000000000000000000000900000000000000000000000000F2
:2006000000000000000800003E0000630000630000610000C18000C18000C18000C1800069
:200620004100006300006300003E0000080000000000000000000000000000000000090064
:2006400000000000000000000000000000000000000C00003C00002C00000C00000C00000E
:200660000C00000C00000C00000C00000C00000C00000C00000C00000C000000000000000E
:20068000000000000000000000000900000000000000000000000000000000000018000039
:2006A0003E00000600000300000300000600000600000600000C000018000030000030005A
:2006C000007F00007F00000000000000000000000000000000000900000000000000000013
:2006E0000000000000000000001800003E00000600000300000200000600001C00001C005B
:20070000000600000300000300000600007E00003000000000000000000000000000000019
:200720000000090000000000000000000000000000000000000600000E00000E0000160078
:2007400000160000260000260000460000460000FF0000FF0000060000060000060000009B
:20076000000000000000000000000000000009000000000000000000000000000000000070
:20078000003E00003E00003000003000002000003800003E000006000003000003000006D5
:2007A00000000600007C00003000000000000000000000000000000000000900000000007E
:2007C000000000000000000000000000000100000F00003800003000006000006400007F5E
:2007E0000000E30000C18000C180006100006300003E00000C000000000000000000000086
:20080000000000000000090000000000000000000000000000000000007F00007F000003CE
:2008200000000200000600000600000400000C00000C000008000018000018000030000026
:2008400030000000000000000000000000000000000009000000000000000000000000005F
:2008600000000000000800003600002200006300006200007600003E000037000063000005
:20088000418000C1800063000077000008000000000000000000000000000000000009006B
:2008A00000000000000000000000000000000000000C00003E0000630000410000C1800009
:2008C000C180006380007F00001100000300000700000E00007C0000400000000000000090
:2008E0000000000000000000000005000000000000000000000000000000000000000000F3
:20090000000000000000000000200000300000200000000000000000000000000000200047
:20092000003000002000000000000000000000000000000000000500000000000000000062
:20094000000000000000000000000000000000000000000000200000300000200000000027
:20096000000000000000000000002000002000006000004000000000000000000000000097
:2009800000000D00000000000000000000000000000000000000000000000000000000004A
:2009A000000060000380000E0000380000700000180000060000018000006000000000009F
:2009C00000000000000000000000000000000D00000000000000000000000000000000000A
:2009E000000000000000000000000000000000007FE0000000000000000000000000007F19
:200A0000E0000000000000000000000000000000000000000000000000000D0000000000E9
:200A2000000000000000000000000000000000000000000000000000007000001C00000327
:200A4000000000C00000600000C00007000018000060000000000000000000000000000037
:200A6000000000000000070000000000000000000000000000001000007C00000C00000CCB
:200A800000000C00000C000018000010000010000030000000000000000018000038000086
:200AA0001000000000000000000000000000000000000D0000000000000000000000000019
:200AC0000000000000000000000000038000000000000000218000049000089000489000EE
:200AE00050800051800048A0000C40000000000000000600000000000000000000000A0011
:200B000000000000000000000000000000000000001C00001C00001400001600001600005D
:200B20003600003200002200002300007F00007F0000630000610000418000000000000085
:200B4000000000000000000000000A0000000000000000000000000000000000003C00004F
:200B60007F00006300006180006100006300007E00007F000061800060C00060C0006180EF
:200B8000007F80007C000000000000000000000000000000000008000000000000000000D2
:200BA0000000000000000000000600003E0000300000600000600000400000C00000C00041
:200BC00000C000006000006000007000003E00000C000000000000000000000000000000DB
:200BE00000000A0000000000000000000000000000000000003800007F0000638000618070
:200C00000061800060C00060C00060C0006080006180006180006380007F00007800000017
:200C20000000000000000000000000000000080000000000000000000000000000000000AC
:200C4000007E00007E00006000006000006000006000007E00007E000060000060000060FC
:200C600000006000007E00007E000000000000000000000000000000000008000000000010
:200C8000000000000000000000000000007E00007E00006000006000006000006000007E5A
:200CA00000007E000060000060000060000060000060000060000000000000000000000076
:200CC0000000000000000A0000000000000000000000000000000000000700001F000038AC
:200CE0000000600000600000600000C78000C78000C180006180006180007180003F800093
:200D00000600000000000000000000000000000000000B00000000000000000000000000C2
:200D2000000000000060C00060C00060C00060C00060C0007FC0007FC00060C00060C00055
:200D400060C00060C00060C00060C00060C0000000000000000000000000000000000500EE
:200D6000000000000000000000000000000000000060000060000060000060000060000093
:200D80006000006000006000006000006000006000006000006000006000000000000000F3
:200DA0000000000000000000000006000000000000000000000000000000000000300000FD
:200DC000300000300000300000300000300000300000300000300000300000300000300003
:200DE00000F00000C000000000000000000000000000000000000A00000000000000000039
:200E00000000000000000000006180006300006300006600006600006400007C00007C0003
:200E20000076000066000063000063000063000061800000000000000000000000000000CC
:200E400000000800000000000000000000000000000000000060000060000060000060000A
:200E6000006000006000006000006000006000006000006000006000007E00007E00000076
:200E800000000000000000000000000000000D000000000000000000000000000000000045
:200EA000003870003870003870003870002C70002CB00024B00024B00024900026900023E5
:200EC00010002310006310006010000000000000000000000000000000000B0000000000E1
:200EE0000000000000000000000000000061800071800071800071800079800069800069F3
:200F0000800065800065800067800063800063800063800061800000000000000000000016
:200F20000000000000000A0000000000000000000000000000000000000C00003F000073E9
:200F4000800061800061800040C000C0C000C0C000C0C0006180006180007380003F0000DB
:200F60000C00000000000000000000000000000000000A000000000000000000000000005B
:200F800000000000003800007F00006300006180006180006100006300007F00007C0000B6
:200FA0006000006000006000006000006000000000000000000000000000000000000A0047
:200FC00000000000000000000000000000000000000C00003F000073800061800061800011
:200FE00040C000C0C000C0C000C0C0006180006180007380003F00000F000001C00000406D
:20100000000000000000000000000A0000000000000000000000000000000000003C00008A
:201020007F00006300006180006100006300007E00007E00006300006300006300006300A1
:201040000061800061800000000000000000000000000000000008000000000000000000C6
:201060000000000000000000000E00003E00003000006000006000003000003C00000E00BA
:20108000000600000300000300000600007E00003800000000000000000000000000000088
:2010A0000000080000000000000000000000000000000000007F00007F00001800001800FA
:2010C000001800001800001800001800001800001800001800001800001800001800000020
:2010E00000000000000000000000000000000B0000000000000000000000000000000000E5
:201100000061800061800061800061800061800061800061800061800061800061800031D4
:2011200000003300003F00000C000000000000000000000000000000000009000000000028
:201140000000000000000000000000000061800061800063800063000063000033000033BE
:2011600000003200003200001600001600001C00001C00001C00000000000000000000008B
:201180000000000000000E000000000000000000000000000000000000E318006318006368
:2011A000180063180067180065900024900024B00024B00034B00038E00038E00018600040
:2011C00018600000000000000000000000000000000009000000000000000000000000008E
:2011E00000000000006300006300006200003600003400001C00001C00001C00003C0000CD
:20120000340000260000660000630000430000000000000000000000000000000000080060
:2012200000000000000000000000000000000000006300006300006300002200003600002D
:201240003400001C00001C0000180000180000180000180000180000180000000000000092
:2012600000000000000000000000080000000000000000000000000000000000007F0000E7
:201280007F00000600000600000C00000C00000800001800001000003000002000006000CB
:2012A000007E00007E0000000000000000000000000000000000050000000000000000002D
:2012C00000000000000070000060000060000060000060000060000060000060000060009E
:2012E0000060000060000060000060000060000060000060000070000000000000000000DE
:201300000000050000000000000000000000000000000000008000008000008000008000C8
:201320000040000040000040000040000020000020000020000020000010000010000010FD
:20134000000000000000000000000000000005000000000000000000000000000000700018
:2013600000300000300000300000300000300000300000300000300000300000300000305D
:2013800000003000003000003000003000007000000000000000000000000D000000000010
:2013A0000000000000000000000000000002000006000005000009000008800018800010E7
:2013C0004000104000206000202000000000000000000000000000000000000000000000BD
:2013E0000000000000000B00000000000000000000000000000000000000000000000000E2
:201400000000000000000000000000000000000000000000000000000000000000000000CC
:20142000000000000000FFC0000000000000000000000600000000000000000000000000E7
:2014400000002000001000001000000000000000000000000000000000000000000000004C
:20146000000000000000000000000000000000000000000000000000000000000000090063
:20148000000000000000000000000000000000000000000000000000000000000018000034
:2014A0007E00000600000F0000770000430000C300004700007F0000230000000000000033
:2014C000000000000000000000000900000000000000000000000000000060000060000043
:2014E0006000006000006000006600007F00007300006380006180006180006100007300FB
:20150000007F000064000000000000000000000000000000000007000000000000000000E1
:201520000000000000000000000000000000000000000000000C00003C00006000006000A3
:2015400000C00000C000006000006000003C000018000000000000000000000000000000F7
:201560000000090000000000000000000000000000000180000180000180000180000180DD
:20158000001180007F8000638000618000C18000C180006180006380007F80001180000021
:2015A000000000000000000000000000000009000000000000000000000000000000000022
:2015C000000000000000000000000000001800003E0000620000430000FF0000FF000040D2
:2015E00000006000007E00001C0000000000000000000000000000000000060000000000EB
:20160000000000000000000000000C00003C0000300000600000600000F80000F800006042
:2016200000006000006000006000006000006000006000006000000000000000000000000A
:20164000000000000000090000000000000000000000000000000000000000000000000081
:2016600000000000001980007F8000638000618000C18000C180006180006380007F8000C9
:201680001180000100000300007F00003800000000000A00000000000000000000000000F4
:2016A00000006000006000006000006000006000006200007F000073000061800061800034
:2016C0006180006180006180006180006180000000000000000000000000000000000500A0
:2016E0000000000000000000000000000000200000600000200000000000000000600000EA
:20170000600000600000600000600000600000600000600000600000600000000000000069
:20172000000000000000000000000500000000000000000000000000000020000060000024
:20174000200000000000000000600000600000600000600000600000600000600000600069
:2017600000600000600000600000600000E000000000000000000900000000000000000000
:201780000000000000006000006000006000006000006000006300006600006600006400D6
:2017A000007C00007C0000660000660000630000630000000000000000000000000000009F
:2017C000000005000000000000000000000000000000600000600000600000600000600024
:2017E000006000006000006000006000006000006000006000006000006000006000000029
:2018000000000000000000000000000000000E0000000000000000000000000000000000BA
:20182000000000000000000000000000006210007F7800738C00618C00618C00618C006118
:201840008C00618C00618C00618C000000000000000000000000000000000A00000000002B
:20186000000000000000000000000000000000000000000000000000006200007F00007314
:20188000000061800061800061800061800061800061800061800000000000000000000021
:2018A00000000000000009000000000000000000000000000000000000000000000000001F
:2018C00000000000000C00003F0000630000630000C18000C180006300006300007F000030
:2018E0001C00000000000000000000000000000000000900000000000000000000000000C3
:2019000000000000000000000000000000000000006400007F00007300006300006180002D
:201920006180006300007300007F0000640000600000600000600000600000000000090084
:201940000000000000000000000000000000000000000000000000000000000000198000EE
:201960007F8000638000618000C18000C180006180006380007F80001180000180000180CC
:2019800000018000018000000000060000000000000000000000000000000000000000003F
:2019A0000000000000000000006400006C00007800007000006000006000006000006000EF
:2019C000006000006000000000000000000000000000000000000700000000000000000040
:2019E000000000000000000000000000000000000000000000180000780000C00000E000B7
:201A0000007800003C00000C00000C0000FC0000600000000000000000000000000000009E
:201A20000000070000000000000000000000000000000000000000000000006000006000DF
:201A400000F80000F8000060000060000060000060000060000070000038000018000000F6
:201A600000000000000000000000000000000900000000000000000000000000000000005D
:201A800000000000000000000000000000618000618000618000618000618000618000619F
:201AA00080003380003F80001180000000000000000000000000000000000800000000009B
:201AC0000000000000000000000000000000000000000000000000000062000066000066D8
:201AE00000006600002400002400003400001C0000180000180000000000000000000000B8
:201B00000000000000000D00000000000000000000000000000000000000000000000000B8
:201B2000000000000062300066300067300065200025200025200029600038C00018C0007E
:201B400018C0000000000000000000000000000000000800000000000000000000000000A5
:201B600000000000000000000000000000000000006200006600002400003400001800002D
:201B80001C00002C0000240000660000660000000000000000000000000000000000080005
:201BA0000000000000000000000000000000000000000000000000000000000000620000C3
:201BC0006200006600006600002400003400003400001C00001800001800001800003000B7
:201BE00000700000600000000000070000000000000000000000000000000000000000000E
:201C00000000000000000000007E00007E00000C000008000018000010000020000060000C
:201C200000FC0000FC000000000000000000000000000000000005000000000000000000A7
:201C4000000000000000100000300000600000600000600000200000200000200000400084
:201C60000040000020000020000020000020000060000060000030000010000000000000A4
:201C80000000050000000000000000000000006000006000006000006000006000006000FF
:201CA000006000006000006000006000006000006000006000006000006000006000006004
:201CC00000006000006000006000006000000500000000000000000000000000000040003F
:201CE00000200000300000300000300000300000300000300000180000100000300000301C
:201D000000003000003000003000003000002000004000000000000000000D000000000096
:201D2000000000000000000000000000000000000000000000000000000000000000001093
:201D400000002C200003400000800000000000000000000000000000000000000000000074
:201D6000000000000000030000000000000000000000000000000000000000000000000060
:201D8000000000000000000000000000000000000000000000000000000000000000000043
:201DA0000000000000000000000000000000000000000B0000000000000000000000000018
:201DC00000000000007F80007F80001800001800001800001900001FC00018C00018C00015
:201DE00018600018600018600018C00018C00001C000018000000000000000000000080081
:201E000000000000000000000400000800000000007E00007E00006000006000006000009A
:201E2000600000600000600000600000600000600000600000600000600000000000000042
:201E400000000000000000000000040000000000000000000000000000000000000000007E
:201E6000000000000000000000000000000000000000000000000000000000000000200042
:201E800000600000400000400000000000000000000000000000070000000000000000005B
:201EA0000000000000000C00000800001000000000000000007C00007C0000600000600046
:201EC0000060000060000060000060000060000060000000000000000000000000000000C2
:201EE0000000070000000000000000000000000000000000000000000000000000000000DB
:201F00000000000000000000000000000000000000000000000024000064000048000048A9
:201F200000000000000000000000000000001500000000000000000000000000000000008C
:201F4000000000000000000000000000000000000000000000000000000000000000000081
:201F600000001830603870E0102040000000000000000000000000000000090000000000B8
:201F8000000000000000000000000000001800001800001800001800007F00007F000018CB
:201FA000000018000018000018000018000018000018000018000018000000000000000061
:201FC0000000000000000900000000000000000000000000000000000018000018000018B0
:201FE00000001800007E00007E00001800001800001800007F00007F000018000018000057
:020000040800F2
:2020000018000000000000000000000000000000000009000000000000000000000000009F
:2020200000000000000600001E0000380000300000300000FE0000600000600000FE000028
:202040006000003000003000001E000004000000000000000000000000000000000014008A
:202060000000000000000000000000000000000000300000484000480000888000880000D0
:202080000900004820C07251200441200449100849100041201051200020C0000000000047
:2020A000000000000000000000000F0000000000000000000000000000000000007F800012
:2020C0007F800061800061800061800061E00061FC00618C00618E00618600618C00C18CC3
:2020E00000C1F80081E00000000000000000000000000000000005000000000000000000C1
:2021000000000000000000000000000000000000000000000000000000000020000040005F
:2021200000400000400000400000200000200000000000000000000000000000000000009F
:2021400000000F0000000000000000000000000000000000006180006180006180006180EC
:202160000061800061E0007FFC007FFC00618E00618600618400618C0061F80061E0000005
:2021800000000000000000000000000000000A00000000000000000006000004000000002B
:2021A000006380006300006300006600006600006400007C00007E00006600006300006320
:2021C00000006300006180006180000000000000000000000000000000000C0000000000CE
:2021E00000000000000000000000000000FF0000FF00003000003000003000003180003F61
:20220000C00038C000306000306000306000306000306000306000000000000000000000A6
:202220000000000000000B00000000000000000000000000000000000060C00060C00060F3
:20224000C00060C00060C00060C00060C00060C00060C00060C00060C00060C0007FC0005F
:202260007FC0000C00000C00000C00000000000000000A00000000000000000000000000F1
:202280000000600000600000FE00006000006000006000007F00007300006300006180002A
:2022A00061800061800061000063000063000006000000000000000000000000000004002B
:2022C00000000000000000000000000000000000000000002000002000004000004000003E
:2022E0000000000000000000000000000000000000000000000000000000000000000000DE
:20230000000000000000000000000400000000000000000000000000000000000020000099
:202320002000004000004000000000000000000000000000000000000000000000000000FD
:20234000000000000000000000000000000000000000000000000700000000000000000076
:202360000000000000000000000000002400002400004C0000480000000000000000000081
:2023800000000000000000000000000000000000000000000000000000000000000000003D
:2023A000000007000000000000000000000000000000000000240000240000440000480042
:2023C0000008000000000000000000000000000000000000000000000000000000000000F5
:2023E0000000000000000000000000000000060000000000000000000000000000000000D7
:202400000000000000000000000000000000000000000000000038000078000038000010C4
:2024200000000000000000000000000000000000000000000000000000000B000000000091
:2024400000000000000000000000000000000000000000000000000000000000000000007C
:2024600000000000007FC0007FC000000000000000000000000000000000000000000000DE
:20248000000000000000150000000000000000000000000000000000000000000000000027
:2024A0000000000000000000000000000000000000FFFFE0FFFFE000000000000000000060
:2024C0000000000000000000000000000000000000000300000000000000000000000000F9
:2024E0000000000000000000000000000000000000000000000000000000000000000000DC
:202500000000000000000000000000000000000000000000000000000000000000000B00B0
:20252000000000000000000000000000000000000076600024200024A00025A000252000B3
:2025400000000000000000000000000000000000000000000000000000000000000000007B
:20256000000000000000000000000E0000000000000000000000000000000000000000004D
:202580000000000000000000007F00007F000063000063E00063F800631800630C006318D7
:2025A00000C3F80083C0000000000000000000000000000000000500000000000000000018
:2025C00000000000000000000000000000000000000000000000000000000040000020009B
:2025E0000020000030000020000040000040000000000000000000000000000000000000EB
:2026000000000E0000000000000000000000000000000000000000000000000000000000AC
:20262000006180006180006180007FE0007FF800619800618C0061980061F80061C00000C8
:2026400000000000000000000000000000000900000000000000000000000000000004006D
:20266000000400000800000000000000006300006200006600006400007C00007E0000665F
:2026800000006200006300006300000000000000000000000000000000000A000000000008
:2026A00000000000000000000000600000600000FE00006000006000006200007F00007348
:2026C0000000618000618000618000618000618000618000618000000000000000000000D3
:2026E0000000000000000A00000000000000000000000000000000000000000000000000D0
:2027000000000000006180006180006180006180006180006180006180006180007F8000B2
:202720007F80000C00000C00000C0000000000000000030000000000000000000000000073
:20274000000000000000000000000000000000000000000000000000000000000000000079
:20276000000000000000000000000000000000000000000000000000000000000000080051
:2027800000000000000000000000001C00000000006300006300006200002200003600009D
:2027A0003600001400001400001C00000C0000080000180000300000200000000000000023
:2027C0000000000000000000000008000000000000000000000000000000000000420000AF
:2027E0003C0000000000000000C300006300006200006600006600003600003400003C00A3
:20280000001C00001800001800003000007000006000000000000600000000000000000066
:20282000000000000000000000300000300000300000300000300000300000300000300018
:2028400000300000300000300000300000F00000C000000000000000000000000000000008
:20286000000009000000000000000000000000000000000000000000000000000000490006
:20288000003E00002200002200006300002200002200003F00004900000000000000000087
:2028A00000000000000000000000000000000800000000000000000000000002000002000C
:2028C000007E00007E0000600000600000600000600000600000600000600000600000609C
:2028E0000000600000600000600000000000000000000000000000000000050000000000B3
:20290000000000000000000000000000006000006000006000006000006000006000006017
:20292000000000000000000000000000000060000060000060000060000060000060000057
:20294000000000000000090000000000000000000000000000000000000600001800003020
:2029600000003000001800002E00002200006300003200001E000006000003000002000001
:20298000260000180000000000000000000000000000080000000000002400006600000067
:2029A00000000000007E00007E00006000006000006000006000007E00007E00006000003F
:2029C0006000006000006000007E00007E00000000000000000000000000000000000E00CD
:2029E0000000000000000000000000000000000000030000084000100000219000040000C7
:202A000000000008080008000000000024000001000008200003000000000000000000004E
:202A200000000000000000000000080000000000000000000000000000000000000C000082
:202A40003E0000300000600000600000400000FC0000FC0000C00000600000600000700020
:202A6000003E00000C00000000000000000000000000000000000800000000000000000004
:202A80000000000000000000000000000000000000000000000000000000002400004400CE
:202AA0000048000048000044000024000022000000000000000000000000000000000000FC
:202AC00000000D0000000000000000000000000000000000000000000000000000000000E9
:202AE000000000003FF0000030000010000010000010000010000000000000000000000037
:202B00000000000000000000000000000000060000000000000000000000000000000000AF
:202B20000000000000000000000000000000000000000000000078000078000000000000A5
:202B400000000000000000000000000000000000000000000000000000000800000000006D
:202B6000000000000000000000000000000000001000004A000052000000000000000000A9
:202B8000000000000000000000000000000000000000000000000000000000000000000035
:202BA000000000000000050000000000000C00009C00000000000000006000006000006048
:202BC000000060000060000060000060000060000060000060000060000060000060000035
:202BE00060000000000000000000000000000000000006000000000000000000000000006F
:202C000000000000000000000000004800000000002000000000000000000000000000004C
:202C20000000000000000000000000000000000000000000000000000000000000000D0087
:202C4000000000000000000000000000000000000000000000000000000002000002000070
:202C60000200007FE0000600000200000200000200000000000000007FE000000000000088
:202C8000000000000000000000000B00000000000000000000000000000000000000000029
:202CA0000000000000000000000400000A00000A000011000011000020800020800040401A
:202CC000004040007FC0000000000000000000000000000000000500000000000000000030
:202CE0000000000000002000006000002000000000000000006000006000006000006000B4
:202D0000006000006000006000006000006000006000000000000000000000000000000073
:202D2000000007000000000000000000000000000000000000000000000000040000040084
:202D4000007C00007C0000600000600000600000600000600000600000600000600000007B
:202D600000000000000000000000000000000A000000000000000000000000000000000049
:202D800000000000000000000000000000618000618000618000618000618000618000618C
:202DA00080007380007F80006C80006000006000006000002000000000000900000000006C
:202DC000000000000000000000000000000E0000310000710000F10000F10000F1000071FF
:202DE00000003100001100001100001100001100001100001100000000000000000000003C
:202E00000000000000000500000000000000000000000000000000000000000000000000AD
:202E20000000000000000000000000000000300000700000200000000000000000000000D2
:202E4000000000000000000000000000000000000000090000000000000000000000000069
:202E600000002200006300000000000000000000001800003E0000620000430000FF0000D3
:202E8000FF00004000006000007E00001C00000000000000000000000000000000001000E9
:202EA000000000000000000000000000000000000061800071880071940071960079B600FD
:202EC000699400699C00658000659C00678000638000638000638000618000000000000099
:202EE0000000000000000000000008000000000000000000000000000000000000000000CA
:202F00000000000000000000000600001E00003000002000007E00007000003000003000EF
:202F2000001E00000600000000000000000000000000000000000800000000000000000065
:202F4000000000000000000000000000000000000000000000000000000000440000240009
:202F600000220000120000240000440000480000000000000000000000000000000000006D
:202F800000000500000000000000000000000000000020000060000020000000000000008C
:202FA0000060000060000060000060000060000060000060000060000060000060000060F1
:202FC0000000600000E00000000000000000080000000000000000000000000000000000A9
:202FE000000E00003E00003000006000006000003000003C00000E0000060000030000030F
:2030000000000600007E0000380000000000000000000000000000000000070000000000ED
:2030200000000000000000000000000000000000000000000000000000180000780000C040
:203040000000E000007800003C00000C00000C0000FC000060000000000000000000000068
:2030600000000000000005000000000000000000000000000000880000980000000000002B
:203080000000000000600000600000600000600000600000600000600000600000600000D0
:2030A0006000000000000000000000000000000000000A00000000000000000000000000A6
:2030C00000000000001C00001C0000140000160000160000360000320000220000230000CB
:2030E0007F00007F00006300006100004180000000000000000000000000000000000A0043
:2031000000000000000000000000000000000000007F80007F800060000060000060000091
:203120007C00007F800061800061C00060C0006180006180007F0000780000000000000039
:20314000000000000000000000000A0000000000000000000000000000000000003C000029
:203160007F00006300006180006100006300007E00007F000061800060C00060C0006180C9
:20318000007F80007C000000000000000000000000000000000008000000000000000000AC
:2031A0000000000000000000007E00007E00006000006000006000006000006000006000D3
:2031C0000060000060000060000060000060000060000000000000000000000000000000AF
:2031E00000000B0000000000000000000000000000000000003FC0003FC00030C00030C0E6
:203200000030C00030C00030C00030C00030C00030C00020C00060C000FFE000FFE000C090
:203220006000C06000C06000000000000000080000000000000000000000000000000000E6
:20324000007E00007E00006000006000006000006000007E00007E000060000060000060D6
:2032600000006000007E00007E00000000000000000000000000000000000F0000000000E3
:2032800000000000000000000000000000E318006318002330003320001360001B40000F35
:2032A000C0003FE000733000631000631800431800C31800C308000000000000000000009D
:2032C000000000000000080000000000000000000000000000000000001800003E0000068A
:2032E00000000300000200000600003800003C00000600000300000300000600007E0000BF
:203300003000000000000000000000000000000000000B0000000000000000000000000072
:20332000000000000061800063800063800063800067800065800065800069800069800080
:203340007980007180007180007180006180000000000000000000000000000000000B00B5
:2033600000000000000000000000000E0000000000618000638000638000638000678000CE
:203380006580006580006980006980007980007180007180007180006180000000000000E4
:2033A000000000000000000000000A00000000000000000000000000000000000063800020
:2033C0006300006300006600006600006400007C00007E000066000063000063000063006E
:2033E000006180006180000000000000000000000000000000000A00000000000000000001
:203400000000000000000000003F80003F8000318000318000318000318000318000318008
:203420000031800031800031800061800061800041800000000000000000000000000000F6
:2034400000000D0000000000000000000000000000000000003870003870003870003870BF
:20346000002C70002CB00024B00024B0002490002690002310002310006310006010000079
:2034800000000000000000000000000000000B000000000000000000000000000000000021
:2034A0000060C00060C00060C00060C00060C0007FC0007FC00060C00060C00060C000602E
:2034C000C00060C00060C00060C0000000000000000000000000000000000A0000000000C2
:2034E000000000000000000000000000000C00003F000073800061800061800040C000C00C
:20350000C000C0C000C0C0006180006180007380003F00000C0000000000000000000000EB
:203520000000000000000B0000000000000000000000000000000000007FC0007FC00060A2
:20354000C00060C00060C00060C00060C00060C00060C00060C00060C00060C00060C0006B
:2035600060C0000000000000000000000000000000000A0000000000000000000000000021
:2035800000000000003800007F00006300006180006180006100006300007F00007C000090
:2035A000600000600000600000600000600000000000000000000000000000000000080023
:2035C00000000000000000000000000000000000000600003E0000300000600000600000B7
:2035E000400000C00000C00000C000006000006000007000003E00000C00000000000000D1
:2036000000000000000000000000080000000000000000000000000000000000007F000023
:203620007F000018000018000018000018000018000018000018000018000018000018001B
:20364000001800001800000000000000000000000000000000000800000000000000000032
:203660000000000000000000006300006300006300002200003200003600001600001C0065
:20368000001C00000C00000800001800003000006000000000000000000000000000000052
:2036A00000000C0000000000000000000000000000000600000600003FC000666000666067
:2036C00000666000C63000C63000C630006660006660006660003FC0000F000006000000DC
:2036E0000000000000000000000000000000090000000000000000000000000000000000C1
:20370000006300006300006200003600003400001C00001C00001C00003C0000340000262D
:2037200000006600006300004300000000000000000000000000000000000B000000000072
:203740000000000000000000000000000060C00060C00060C00060C00060C00060C0006049
:20376000C00060C00060C00060C00060C00060C0007FC0007FC00000C00000C00000C0002B
:203780000000000000000A00000000000000000000000000000000000061800061800061FC
:2037A00080006180006180006180003180003F80001F8000018000018000018000018000D3
:2037C0000180000000000000000000000000000000000F0000000000000000000000000059
:2037E0000000000000618C00618C00618C00618C00618C00618C00618C00618C00618C0074
:20380000618C00618C00618C007FFC007FFC000000000000000000000000000000000F00DC
:203820000000000000000000000000000000000000618C00618C00618C00618C00618C00E7
:20384000618C00618C00618C00618C00618C00618C00618C007FFE007FFE000006000006E7
:20386000000006000000000000000C000000000000000000000000000000000000F800003E
:20388000F800001800001800001800001F00001FE000186000187000183000186000186092
:2038A000001FC0001E00000000000000000000000000000000000E000000000000000000FD
:2038C0000000000000000000006018006018006018006018006018007C18007F18006318EA
:2038E000006198006198006318006318007E180078180000000000000000000000000000BA
:2039000000000A00000000000000000000000000000000000060000060000060000060001D
:20392000006000007C00007F800061800061C00060C0006180006180007F000078000000D1
:2039400000000000000000000000000000000900000000000000000000000000000000005E
:20396000003000007C00000E00000600000600000200003F00003F000003000006000006F2
:2039800000000E00007C00003000000000000000000000000000000000000E00000000005F
:2039A0000000000000000000000000000060600061F000619800631800631800630C007F19
:2039C0000C007F0C00630C0063080063180063980061F0006040000000000000000000000F
:2039E0000000000000000A0000000000000000000000000000000000000700003F800031C6
:203A000080006180006180003180001F80001F8000318000318000318000318000618000D0
:203A200061800000000000000000000000000000000009000000000000000000000000009C
:203A400000000000000000000000000000000000001800007E00000600000F000077000044
:203A6000430000C300004700007F000023000000000000000000000000000000000009004E
:203A800000000000000000000000000000000000000F00001E000030000030000024000075
:203AA0007F00007300006180006180002180002300003300001E00000C0000000000000031
:203AC0000000000000000000000009000000000000000000000000000000000000000000DD
:203AE0000000000000000000007C00006100006100006200007E00006700006180006100FF
:203B00000067000078000000000000000000000000000000000007000000000000000000BF
:203B20000000000000000000000000000000000000000000007C00007C00006000006000CD
:203B4000006000006000006000006000006000006000000000000000000000000000000025
:203B600000000A00000000000000000000000000000000000000000000000000000000003B
:203B8000003F80003F80003180003180003180003180003180002180007F8000FFC000C013
:203BA000C000C0C000000000000000000000090000000000000000000000000000000000BC
:203BC000000000000000000000000000001800003E0000620000430000FF0000FF000040AC
:203BE00000006000007E00001C00000000000000000000000000000000000D0000000000BE
:203C000000000000000000000000000000000000000000000000000000633000233000338B
:203C200060001340001FC0003F600033200023300063300063300000000000000000000087
:203C400000000000000008000000000000000000000000000000000000000000000000005C
:203C600000000000003000007C00000C00000800003800001C00000600000600007C0000A8
:203C80003000000000000000000000000000000000000A00000000000000000000000000EA
:203CA00000000000000000000000000000000000006300006700006700006300006B000005
:203CC0006B00006300007300007300006300000000000000000000000000000000000A00C3
:203CE00000000000000000000000000000000000002100001E000000000000000063000022
:203D00006700006700006300006B00006B00006300007300007300006300000000000000F0
:203D200000000000000000000000090000000000000000000000000000000000000000007A
:203D40000000000000000000006300006200006600006400007C00007E0000660000620012
:203D6000006300006300000000000000000000000000000000000900000000000000000074
:203D80000000000000000000000000000000000000000000007F00007F000063000063005F
:203DA00000630000630000630000630000C300008300000000000000000000000000000031
:203DC00000000C0000000000000000000000000000000000000000000000000000000000D7
:203DE0000038E00038E00038E0002CA00025200025200027200027200026300060300000B1
:203E000000000000000000000000000000000A000000000000000000000000000000000098
:203E2000000000000000000000000000006180006180006180006180007F80007F8000619F
:203E4000800061800061800061800000000000000000000000000000000009000000000036
:203E6000000000000000000000000000000000000000000000000000000C00003F00006394
:203E80000000630000C18000C180006300006300007F00001C0000000000000000000000DC
:203EA0000000000000000A00000000000000000000000000000000000000000000000000F8
:203EC00000000000007F80007F8000618000618000618000618000618000618000618000BD
:203EE0006180000000000000000000000000000000000900000000000000000000000000D8
:203F000000000000000000000000000000000000006400007F000073000063000061800007
:203F20006180006300007300007F0000640000600000600000600000600000000000070060
:203F400000000000000000000000000000000000000000000000000000000000000C000055
:203F60003C0000600000600000C00000C000006000006000003C00001800000000000000B1
:203F8000000000000000000000000800000000000000000000000000000000000000000019
:203FA000000000000000000000FE0000FE00003000003000003000003000003000003000E5
:203FC000003000003000000000000000000000000000000000000800000000000000000079
:203FE000000000000000000000000000000000000000000000620000620000660000660031
:020000040800F2
:20400000002400003400003400001C000018000018000018000030000070000060000000B0
:2040200000000C000000000000000000000000000000000000000000060000060000060062
:20404000000E000017800026C00026400066600066600026400026400036C0001F000006FC
:20406000000006000006000006000000000008000000000000000000000000000000000026
:20408000000000000000000000000000006200006600002400003400001800001C00002CA0
:2040A00000002400006600006600000000000000000000000000000000000A000000000006
:2040C0000000000000000000000000000000000000000000000000000061800061800061BD
:2040E00080006180006180006180006180006180007F80007F8000018000018000000000DB
:20410000000000000000090000000000000000000000000000000000000000000000000096
:2041200000000000006180006180006180006180007180003F8000198000018000018000B0
:204140000180000000000000000000000000000000000E00000000000000000000000000D0
:204160000000000000000000000000000000000000631800631800631800631800631800D8
:204180006318006318006318007FF8007FF8000000000000000000000000000000000B00B5
:2041A00000000000000000000000000000000000007F80007F8000180000180000180000B9
:2041C0001900001FC00018C00018C00018600018600018600018C00018C00001C0000180DD
:2041E000000000000000000000000B000000000000000000000000000000000000000000B4
:20420000000000000000000000F00000F000003000003F00003FC00030C00030600030C0E0
:20422000003FC0001E00000000000000000000000000000000000D00000000000000000054
:204240000000000000000000000000000000000000000000006030006030006030007C3002
:20426000007F300063300061B0006330007F30003830000000000000000000000000000041
:20428000000009000000000000000000000000000000000000000000000000000000000015
:2042A000006000006000006000007C00007F00006300006180006300007F00003800000085
:2042C0000000000000000000000000000000080000000000000000000000000000000000D6
:2042E000000000000000000000000000006000007800000C00000400007E00000E00000446
:2043000000000C00007800006000000000000000000000000000000000000D0000000000AC
:204320000000000000000000000000000000000000000000000000000061800063E00066F3
:2043400060006620007E30007E300066200066600063E000618000000000000000000000AB
:20436000000000000000090000000000000000000000000000000000000000000000000034
:2043800000000000000F00003300006300003300001700001F000033000033000063000046
:2043A00063000000000000000000000000000000000000002DE9F04F0FF2A41CA1B0DCE96E
:2043C0000089CDE900892A9DDFF8109C049100248DF843500D944FF0FF38824616461F465A
:2043E0000FE0B3462C461BF8011B0498D0470028049000F0A2800D98401C641E0D90F2D1D0
:2044000076193078252808D1002100220791089209910A920B910C920DE06A4641463046C0
:2044200000F0F4FF050001D10D98A1E0D9D50125E6E741F0010116F8010F2028F9D023284E
:204440000CD02B2804D02D2805D0302809D076E041F00201EFE741F00401ECE741F008015B
:20446000E9E741F01001E6E70F9209E00F98484505DA00EB800402EB4402303A0F92761C81
:204480003278A2F130000A28F0D330782E2818BFCDF8388022D116F8010F2A2807D138688D
:2044A0003860761C50F8042B38600E9216E02D280CBF761C002000220E920AE040B90E9A0E
:2044C0004A4505DA02EB820403EB4403303B0E93761C3378A3F130020A2AEFD3ADF84010CC
:2044E00021A0317800F09CFF08B116F8010B8DF842009DF84200682804D1307868280AD1DE
:20450000622105E06C2804BF30786C2803D171218DF84210761C12A806903A4616F8013BB7
:2045200002A9504600F064F838B912AA02A9504600F0CAF900287FF564AF404618E02A28CE
:2045400092D13A683A6052F8040B3A6000280F9003D540420F9041F00401761C95E70000C5
:204560000000000000000000686A6C747A4C000021B0BDE8F08F622820D0682811D06A2851
:2045800003D06C2827D0712825D10868C01D20F007000860D0E90023083008601946104631
:2045A0007047002A0A680A60106803D0121D0A6000B217E0121D0A6080B217E0002A0A6853
:2045C0000A60106803D0121D0A6040B20AE0121D0A60C0B20AE0002A0A680A60106803D06B
:2045E000121D0A60C1177047121D0A60002170477CB50D4611461C462E69B4F1250200F092
:2046000051811C3A00F08680121F022A40F282800E3A00F00B81521F5AD0093A7AD0921E4F
:2046200016D0521E35D0521E022A73D9121F30D0521F00F09A80521E4AD0521E00F0E4803D
:20464000D21E00F00181921E42D0D21E40D02FE195F83A406C2C09D06869421C6A610A6842
:204660000A6052F8043B0A6033542BE10A680A6052F8043B0A600093002201924FF0FF33C2
:204680002B636A46294600F09AF9002840F11A8105E195F83A000122FFF76DFFC5E9000115
:2046A0000023994204DA6869411C69612D220DE0288F810704D56869411C69612B2205E0A8
:2046C000C00722D56869411C6961202232541CE095F83A000022FFF74EFFC5E9000195F8F8
:2046E0003800010711D5D5E900230020834208BF82420AD044F02000782806D1686930217C
:204700003154401C421C6A613454214668693044E86087E00868C01D20F007000860D0E927
:20472000002308300860C5E90023D5E90001C80F04D06869411C69612D220DE0288F810708
:2047400004D56869411C69612B2205E0C00704D56869411C69612022325468693044E86069
:204760002146284600F03AFAACE005F13A02507820B14FF0FF340FF6343074E010786228A8
:2047800008D0682824D06A2812D06C282ED071280ED02BE00A680A6052F8040B0A6020B9BD
:2047A0004FF0FF340FF61C305DE0E96A017089E00A680A6052F8040B0A6020B94FF0FF34E2
:2047C0000FF600304FE0EA6AD317C0E9002379E00A680A6052F8040B0A6020B94FF0FF3428
:2047E0000FF6E0203FE0E96A01806BE00A680A6052F8040B0A6020B94FF0FF340FF6C420A3
:2048000031E0E96A01605DE00A680A6052F8040B0A60002120F0000221F0FF33C5E90023B0
:20482000EE607821284600F02DF94BE06C2285F83A200B680B6053F8042B0B6052BB4FF06E
:20484000FF340FF6B4200EE095F83A206C2AF0D00868086050F8044B0860EC603CB94FF0CA
:20486000FF340FF6782000F003FE201A76BD2E6B002E04D5204600F01BFE044608E0324651
:204880000021204600F03EFE002814BF041B3446AC6117E0294600F092F8002812D54FF096
:2048A000FF3076BD6869411C69612522325409E06969481C686125227254210002D0431C8A
:2048C0006B613454002076BD2DE9F0410E4605469046726B7069316AB46A121AB069521A55
:2048E000716A121AF069521A121A96F83800141B41070DD4002C0BDD2746B0682021A847D9
:204900000028B06057D0F06A401C7F1EF062F4D1736942463146284600F0B0FC00284AD1A6
:20492000376A002F0ADDB0683021A8470028B06041D0F06A401C7F1EF062F4D1B369F2683F
:204940003146284600F09AFCA8BB776A002F09DDB0683021A847B06068B3F06A401C7F1EBD
:20496000F062F5D1F068B169F36942183146284600F084FCF8B9B76A002F09DDB068302152
:20498000A847B060B8B1F06A401C7F1EF062F5D196F8380041070BD5002C09DDB0682021EB
:2049A000A847B06038B1F06A401C641EF062F5D10020BDE8F0814FF0FF30BDE8F0812DE9EF
:2049C000F8470D46A3B02F6B002F0646904648BF6FF000470FF63C1400F0C0FDD4E9002378
:2049E000696B4018CDE90123812828BF4FF0FF3042D20024002F33DDD8F8001001AA684603
:204A000000F006FD8146B9F1000F38D4D8F8000010B9B9F1010932D44F4521DB68694844D7
:204A200081280AD30021696303AA29463046FFF74BFF040014D40020686103ABD5F814A02D
:204A40004A46694603EB0A0000F092FDCA44C5F814A058F8040B002818BFA7EB0907C9D187
:204A60004CB903AA29463046FFF72EFF044614B9002068616863204624B0BDE8F0874FF01C
:204A8000FF34F8E72DE9FC4707468C463E69BCF16F0F08BF082405D04CF02000782814BF23
:204AA0000A2410243C25D7E90023BCF1640F18BFBCF1690F9046994606D100218B4203DADD
:204AC000D8F1000869EB49094FF0000AD14508BFD0451FD1386BE8B9082C4BD197F83800D9
:204AE000010747D530203B2586F83B0042E000280ED597F8380000F01400102808D17B6B3A
:204B00007969386A5B1A1B1A9A1A002AC8BF3A62BDE8F3878DF800C0404649462246E3178B
:204B200000F09CFD3032D0B26D1E3A28019504DB9DF80000A0F151018A18725540464946B0
:204B40002246E31700F08AFD89468046D14508BFD04503D0F86871198842DDD3082C09D1B0
:204B600097F83800010705D5705D302802D06D1E30207055C5F13C02BA617119F960386B60
:204B80008242B4DA821A3A624FF6EF70398F01403987BDE8F3872DE9D04306460F461446DB
:204BA0004FF00008DFF8389412E0E00707D542464B463046394600F069FE06460F464046CA
:204BC000494642464B4600F061FE641080468946002CEAD130463946BDE8D0832DE9F34FA9
:204BE000054641F020048DB0D5E90089612C02AE09D0286B002848BF062003D408BF672C62
:204C000001D101202863D5E9002358004015401C0ED119030CD00320A8619DF838106139B2
:204C20001A2902D20FF2F46111E00FF2F4610EE059004915491C0FD118030DD10320A861B1
:204C40009DF8381061391A2914D30FF2DC61E868032200F08DFCD3E1194621F00043B3F578
:204C6000801F10460DD20027BB4208BFBA42019703D111E00FF2AC61E9E701AA00F0D8FECD
:204C80000AE0DFF8607307EB1352DFF85C3301921940DFF858331943C5E90001612C0ED1FE
:204CA000E86830210170821CEA609DF8381061290CBF7821582141706869801C6861D5E911
:204CC00000AB2BF0004300202AF00002834204BF8242002300F05B81612C40F0AA80286BDA
:204CE000002847BF21210091401C0090009F7F1C404649460022002300F0D2FED9460199BA
:204D00008DF8082038BF89F00049091F002FD04601910DF1090040F34981B349DFF8D0B2D5
:204D20000C910646404649460022002300F0D0FE80F03B814800400D00F11C0211D0002A97
:204D40000FDD40F2FF70824205DB09F0004040EA0B01002013E00C98014041EA02514046B7
:204D60000DE029F00043002028F00002834208BF82420FBF40461C22404600F0C1FE8046D3
:204D8000894600F05BFFFF1F002F044609DD00F073FF02460B464046494600F07FFF804639
:204DA0008946F01D072104E004F00F0200F8012D2411002C01DD491EF6D5491E5CBF0022CB
:204DC00000F8012DF9D5ECE00020194602AA0A4400E05B1E12F80149491E8442F9D00F28C0
:204DE00004D10DF10900425C521C4254002904D50198001D02AE5B1C0190591E12D49DF8D3
:204E000038007218A0F13A07147804F130085FFA88F43A2CA8BFB844491E02F80189F3D5F4
:204E20008DF83800286B002840F1B080591E2963ACE0404649460022002300F031FE0199F7
:204E400038BF89F0004947F297504143694A91FBF2F20192D2F1070204DD40464946FFF787
:204E60009AFE0AE0524200206349FFF794FE02460B464046494600F083FF8046662C286BBD
:204E8000DFF878B106BF019F0A3706273F18142FC8BF142730208DF8080089460DF1090030
:204EA00000E03046002F34DD06464046494601F08BF801460A4606F1080304200A26B2FBED
:204EC000F6F606EB860EA2EB4E02303203F8012C0A22B6FBF2F202EB820EA6EB4E06303671
:204EE000401E03F8026DE9D1083F002F03F10806D7DD084601F07CF802460B4640464946A3
:204F000000F0CCFE00225B4600F0C0FC80468946CBE70DF10901401A0DF1090604E0019934
:204F2000491E401E0191761C31783029F7D0662C02D10199491C03E0652C0CBF01210021D9
:204F40002B6BCB189842B8BF431E002B1ED4834204DAF05C3528A8BF392000DA3020194674
:204F6000721E02EB010800E05B1E18F80199491E8145F9D0392802D1705C401C7054002969
:204F800004D50198401C16465B1C0190019800B200901BB29DF838103246284600F034F858
:204FA0002EE0C61D002F3FF7BDAE30460DF10901401A009903468842C8BF0B46002B0DF1AB
:204FC00009063FF52FAF8342BFF6FEAE0DF10900C15C07297FF7F8AE0F20F6E6CBCCCC0CA0
:204FE0000000244002FCFFFFFFFF0F800000E03F0000F07FA08601000000F03F84D79741AD
:205000000FB0BDE8F08F00002DE9F84783B006468A461746984600F0FDF9B8F1000F406A86
:20502000356B90F8009002DC4FF00108BFA74AF02000BDF93040662808BF641C15D0672863
:2050400040F0848014F1040FC0F28680AC4280F2838096F83800641C010702D4A845B8BF61
:20506000454620B22D1A48BF00250FFA84FAF068B169BAF1000F25DC4A1C30234354002D2F
:2050800003DC96F83800010703D5F06800F80290521C15EB0A0FB8BF6C4220B2441941424B
:2050A0004445B8BFA046B26171620FFA88F5F561F068B3692A463946184400F059FA641BC7
:2050C000B462C4E022B29045084417DA4246394600F04EFAB0694044B061AAEB0801002D78
:2050E000716203DC96F838100A0705D5F16801F80090F069401CF061B562A8E0394600F047
:2051000037FAB069002D5044A8EB040803DC96F838100A0703D5F16801F80090401CB061F8
:205120000FFA88F08542F368B069B8BFA8460FFA88F207EB0A01184400F01AFAB1690FFA4B
:2051400088F00144B161281A706280E0BAF1610F14D14FF0700A16E0A84504DA96F83810BC
:205160000A0758BF45466D1E48BF0025BAF1670F14BF4FF0450A4FF0650A04E0BAF1410FB6
:2051800008BF4FF0500AB169F368481CB061002D17F8012B5A5403DC96F838100A071BD5F9
:2051A000F168431CB36101F80090002D14DDA8F101080FFA88F039468542F768B8BFA8464F
:2051C0000FFA88F2F81800F0D3F9B0690FFA88F108446D1AB0617562F068B1690844002C40
:2051E00080F800A003D42B224270811C03E02D2141706442811C00206A460AE023460A24AE
:2052000093FBF4F404EB8405A3EB450302F8013B401C24B2002CF1DC012806DC4AF0200202
:20522000652A04BF302201F8012B48B9302001F8010B07E0401E1DF80030303301F8013B2D
:205240000028F7DCF268B0691044091AF16196F8380000F0140010280DD17269B169706A68
:205260008A18F1698218B06A8A188218706B8242BCBF821A326204B0BDE8F087F8B5054630
:205280000E4617461C46002074B117F8011BB068A847B06030B1F06A401CF0620020641EE9
:2052A000F3D1F2BD4FF0FF30F2BD00007072696E74665F733A20256E20646973616C6C6F04
:2052C000776564007072696E74663A2062616420256E20617267756D656E74007072696E8B
:2052E00074665F733A2062616420257320617267756D656E740000007072696E74665F73E1
:205300003A2062616420256C7320617267756D656E74000000000000000000006E616E0028
:205320004E414E00696E6600494E46003000F0B40246106895681318506803EB5004C007F9
:205340001DD54D441BE013F8017B05F8017B491EF9D1A0B1B60813F8011B06F00306032E38
:2053600008BF13F8016B01EB06214942801C294405D011F8016B05F8016B401EF9D1A34288
:205380000ED013F8016B16F0030104BF13F8011BC91C30090F28DAD113F8010B0F30D6E7B1
:2053A000F0BC02F10C0070471B48704770B45368D418042B09DA41B1057804F8015B10F8C5
:2053C000016B16B15B1C491EF3E7536070BC704738B514461D4661B1FFF7E8FF61686A6B15
:2053E000204690476FF00102811A02D0491E01D001E003E005E00021616032BD6FF001008F
:2054000032BD4FF0FF3032BDDA6B1047024BDFE7014BF9E701487047DC020020A4020020A1
:205420000278C9B28A421AB11CBF10F8012FF9E718BF0020704730B4002513E050F8042BCC
:20544000D30744BFA9F101039A18091F042942F8045BFAD213468C0744BF15809B1CC9075A
:2054600048BF1D7050F8041B0029E7D130BC704780B500B906A005490B681BB12222002127
:20548000984701E000F0C1FD222002BD58250020636F6E73747261696E742068616E646C94
:2054A00065723A20626164206D6573736167650000F10103810704D010F8011B820781B15F
:2054C000FAD10268A2F10131914311F0803104BF50F8042FF6E709BAB1FA81F100EBD10095
:2054E000401CC01A7047B1F5807F02D34FF0FF3070470170012070470078401E8041C0433D
:20550000C00F7047C9B2830706D0521E22D310F8013B9942F7D11FE0083A13D302F10402BE
:2055200041EA012141EA014150F8043B121F21BF4B40A3F1013C2CEA030C1CF0803FF3D00A
:20554000C9B2001F083210F8013B521E28BF91EA030FF8D818BF0120401E704780B5FFF747
:2055600023FF006C02BD0268531C03601170704762B38B0708D0521E11F8013B00F8013B02
:2055800000F024808B07F6D1830740F0208000BF103A07D330B4B1E83810103AA0E8381002
:2055A000F9D230BC530724BFB1E80810A0E8081044BF51F8043B40F8043BD20724BF31F8BF
:2055C000022B20F8022B44BF0B7803707047121F17D35B0009D151F8043B20F8023B1B0C55
:2055E000121F20F8023BF6D20BE051F8043B00F8013B1B0A20F8023B1B0C121F00F8013BB0
:20560000F3D238BF121D521E24BF11F8013B00F8013BF8D87047000013F0004C03D55B4288
:20562000524263F100039CEA210C00F0178010B5644603D34942404261F1000100F00EF8AA
:20564000640004D34942404261F10001244203D55B42524263F1000310BD0000BBBBE1B114
:20566000B2F5803F80F07E80022A1ED98C46B1FBF2F102FB11C31B0443EA1043B3FBF2FCC6
:2056800002FB1C3380B240EA0343B3FBF2F002FB103240EA0C4000237047022A05D9844629
:2056A000B0FBF2F002FB10C270474AB105D100F0010249085FEA3000704700220023704796
:2056C00000F0A6BC0B000200002100207047904271EB030CF6D3B3F5803F2FD2F0B5B3FAB3
:2056E00083F7B1FA81F4A7F10F0E3D1B5340CEF1200602FA0EF2F3415340B5F10F0746D8EE
:205700000F3C2C444140C4F12006A040F1414140B1FBF3F603FB1611A2FB0645001BA94138
:2057200002D2761E8018594180EA010221FA0EF362FA0EF200215A403046F0BD30B4B1FB7C
:20574000F3FC03FB1C11A2FB0C45001BA94103D2ACF1010C8018594130BC02460B46604660
:2057600000217047B2F1807F65D3F0B5B2FA82F7B1FA81F4C7F10F063D1B22FA06F307F15B
:20578000110EF24120355A40B5F10F07B8D94140C4F12006A040F1414140B1FBF3FC03FBF3
:2057A0001C11A2FB0C45001BA94103D2BCF1010C801859410F2F12D30F3FC90341EA50410F
:2057C000B1FBF3F603FB1611A2FB0645D4EBC030A94102D2761E8018594146EACC3C07B302
:2057E0004140C7F12006B840F1414140B1FBF3F603FB1611A2FB0645001BA94102D2761E90
:205800008018594180EA010221FA0EF3C7F1200462FA0EF20CFA07F05A402CFA04F1304370
:20582000F0BD80EA010221FA0EF3002162FA0EF260465A40F0BD8C46B1FBF2F102FB11C396
:205840001B0243EA1063B3FBF2FC02FB1C331B024CEA002043EA1063B3FBF2FC02FB1C33A8
:205860001B024CEA002043EA1063B3FBF2FC02FB1C331B024CEA002043EA1063B3FBF2FC7E
:2058800002FB1C324CEA002000237047B0B581EA030C0CF0004C40F2FF7515EA11541DBF80
:2058A00015EA1357AC42AF4239E0E41923EA455343F48013C90241F0004141EA505EC7023C
:2058C0001100A7FB020200284FF00000EEFB01204FF00001E3FB072118BF42F001024018F6
:2058E00000214941E3FB0E01A4F580640F0302D252004041494154F101046CDD470872F10B
:20590000004250F1000051EB0451A1F580115CBF41EA0C01B0BD4CEA05510020B0BD05EA84
:205920001357AC4214BFAF4241E050EA410E1CBF52EA430E02E061460020B0BD24423C443D
:205940001BD15FEA070EF6D0090302BF01460020AEF1140EB1FA81F7AEEB070401FA07FE7B
:205960000C37C7F1200100FA07F7C8404EEA000E23EA455343F48013A2E733F00043B3FABA
:2059800083F704BFB2FA82FE77440B3FE41BB7F1200E2FBF02FA0EF3BB40C7F1200E22FADC
:2059A0000EFE38BF43EA0E03BA40641C82E750EA410E14BF52EA430E6FF000014FF4001720
:2059C00017EB430F8ABF194617EB410FB5E74CEA05510020B0BDD4F10104B4F120070FDA45
:2059E000C4F12007520828BF42F0010210FA07F501FA07F7E1BF2A43E0403843E1400FE09E
:205A0000352C98DCC7F1200452EA400220FA07F218BF42F0010231FA07F0A1400A430021C7
:205A200072F1004250F1000051EB0C01B0BD000010B5144600F002F8226010BDC1F30A5361
:205A400043B14A0012F5001F28D2A3F2FE32A1EB0251704750EA410C20D001F0004C31EABE
:205A60000C01B1FA81F204BFB0FA80F3D2180B3AB2F120032CBF00FA03F1914041EA0C0144
:205A80003EBFC2F1200C20FA0CF319439040524240F2FD33D21A01EB035170470022704733
:205AA0004FF4001C1CEB410F94BF1CEB430F09E041EA030C50EA4C0C52EA0C0C03D29942CB
:205AC00008BF9042704714BF8B428242704700004FF4001C1CEB410F94BF1CEB430F09E010
:205AE00041EA030C50EA4C0C52EA0C0C03D28B4208BF8242704714BF99429042704700006B
:205B0000124254D440F2FF7C1CEA11530FD0634531D09B1863453CBF01EB0251704701F02D
:205B2000004141EA0C510020AFF30080704750EA410320D001F0004C91EA0C011CD0B1FAD9
:205B400081F30B3B9A420DD9D21A994051EA0C01C3F1200C20FA0CFC61449840531C40F29C
:205B6000FF7CD7E7914041EA0C01C2F1200C20FA0CF3194390407047B0FA80F31533202B58
:205B8000E0D3202AEED3203A203B9A4209D9D21A00FA03F141EA0C010020531C40F2FF7C86
:205BA000B8E700FA02F141EA0C0100207047524240F2FF7C1CEA11530DD06345DBD0B2EBD2
:205BC000030C3CBFA1EB025170470CF1010221EA035141F4801150EA410CCCD001F0004CA0
:205BE000352A27DC30B481EA0C01B2F1200309DAC2F12003044601FA03F5D0402843D1409F
:205C00009C400CE0C3F12002450020FA03F418BF44F0010421FA03F091400C43002174F1CC
:205C2000004550F1000051EB0C01244230BC7FF47BAF70476146002076E70000C1F30A53BA
:205C400040F2FE329B1A14DDD3F120034FEAE17208DDC90241EA505141F00040D84080182C
:205C60005040704703F2E13010B1D24382F000407047002070470000C11768B14840401AEE
:205C8000B0FA80F29040D21CC907C2F5846241EA025202EBD02140057047000070B44FF001
:205CA000004591EA030F40F1B5816B40841A71EB030603D2001BB141121973414FF4001CDD
:205CC0001CEB410F34BF7CEB430442E00C0DA4EB1356352E4FDC45EAC323DB0A45EAC12100
:205CE000C912B6F120050DDD63FA05F6EB4086EA0305124218BF45F00105C01851F1000197
:205D00000CD213E062FA06F5F2405540F3415A40B340F3405A408018594107D349085FEA60
:205D200030005FEA350528BF45F0010501F58011420875F1004250F1000041EB04514E0005
:205D400016F5001F70BC38BF70470020090D090570471CEB410F10D252EA43060BD0BCEB04
:205D6000410F05D80C0DAB43661E342EB6DD02E0AB438018594170BC704770BC70470000AE
:205D8000F0B540F2FF7581EA030C0CF0004C15EA11541DBF15EA1357AC42AF42E5E0BC41AC
:205DA000C1F31301C3F31303801A994143F4801304D2641E4000494180185941C90241EAC7
:205DC0005051B1FBF3F603FB1611A2FB0675D7EBC020A94102D2761E80185941C90241EA34
:205DE0005051B1FBF3FE03FB1E11A2FB0E75D7EBC020A94103D2AEF1010E8018594189024C
:205E000041EA9051760546EA8E2EB1FBF3F603FB1611A2FB0675D7EB8020A94102D2761E89
:205E200080185941C90241EA50514EEA060EB1FBF3F603FB1611A2FB0675D7EBC020A941EF
:205E400002D2761E80185941C90241EA5051B1FBF3F703FB1711A2FB0735D3EBC020A941F4
:205E600067F100070CBF004247F0010766F3D5274FEA1E31B80814F5806412DDBD0775F1D4
:205E8000004250EB0E5051EB045111F5801F5CBF41EA0C01F0BD4CF07F6141F0E041002063
:205EA000F0BDBD076D0840EA0E5041F48011D4F10104B4F120060ADAC4F120060200E04038
:205EC00001FA06F3E1401843B24015430EE0342C13DCC6F1200445EA40056D0820FA06F2F5
:205EE000154321FA06F0A1400D43002175F1004250F1000051EB0C01F0BD00205FEA0C0192
:205F0000F0BDCFB992185B41B3FA83F704BFB2FA82F6BF190B3FB7F120062FBF02FA06F325
:205F2000BB40C7F1200622FA06F638BF3343BA401CB1E419641E33E77F4231F00041B1FAD5
:205F400081F404BFB0FA80F6A4190B3CB4F120062FBF00FA06F1A140C4F1200620FA06F669
:205F600038BF3143A0403C1B1AE7AC421ABF05EA1357AF4212E050EA41061CBF52EA43069A
:205F8000BFE750EA4107304661461CBF41EA0551F0BD52EA430C08BFC143F0BD00204FF44D
:205FA000001616EB410F98BF16EB430F08BF16EB410F24BFC14305E016EB430F0CBF614627
:205FC0004CEA0551F0BD0000400D491840EA81200CD2490DA1F58061491C40F0004005DBAF
:205FE000D1F11F0154BFC840C017704700207047014648B1B0FA80F18840C91CC1F584619C
:020000040800F2
:20600000090501EBD02140057047012000F0B8B870470000841A71EB030604D26E40001BBF
:20602000B141121973414FF4001C1CEB410F34BF7CEB430683E00C0DA4EB1356362E00F36B
:206040007C80012E45EAC32341DC43EA525312BFD20292025B08240545EAC12141EA50516F
:20606000D2EBC020994125D407D1B0FA80F610FA06F162D00020203608E0B1FA81F6B14014
:20608000C6F1200220FA02F21143B0404FEAF474B4EB465434F001064FEA74040AD8D6F572
:2060A0000016760D04F00044F04061FA06F25040F1404840C00A40EA415021F0004128BF85
:2060C0005FEA500550F1000044EBD12135E0DB0A45EAC121C90AB6F120050EDD42EA0242BB
:2060E000120CC5F1200603FA06F6EB4042EA06056D42984161F100010DE062FA06F5F240FA
:20610000554063FA06FC82EA0C02F3405A406D42904161EB030111F4801F05D1641E620511
:2061200002D06D004041494121F48011430875F1004350F1000041EB045170BC70471CEBCF
:20614000410F15D223F0004352EA43060BD04FEA4C0CBCEB410F04D80C0D661E342EB7DD5B
:20616000EBE7801A994150EA410608BF0021E4E708BF1CEB430F28BF6FF00001DDE700007A
:2061800080B5AFF30080024A11001820ABBEFBE72600020010B500F0F9FD00F02BF800F0F2
:2061A0000BF900F09AF900F08BF800F0C6F800F0E0F800F068F800F0FBFDDFF8D04A0FF641
:2061C000603200210FF2F15000F031FE20600FF6743200210FF2817000F029FE60600FF691
:2061E000883200210FF6712000F021FEA06000F0FDFDFEE700B595B005A8282100F0C4FEAE
:206200006846142100F0C0FE0FA8182100F0BCFE092005904FF48030069000210791012131
:2062200009910B9102210C910D904FF480100E9005A800F0ADFE002801D000F057FD0F20A6
:20624000009002200190002002904FF480600390002004900121684601F03BF8002801D0F2
:2062600000F044FD11200F904FF4007010904FF4800014900FA801F03DF9002801D000F09C
:2062800035FD15B000BD80B5DFF8040ADFF8041A0160DFF8041A416000218160C1604FF4DE
:2062A00080410161002141618161C161016201F003FA002803D0BDE8014000F017BD01BD40
:2062C0001CB50FF62C20006801900FF6282000680090DFF8C849DFF8C80920604FF0FF30E0
:2062E00060604FF48070A060204601F0DBFE002801D000F0FBFC0020ADF804008DF8060047
:20630000012201A9204601F023FF002801D000F0EDFC01208DF800008DF801008DF80200B2
:2063200000208DF8030001226946204601F066FF002801D000F0DAFC13BD80B5DFF864091F
:20634000DFF86419016041F2BF2141601021816042F20F71C16000210161416181610821BD
:2063600002F0B2F8002803D0BDE8014000F0BEBC01BD10B5DFF83449DFF83409206041F298
:20638000BF2060600020A0604FF6FE70E06000202061A061204602F06DF8002801D000F003
:2063A000A5FC0821204602F08FF8002803D0BDE8104000F09BBC10BD30B585B06846102137
:2063C00000F0E2FDDFF8EC08016841F040010160016801F0400104910499016841F010016F
:2063E0000160016801F0100104910499016841F020010160016801F020010491049901686D
:2064000041F004010160016801F0040104910499016841F008010160006800F0080004905C
:206420000498DFF8944800223021204602F067FADFF8885801223021284602F060FA0D20CF
:2064400000900020019002906946204602F078F930200090012001900020029002200390F8
:206460006946204602F06CF9042000900020019002200290DFF848486946204602F060F9D0
:20648000402000900020019002906946204602F057F90820009000200190022002906946A6
:2064A000284602F04DF9102000900120019000200290032003906946284602F041F92020D3
:2064C00000900120019000200290022003906946284602F035F905B030BD00B587B068469A
:2064E0001C2100F051FDDFF8DC074FF020410160DFF8D417416000218160C160016110214D
:20650000416100218161C161016241624FF4805181620021C1620163416381630F210091C6
:206520000191FF2102910F2103911021049111210591002106910A46694602F005FA0028F4
:2065400001D000F0D3FBDFF88407016841F48061016007B000BD70B5DFF850472568DFF8FF
:206560007067686AF081F08900280BD0B16BC1EB011291006268521C5043B1FBF0F002F0D0
:2065800011FAF063002068622046BDE8704001F08ABFF8B5DFF814472568DFF83467686A0E
:2065A000F081376DF08900280CD0B16B6268521C5043B1FBF0F002F0F5F9F063394602F032
:2065C000FFF9B064308A02F0EDF9394602F0F8F902F074FAB082002068622046BDE8F24002
:2065E00001F061BF2DE9F84F00208DF80000834606460746804681468246DFF8BC460246B0
:206600002021204602F07BF901221021204602F076F9012000F082FC0421204602F067F9E6
:20662000012801D14FF0010B0821204602F05FF9012800D101260121204602F058F9012826
:2066400000D1012701222021204602F058F942461021204602F053F9012000F05FFC042146
:20666000204602F044F9012801D14FF001080821204602F03CF9012801D14FF00109012126
:20668000204602F034F9012801D14FF0010ADFF84056E87983450ED1287A86420BD1687A93
:2066A000874208D1A87A804505D1E87A814502D1287B824502D001208DF800009DF8000009
:2066C000012877D100222021204602F018F901221021204602F013F90A2000F01FFC04216B
:2066E000204602F004F9012802D10120E87101E00020E8710821204602F0F9F8012802D107
:206700000120287201E0002028720121204602F0EEF8012802D10120687201E000206872F1
:2067200001222021204602F0EAF800221021204602F0E5F8012000F0F1FB0421204602F0B9
:20674000D6F8012802D10120A87201E00020A8720821204602F0CBF8012802D10120E8725E
:2067600001E00020E8720121204602F0C0F8012802D10120287301E000202873E87A0128AD
:206780000AD1A879401CA8716979C0B2884201D30020A87100202870287B01280AD1A879DD
:2067A000401EA871C0B2002802D16879401EA87100202870BDE8F18F38B502F095F9DFF87C
:2067C00010455EE0A069002858D102F012FBDFF80455206A294602F08BFC02F0F5FC02F056
:2067E00017FD0022DFF8F034FFF7CAFA02F03AFD2062012000F092FB02F024FBA06A2946DB
:2068000002F076FC02F0E0FC02F002FD0022DFF8C834FFF7B5FA02F025FDA062012000F094
:206820007DFB02F0DBFB206BDFF8B01402F060FC02F0CAFC02F0ECFC0022DFF8A434FFF74B
:206840009FFA02F00FFD2063012000F067FBE069A06113E0012811D1E07800280ED0606C39
:20686000281A1A280AD30020E07065642079002804D1FFF78EFE208A401C2082012000F0AD
:206880004DFB6078002809D102F020FD02F004FCA0780128F2D101206070EFE7A0790028C9
:2068A00003D002288ED031D3E8E703F0D9F905460421DFF80C0402F01AF8002806D1E17832
:2068C000002903D1616C691A332930D2002808D12179002905D1616C691A40F6B93291422F
:2068E00037D20128CAD1E0780028C7D0606C281A0628C3D30020E070656420790028BDD15A
:20690000FFF729FE208A401C2082B7E703F0A8F905460421DFF8A80301F0E9FF00280CD1B0
