:020000040800F2
:10000000682A002071EC000851EB000853EB00084F
:1000100055EB000857EB000859EB00080000000002
:100020000000000000000000000000002FDC0008BD
:100030005BEB000800000000E9DB0008FFD60008C9
:10004000A1EC0008A5EC0008A9EC0008ADEC000844
:10005000B1EC0008B5EC0008B9EC0008BDEC0008F4
:10006000C1EC0008C5EC0008C9EC0008CDEC0008A4
:10007000D1EC0008D5EC0008D9EC0008DDEC000854
:10008000E1EC0008E5EC0008E9EC0008EDEC000804
:100090005DEB0008F1EC0008F5EC0008F9EC000855
:1000A000FDEC000801ED000805ED000809ED000871
:1000B0000DED000811ED000815ED000819ED000820
:1000C0001DED000821ED000825ED000829ED0008D0
:1000D0002DED000831ED000863EB000835ED000858
:1000E00039ED00083DED000841ED000845ED000840
:1000F00049ED000869EB00084DED000851ED0008DE
:1001000055ED000859ED00085DED000861ED0008AF
:1001100065ED000869ED00086DED000871ED00085F
:1001200075ED000879ED00087DED000881ED00080F
:10013000151903000000000000000000000000008E
:1001400000000000000000000000000000000000AF
:10015000000000000000000000000000000000009F
:10016000000000000000000000000000000000008F
:10017000000000000000000000000000000005007A
:10018000000000000000000000000000000000006F
:10019000006000006000006000006000006000007F
:1001A000600000600000200000200000000000004F
:1001B000000030000070000020000000000000007F
:1001C0000000000000000000000007000000000028
:1001D00000000000000000000000000000C8000057
:1001E000480000480000480000080000000000002F
:1001F00000000000000000000000000000000000FF
:1002000000000000000000000000000000000000EE
:1002100000000000000009000000000000000000D5
:100220000000000000000000001200001200001298
:1002300000000000007F00002400002400002400D3
:1002400000240000FE000024000004000000000064
:100250004800000000000000000000000000000056
:100260000000090000000000000000000000000085
:1002700000000800000800000E00003E0000200002
:10028000006000003000003800001E000006000082
:100290000200000300000600003E000018000010ED
:1002A00000001000000000000000000000000E0030
:1002B000000000000000000000000000000000003E
:1002C00000300000480000480000888000880000DE
:1002D000090000482000725000004000044800005F
:1002E00048000840001050001020000000000000EE
:1002F000000000000000000000000B0000000000F3
:1003000000000000000000000000000000040000E9
:100310001E00001300003300001200001E00001831
:1003200000003C40004C4000C6C000C38000638019
:10033000007FC00018C000000000000000000000A6
:1003400000000000000004000000000000000000A9
:1003500000000000000000000060000060000020BD
:10036000000020000000000000000000000000006D
:10037000000000000000000000000000000000007D
:10038000000000000000000000000000000000006D
:100390000000050000000000000000000000000058
:1003A00000000800001000001000002000002000E5
:1003B00000200000200000600000600000600000DD
:1003C000200000200000200000200000300000106D
:1003D0000000080000000000000000000000050010
:1003E00000000000000000000000000000006000AD
:1003F0000020000030000010000010000018000075
:100400001800001800001800001800001800001064
:10041000000010000010000030000020000060000C
:1004200000000000000000000000080000000000C4
:1004300000000000000000000000000000000000BC
:100440001200000400004800000800001400001220
:10045000000000000000000000000000000000009C
:10046000000000000000000000000000000000008C
:100470000000000000000D0000000000000000006F
:10048000000000000000000000000000000000006C
:1004900000000200000200000200000200007FE0F5
:1004A000000600000200000200000200000200003E
:1004B000000000000000000000000000000000003C
:1004C0000000050000000000000000000000000027
:1004D000000000000000000000000000000000001C
:1004E000000000000000000000000000000000000C
:1004F00000000000000020000060000040000040FC
:1005000000000000000000000000000000000600E5
:1005100000000000000000000000000000000000DB
:1005200000000000000000000000000000000000CB
:1005300000000000000078000078000000000000CB
:1005400000000000000000000000000000000000AB
:100550000000000000000000000005000000000096
:10056000000000000000000000000000000000008B
:10057000000000000000000000000000000000007B
:10058000000000000000000000000000000030003B
:1005900000700000200000000000000000000000CB
:1005A0000000000000000600000000000000000045
:1005B000000000000000000000080000080000002B
:1005C00000001000001000001000002000002000BB
:1005D00000200000400000400000400000800000BB
:1005E000800000800000000000000000000000000B
:1005F00000000900000000000000000000000000F2
:1006000000000000000800003E00006300006300DE
:1006100000610000C18000C18000C18000C1800075
:100620004100006300006300003E0000080000007D
:1006300000000000000000000000000000000900B1
:1006400000000000000000000000000000000000AA
:10065000000C00003C00002C00000C00000C00000E
:100660000C00000C00000C00000C00000C00000C42
:1006700000000C00000C00000C0000000000000056
:100680000000000000000000000009000000000061
:100690000000000000000000000000000018000042
:1006A0003E000006000003000003000006000006F4
:1006B00000000600000C00001800003000003000B0
:1006C000007F00007F00000000000000000000002C
:1006D0000000000000000900000000000000000011
:1006E0000000000000000000001800003E000006AE
:1006F00000000300000200000600001C00001C00B7
:10070000000600000300000300000600007E000059
:1007100030000000000000000000000000000000A9
:1007200000000900000000000000000000000000C0
:1007300000000000000600000E00000E0000160081
:1007400000160000260000260000460000460000BB
:10075000FF0000FF00000600000600000600000089
:100760000000000000000000000000000000090080
:100770000000000000000000000000000000000079
:10078000003E00003E00003000003000002000006D
:100790003800003E000006000003000003000006D1
:1007A00000000600007C0000300000000000000097
:1007B0000000000000000000000009000000000030
:1007C0000000000000000000000000000001000028
:1007D0000F00003800003000006000006400007F5F
:1007E0000000E30000C18000C180006100006300E0
:1007F000003E00000C0000000000000000000000AF
:1008000000000000000009000000000000000000DF
:100810000000000000000000007F00007F000003D7
:1008200000000200000600000600000400000C00AA
:10083000000C000008000018000018000030000044
:100840003000000000000000000000000000000078
:10085000000009000000000000000000000000008F
:1008600000000000000800003600002200006300C5
:10087000006200007600003E0000370000630000C8
:10088000418000C180006300007700000800000084
:10089000000000000000000000000000000009004F
:1008A0000000000000000000000000000000000048
:1008B000000C00003E0000630000410000C1800009
:1008C000C180006380007F0000110000030000076A
:1008D00000000E00007C000040000000000000004E
:1008E0000000000000000000000005000000000003
:1008F00000000000000000000000000000000000F8
:100900000000000000000000002000003000002077
:1009100000000000000000000000000000002000B7
:100920000030000020000000000000000000000077
:1009300000000000000005000000000000000000B2
:1009400000000000000000000000000000000000A7
:100950000000000000200000300000200000000027
:100960000000000000000000000020000020000047
:1009700060000040000000000000000000000000D7
:1009800000000D000000000000000000000000005A
:100990000000000000000000000000000000000057
:1009A000000060000380000E0000380000700000AE
:1009B0001800000600000180000060000000000038
:1009C00000000000000000000000000000000D001A
:1009D0000000000000000000000000000000000017
:1009E0000000000000000000000000000000000007
:1009F0007FE0000000000000000000000000007F19
:100A0000E000000000000000000000000000000006
:100A1000000000000000000000000D0000000000C9
:100A200000000000000000000000000000000000C6
:100A30000000000000000000007000001C00000327
:100A4000000000C00000600000C0000700001800A7
:100A50000060000000000000000000000000000036
:100A6000000000000000070000000000000000007F
:100A70000000000000001000007C00000C00000CD2
:100A800000000C00000C0000180000100000100016
:100A900000300000000000000000180000380000D6
:100AA0001000000000000000000000000000000036
:100AB00000000D0000000000000000000000000029
:100AC00000000000000000000000000380000000A3
:100AD0000000000021800004900008900048900071
:100AE00050800051800048A0000C40000000000031
:100AF00000000600000000000000000000000A00E6
:100B000000000000000000000000000000000000E5
:100B1000001C00001C00001400001600001600005D
:100B20003600003200002200002300007F00007F1A
:100B30000000630000610000418000000000000030
:100B4000000000000000000000000A00000000009B
:100B5000000000000000000000000000003C000059
:100B60007F00006300006180006100006300007E80
:100B700000007F000061800060C00060C0006180F4
:100B8000007F80007C0000000000000000000000EA
:100B9000000000000000080000000000000000004D
:100BA0000000000000000000000600003E000030D1
:100BB0000000600000600000400000C00000C000B5
:100BC00000C000006000006000007000003E0000F7
:100BD0000C00000000000000000000000000000009
:100BE00000000A00000000000000000000000000FB
:100BF00000000000003800007F000063800061807A
:100C00000061800060C00060C00060C000608000C3
:100C10006180006180006380007F00007800000038
:100C200000000000000000000000000000000800BC
:100C300000000000000000000000000000000000B4
:100C4000007E00007E000060000060000060000088
:100C50006000007E00007E00006000006000006018
:100C600000006000007E00007E0000000000000028
:100C7000000000000000000000000800000000006C
:100C8000000000000000000000000000007E0000E6
:100C90007E00006000006000006000006000007ED8
:100CA00000007E0000600000600000600000600046
:100CB0000060000060000000000000000000000074
:100CC0000000000000000A0000000000000000001A
:100CD0000000000000000000000700001F000038B6
:100CE0000000600000600000600000C78000C78056
:100CF00000C180006180006180007180003F800041
:100D000006000000000000000000000000000000DD
:100D100000000B00000000000000000000000000C8
:100D2000000000000060C00060C00060C00060C043
:100D30000060C0007FC0007FC00060C00060C000D5
:100D400060C00060C00060C00060C00060C0000003
:100D5000000000000000000000000000000005008E
:100D60000000000000000000000000000000000083
:100D70000060000060000060000060000060000093
:100D80006000006000006000006000006000006023
:100D90000000600000600000600000000000000033
:100DA000000000000000000000000600000000003D
:100DB0000000000000000000000000000030000003
:100DC0003000003000003000003000003000003003
:100DD0000000300000300000300000300000300023
:100DE00000F00000C0000000000000000000000053
:100DF0000000000000000A000000000000000000E9
:100E0000000000000000000000618000630000633B
:100E100000006600006600006400007C00007C00AA
:100E200000760000660000630000630000630000BD
:100E300061800000000000000000000000000000D1
:100E4000000008000000000000000000000000009A
:100E50000000000000600000600000600000600012
:100E600000600000600000600000600000600000A2
:100E70006000006000006000007E00007E00000056
:100E800000000000000000000000000000000D0055
:100E90000000000000000000000000000000000052
:100EA000003870003870003870003870002C700006
:100EB0002CB00024B00024B0002490002690002321
:100EC00010002310006310006010000000000000FC
:100ED000000000000000000000000B000000000007
:100EE0000000000000000000000000000061800021
:100EF00071800071800071800079800069800069D4
:100F000080006580006580006780006380006380EA
:100F1000006380006180000000000000000000000D
:100F20000000000000000A000000000000000000B7
:100F30000000000000000000000C00003F000073F3
:100F4000800061800061800040C000C0C000C0C05F
:100F500000C0C0006180006180007380003F00001D
:100F60000C00000000000000000000000000000075
:100F700000000A0000000000000000000000000067
:100F800000000000003800007F0000630000618066
:100F9000006180006100006300007F00007C0000B1
:100FA0006000006000006000006000006000000061
:100FB00000000000000000000000000000000A0027
:100FC0000000000000000000000000000000000021
:100FD000000C00003F000073800061800061800011
:100FE00040C000C0C000C0C000C0C000618000613F
:100FF00080007380003F00000F000001C00000402F
:10100000000000000000000000000A0000000000D6
:10101000000000000000000000000000003C000094
:101020007F00006300006180006100006300007EBB
:1010300000007E00006300006300006300006300A6
:1010400000618000618000000000000000000000DE
:101050000000000000000800000000000000000088
:101060000000000000000000000E00003E00003004
:1010700000006000006000003000003C00000E0036
:10108000000600000300000300000600007E0000D0
:101090003800000000000000000000000000000018
:1010A0000000080000000000000000000000000038
:1010B00000000000007F00007F0000180000180002
:1010C00000180000180000180000180000180000A8
:1010D0001800001800001800001800001800000098
:1010E00000000000000000000000000000000B00F5
:1010F00000000000000000000000000000000000F0
:10110000006180006180006180006180006180007A
:101110006180006180006180006180006180003139
:1011200000003300003F00000C0000000000000041
:1011300000000000000000000000090000000000A6
:1011400000000000000000000000000000618000BE
:10115000618000638000630000630000330000339F
:1011600000003200003200001600001600001C00D3
:10117000001C00001C000000000000000000000037
:101180000000000000000E00000000000000000051
:10119000000000000000000000E318006318006376
:1011A000180063180067180065900024900024B0B0
:1011B0000024B00034B00038E00038E000186000CF
:1011C00018600000000000000000000000000000A7
:1011D0000000090000000000000000000000000006
:1011E00000000000006300006300006200003600A1
:1011F000003400001C00001C00001C00003C00002B
:101200003400002600006600006300004300000078
:1012100000000000000000000000000000000800C6
:1012200000000000000000000000000000000000BE
:10123000006300006300006300002200003600002D
:101240003400001C00001C000018000018000018EA
:101250000000180000180000180000000000000046
:101260000000000000000000000008000000000076
:10127000000000000000000000000000007F0000EF
:101280007F00000600000600000C00000C000008B3
:101290000000180000100000300000200000600076
:1012A000007E00007E000000000000000000000042
:1012B0000000000000000500000000000000000029
:1012C000000000000000700000600000600000608E
:1012D000000060000060000060000060000060002E
:1012E000006000006000006000006000006000001E
:1012F00060000060000070000000000000000000BE
:1013000000000500000000000000000000000000D8
:1013100000000000008000008000008000008000CD
:10132000004000004000004000004000002000009D
:10133000200000200000200000100000100000101D
:101340000000000000000000000000000000050098
:10135000000000000000000000000000000070001D
:10136000003000003000003000003000003000008D
:10137000300000300000300000300000300000304D
:10138000000030000030000030000030000070002D
:10139000000000000000000000000D000000000040
:1013A000000000000000000000000000000200003B
:1013B00006000005000009000008800018800010E9
:1013C00040001040002060002020000000000000CD
:1013D000000000000000000000000000000000000D
:1013E0000000000000000B000000000000000000F2
:1013F00000000000000000000000000000000000ED
:1014000000000000000000000000000000000000DC
:1014100000000000000000000000000000000000CC
:10142000000000000000FFC00000000000000000FD
:1014300000000600000000000000000000000000A6
:10144000000020000010000010000000000000005C
:10145000000000000000000000000000000000008C
:10146000000000000000000000000000000000007C
:101470000000000000000000000000000000090063
:10148000000000000000000000000000000000005C
:101490000000000000000000000000000018000034
:1014A0007E00000600000F0000770000430000C32C
:1014B00000004700007F0000230000000000000043
:1014C0000000000000000000000009000000000013
:1014D000000000000000000000006000006000004C
:1014E0006000006000006000006600007F00007384
:1014F0000000638000618000618000610000730073
:10150000007F0000640000000000000000000000F8
:1015100000000000000007000000000000000000C4
:1015200000000000000000000000000000000000BB
:1015300000000000000C00003C00006000006000A3
:1015400000C00000C000006000006000003C00001F
:101550001800000000000000000000000000000073
:101560000000090000000000000000000000000072
:1015700000000180000180000180000180000180E6
:10158000001180007F8000638000618000C18000C6
:10159000C180006180006380007F800011800000B6
:1015A0000000000000000000000000000000090032
:1015B000000000000000000000000000000000002B
:1015C0000000000000000000000000000018000003
:1015D0003E0000620000430000FF0000FF000040EA
:1015E00000006000007E00001C0000000000000001
:1015F00000000000000000000000060000000000E5
:10160000000000000000000000000C00003C000092
:10161000300000600000600000F80000F80000608A
:1016200000006000006000006000006000006000DA
:1016300000600000600000000000000000000000EA
:101640000000000000000900000000000000000091
:10165000000000000000000000000000000000008A
:1016600000000000001980007F800063800061801E
:1016700000C18000C180006180006380007F800025
:101680001180000100000300007F0000380000000E
:1016900000000A0000000000000000000000000040
:1016A000000060000060000060000060000060005A
:1016B000006200007F000073000061800061800014
:1016C00061800061800061800061800061800000B5
:1016D0000000000000000000000000000000050005
:1016E00000000000000000000000000000002000DA
:1016F000006000002000000000000000006000000A
:101700006000006000006000006000006000006099
:1017100000006000006000006000000000000000A9
:1017200000000000000000000000050000000000B4
:101730000000000000000000000020000060000029
:101740002000000000000000006000006000006059
:1017500000006000006000006000006000006000A9
:1017600000600000600000600000600000E0000019
:101770000000000000000900000000000000000060
:1017800000000000000060000060000060000060D9
:101790000000600000630000660000660000640056
:1017A000007C00007C000066000066000063000012
:1017B00063000000000000000000000000000000C6
:1017C0000000050000000000000000000000000014
:1017D0000000600000600000600000600000600029
:1017E0000060000060000060000060000060000019
:1017F0006000006000006000006000006000000009
:1018000000000000000000000000000000000E00CA
:1018100000000000000000000000000000000000C8
:101820000000000000000000000000000062100046
:101830007F7800738C00618C00618C00618C00618A
:101840008C00618C00618C00618C00000000000045
:10185000000000000000000000000A00000000007E
:101860000000000000000000000000000000000078
:101870000000000000000000006200007F00007314
:1018800000006180006180006180006180006180F3
:101890000061800061800000000000000000000086
:1018A000000000000000090000000000000000002F
:1018B0000000000000000000000000000000000028
:1018C00000000000000C00003F0000630000630007
:1018D00000C18000C180006300006300007F000041
:1018E0001C000000000000000000000000000000DC
:1018F00000000900000000000000000000000000DF
:1019000000000000000000000000000000000000D7
:10191000006400007F00007300006300006180002D
:101920006180006300007300007F000064000060BD
:10193000000060000060000060000000000009007E
:101940000000000000000000000000000000000097
:1019500000000000000000000000000000198000EE
:101960007F8000638000618000C18000C1800061D1
:1019700080006380007F8000118000018000018072
:10198000000180000180000000000600000000004F
:101990000000000000000000000000000000000047
:1019A0000000000000000000006400006C000078EF
:1019B0000000700000600000600000600000600037
:1019C0000060000060000000000000000000000057
:1019D0000000000000000700000000000000000000
:1019E00000000000000000000000000000000000F7
:1019F0000000000000180000780000C00000E000B7
:101A0000007800003C00000C00000C0000FC00000E
:101A10006000000000000000000000000000000066
:101A200000000700000000000000000000000000AF
:101A300000000000000000000000006000006000E6
:101A400000F80000F8000060000060000060000086
:101A50006000006000007000003800001800000006
:101A6000000000000000000000000000000009006D
:101A70000000000000000000000000000000000066
:101A80000000000000000000000000000061800075
:101A90006180006180006180006180006180006180
:101AA00080003380003F80001180000000000000B3
:101AB000000000000000000000000800000000001E
:101AC0000000000000000000000000000000000016
:101AD00000000000000000000062000066000066D8
:101AE00000006600002400002400003400001C00F8
:101AF00000180000180000000000000000000000B6
:101B00000000000000000D000000000000000000C8
:101B100000000000000000000000000000000000C5
:101B20000000000000623000663000673000652071
:101B30000025200025200029600038C00018C000C2
:101B400018C00000000000000000000000000000BD
:101B5000000008000000000000000000000000007D
:101B60000000000000000000000000000000000075
:101B7000006200006600002400003400001800002D
:101B80001C00002C0000240000660000660000001D
:101B9000000000000000000000000000000008003D
:101BA0000000000000000000000000000000000035
:101BB00000000000000000000000000000620000C3
:101BC000620000660000660000240000340000345B
:101BD00000001C0000180000180000180000300071
:101BE000007000006000000000000700000000001E
:101BF00000000000000000000000000000000000E5
:101C00000000000000000000007E00007E00000CCC
:101C10000000080000180000100000200000600014
:101C200000FC0000FC0000000000000000000000BC
:101C3000000000000000050000000000000000009F
:101C40000000000000001000003000006000006094
:101C50000000600000200000200000200000400084
:101C600000400000200000200000200000200000B4
:101C70006000006000003000001000000000000064
:101C800000000500000000000000000000000060EF
:101C90000000600000600000600000600000600064
:101CA0000060000060000060000060000060000054
:101CB00060000060000060000060000060000060E4
:101CC000000060000060000060000060000005008F
:101CD00000000000000000000000000000004000C4
:101CE0000020000030000030000030000030000014
:101CF00030000030000018000010000030000030FC
:101D000000003000003000003000003000002000F3
:101D1000004000000000000000000D000000000076
:101D200000000000000000000000000000000000B3
:101D30000000000000000000000000000000001093
:101D400000002C2000034000008000000000000084
:101D50000000000000000000000000000000000083
:101D60000000000000000300000000000000000070
:101D70000000000000000000000000000000000063
:101D80000000000000000000000000000000000053
:101D90000000000000000000000000000000000043
:101DA0000000000000000000000000000000000033
:101DB00000000B0000000000000000000000000018
:101DC00000000000007F80007F80001800001800E5
:101DD000001800001900001FC00018C00018C00043
:101DE00018600018600018600018C00018C00001DA
:101DF000C00001800000000000000000000008009A
:101E000000000000000000000400000800000000C6
:101E1000007E00007E0000600000600000600000A6
:101E20006000006000006000006000006000006072
:101E30000000600000600000600000000000000082
:101E4000000000000000000000000400000000008E
:101E50000000000000000000000000000000000082
:101E60000000000000000000000000000000000072
:101E70000000000000000000000000000000200042
:101E80000060000040000040000000000000000072
:101E9000000000000000070000000000000000003B
:101EA0000000000000000C0000080000100000000E
:101EB00000000000007C00007C000060000060006A
:101EC0000060000060000060000060000060000032
:101ED00060000000000000000000000000000000A2
:101EE00000000700000000000000000000000000EB
:101EF00000000000000000000000000000000000E2
:101F000000000000000000000000000000000000D1
:101F100000000000000024000064000048000048A9
:101F2000000000000000000000000000000015009C
:101F300000000000000000000000000000000000A1
:101F40000000000000000000000000000000000091
:101F50000000000000000000000000000000000081
:101F600000001830603870E01020400000000000D1
:101F70000000000000000000000009000000000058
:101F80000000000000000000000000000018000039
:101F90001800001800001800007F00007F000018E3
:101FA00000001800001800001800001800001800B9
:101FB00000180000180000180000000000000000D9
:101FC0000000000000000900000000000000000008
:101FD00000000000000000000018000018000018B9
:101FE00000001800007E00007E00001800001800AD
:101FF000001800007F00007F00001800001800009B
:1020000018000000000000000000000000000000B8
:1020100000000900000000000000000000000000B7
:1020200000000000000600001E0000380000300024
:1020300000300000FE0000600000600000FE0000B4
:102040006000003000003000001E000004000000AE
:10205000000000000000000000000000000014006C
:102060000000000000000000000000000000000070
:1020700000300000484000480000888000880000D0
:102080000900004820C07251200441200449100872
:1020900049100041201051200020C0000000000025
:1020A000000000000000000000000F000000000021
:1020B000000000000000000000000000007F800021
:1020C0007F800061800061800061800061E00061CC
:1020D000FC00618C00618E00618600618C00C18C07
:1020E00000C1F80081E000000000000000000000D6
:1020F00000000000000005000000000000000000DB
:1021000000000000000000000000000000000000CF
:10211000000000000000000000000020000040005F
:1021200000400000400000400000200000200000AF
:10213000000000000000000000000000000000009F
:1021400000000F0000000000000000000000000080
:1021500000000000006180006180006180006180FB
:102160000061800061E0007FFC007FFC00618E0068
:10217000618600618400618C0061F80061E000000C
:1021800000000000000000000000000000000A0045
:102190000000000000000000060000040000000035
:1021A00000638000630000630000660000660000BA
:1021B0006400007C00007E00006600006300006395
:1021C00000006300006180006180000000000000EA
:1021D000000000000000000000000C0000000000F3
:1021E00000000000000000000000000000FF0000F0
:1021F000FF00003000003000003000003180003F60
:10220000C00038C0003060003060003060003060D6
:10221000003060003060000000000000000000009E
:102220000000000000000B000000000000000000A3
:1022300000000000000000000060C00060C00060FE
:10224000C00060C00060C00060C00060C00060C02E
:102250000060C00060C00060C00060C0007FC000BF
:102260007FC0000C00000C00000C0000000000000B
:1022700000000A0000000000000000000000000054
:102280000000600000600000FE00006000006000D0
:10229000006000007F0000730000630000618000A8
:1022A000618000618000610000630000630000063F
:1022B000000000000000000000000000000004001A
:1022C000000000000000000000000000000000000E
:1022D000000000002000002000004000004000003E
:1022E00000000000000000000000000000000000EE
:1022F00000000000000000000000000000000000DE
:1023000000000000000000000000040000000000C9
:10231000000000000000000000000000002000009D
:10232000200000400000400000000000000000000D
:10233000000000000000000000000000000000009D
:10234000000000000000000000000000000000008D
:102350000000000000000700000000000000000076
:102360000000000000000000000000002400002425
:1023700000004C00004800000000000000000000C9
:10238000000000000000000000000000000000004D
:10239000000000000000000000000000000000003D
:1023A0000000070000000000000000000000000026
:1023B0000000000000240000240000440000480049
:1023C0000008000000000000000000000000000005
:1023D00000000000000000000000000000000000FD
:1023E00000000000000000000000000000000600E7
:1023F00000000000000000000000000000000000DD
:1024000000000000000000000000000000000000CC
:1024100000000000000038000078000038000010C4
:1024200000000000000000000000000000000000AC
:10243000000000000000000000000B000000000091
:10244000000000000000000000000000000000008C
:10245000000000000000000000000000000000007C
:1024600000000000007FC0007FC0000000000000EE
:10247000000000000000000000000000000000005C
:102480000000000000001500000000000000000037
:10249000000000000000000000000000000000003C
:1024A000000000000000000000000000000000002C
:1024B00000FFFFE0FFFFE000000000000000000060
:1024C000000000000000000000000000000000000C
:1024D00000000300000000000000000000000000F9
:1024E00000000000000000000000000000000000EC
:1024F00000000000000000000000000000000000DC
:1025000000000000000000000000000000000000CB
:1025100000000000000000000000000000000B00B0
:1025200000000000000000000000000000000000AB
:102530000076600024200024A00025A000252000B3
:10254000000000000000000000000000000000008B
:10255000000000000000000000000000000000007B
:10256000000000000000000000000E00000000005D
:10257000000000000000000000000000000000005B
:102580000000000000000000007F00007F000063EA
:10259000000063E00063F800631800630C00631838
:1025A00000C3F80083C0000000000000000000002D
:1025B0000000000000000500000000000000000016
:1025C000000000000000000000000000000000000B
:1025D000000000000000000000000040000020009B
:1025E00000200000300000200000400000400000FB
:1025F00000000000000000000000000000000000DB
:1026000000000E00000000000000000000000000BC
:1026100000000000000000000000000000000000BA
:10262000006180006180006180007FE0007FF80031
:10263000619800618C0061980061F80061C0000041
:102640000000000000000000000000000000090081
:102650000000000000000000000000000000040076
:1026600000040000080000000000000000630000FB
:102670006200006600006400007C00007E000066CE
:102680000000620000630000630000000000000022
:10269000000000000000000000000A000000000030
:1026A000000000000000000000006000006000006A
:1026B000FE00006000006000006200007F00007308
:1026C00000006180006180006180006180006180A5
:1026D0000061800061800000000000000000000038
:1026E0000000000000000A000000000000000000E0
:1026F00000000000000000000000000000000000DA
:102700000000000000618000618000618000618045
:10271000006180006180006180006180007F800036
:102720007F80000C00000C00000C00000000000086
:102730000000030000000000000000000000000096
:102740000000000000000000000000000000000089
:102750000000000000000000000000000000000079
:102760000000000000000000000000000000000069
:102770000000000000000000000000000000080051
:1027800000000000000000000000001C000000002D
:1027900000630000630000620000220000360000B9
:1027A0003600001400001400001C00000C0000089B
:1027B00000001800003000002000000000000000B1
:1027C0000000000000000000000008000000000001
:1027D00000000000000000000000000000420000B7
:1027E0003C0000000000000000C300006300006225
:1027F00000006600006600003600003400003C0067
:10280000001C0000180000180000300000700000DC
:102810006000000000000600000000000000000052
:102820000000000000000000003000003000003018
:1028300000003000003000003000003000003000A8
:1028400000300000300000300000300000F00000D8
:10285000C0000000000000000000000000000000B8
:10286000000009000000000000000000000000005F
:10287000000000000000000000000000000049000F
:10288000003E000022000022000063000022000041
:102890002200003F0000490000000000000000008E
:1028A0000000000000000000000000000000080020
:1028B0000000000000000000000000020000020014
:1028C000007E00007E0000600000600000600000EC
:1028D00060000060000060000060000060000060B8
:1028E00000006000006000006000000000000000C8
:1028F00000000000000000000000050000000000D3
:102900000000000000000000000000000060000067
:102910006000006000006000006000006000006077
:102920000000000000000000000000000000600047
:1029300000600000600000600000600000600000B7
:10294000000000000000090000000000000000007E
:102950000000000000000000000600001800003029
:1029600000003000001800002E000022000063006C
:10297000003200001E0000060000030000020000FC
:102980002600001800000000000000000000000009
:1029900000000800000000000024000066000000A5
:1029A00000000000007E00007E000060000060006B
:1029B000006000006000007E00007E0000600000FB
:1029C0006000006000006000007E00007E000000EB
:1029D00000000000000000000000000000000E00E9
:1029E00000000000000000000000000000000000E7
:1029F00000030000084000100000219000040000C7
:102A00000000000808000800000000002400000189
:102A1000000008200003000000000000000000008B
:102A2000000000000000000000000800000000009E
:102A3000000000000000000000000000000C00008A
:102A40003E0000300000600000600000400000FC1C
:102A50000000FC0000C0000060000060000070008A
:102A6000003E00000C00000000000000000000001C
:102A7000000000000000080000000000000000004E
:102A80000000000000000000000000000000000046
:102A900000000000000000000000002400004400CE
:102AA000004800004800004400002400002200000C
:102AB0000000000000000000000000000000000016
:102AC00000000D00000000000000000000000000F9
:102AD00000000000000000000000000000000000F6
:102AE000000000003FF00000300000100000100067
:102AF00000100000100000000000000000000000B6
:102B000000000000000000000000000000000600BF
:102B100000000000000000000000000000000000B5
:102B200000000000000000000000000000000000A5
:102B300000000000000078000078000000000000A5
:102B40000000000000000000000000000000000085
:102B5000000000000000000000000800000000006D
:102B60000000000000000000000000000000000065
:102B70001000004A000052000000000000000000A9
:102B80000000000000000000000000000000000045
:102B90000000000000000000000000000000000035
:102BA000000000000000050000000000000C000014
:102BB0009C00000000000000006000006000006059
:102BC0000000600000600000600000600000600025
:102BD0000060000060000060000060000060000015
:102BE0006000000000000000000000000000000085
:102BF00000000600000000000000000000000000CF
:102C0000000000000000000000000048000000007C
:102C10000020000000000000000000000000000094
:102C200000000000000000000000000000000000A4
:102C300000000000000000000000000000000D0087
:102C40000000000000000000000000000000000084
:102C50000000000000000000000002000002000070
:102C60000200007FE00006000002000002000002F7
:102C700000000000000000007FE0000000000000F5
:102C8000000000000000000000000B000000000039
:102C90000000000000000000000000000000000034
:102CA0000000000000000000000400000A00000A0C
:102CB0000000110000110000208000208000404032
:102CC000004040007FC00000000000000000000045
:102CD00000000000000005000000000000000000EF
:102CE0000000000000002000006000002000000044
:102CF0000000000000600000600000600000600054
:102D000000600000600000600000600000600000E3
:102D10006000000000000000000000000000000053
:102D2000000007000000000000000000000000009C
:102D3000000000000000000000000004000004008B
:102D4000007C00007C00006000006000006000006B
:102D50006000006000006000006000006000000093
:102D600000000000000000000000000000000A0059
:102D70000000000000000000000000000000000053
:102D80000000000000000000000000000061800062
:102D9000618000618000618000618000618000616D
:102DA00080007380007F80006C8000600000600005
:102DB000006000002000000000000900000000008A
:102DC000000000000000000000000000000E0000F5
:102DD000310000710000F10000F10000F10000710D
:102DE000000031000011000011000011000011006E
:102DF00000110000110000000000000000000000B1
:102E000000000000000005000000000000000000BD
:102E100000000000000000000000000000000000B2
:102E20000000000000000000000000000000300072
:102E30000070000020000000000000000000000002
:102E40000000000000000000000000000000000082
:102E50000000090000000000000000000000000069
:102E600000002200006300000000000000000000DD
:102E7000001800003E0000620000430000FF000058
:102E8000FF00004000006000007E00001C00000009
:102E90000000000000000000000000000000100022
:102EA0000000000000000000000000000000000022
:102EB0000061800071880071940071960079B600FD
:102EC000699400699C00658000659C0067800063D0
:102ED00080006380006380006180000000000000CB
:102EE00000000000000000000000080000000000DA
:102EF00000000000000000000000000000000000D2
:102F00000000000000000000000600001E0000306D
:102F100000002000007E0000700000300000300043
:102F2000001E00000600000000000000000000007D
:102F30000000000000000800000000000000000089
:102F40000000000000000000000000000000000081
:102F50000000000000000000000000440000240009
:102F6000002200001200002400004400004800007D
:102F70000000000000000000000000000000000051
:102F8000000005000000000000000000000000003C
:102F90000000200000600000200000000000000091
:102FA0000060000060000060000060000060000041
:102FB00060000060000060000060000060000060D1
:102FC0000000600000E000000000000000000800B9
:102FD00000000000000000000000000000000000F1
:102FE000000E00003E0000300000600000600000A5
:102FF0003000003C00000E0000060000030000034B
:1030000000000600007E0000380000000000000004
:1030100000000000000000000000070000000000A9
:1030200000000000000000000000000000000000A0
:10303000000000000000000000180000780000C040
:103040000000E000007800003C00000C00000C00D4
:1030500000FC000060000000000000000000000014
:10306000000000000000050000000000000000005B
:103070000000000000008800009800000000000030
:1030800000000000006000006000006000006000C0
:103090000060000060000060000060000060000050
:1030A00060000000000000000000000000000000C0
:1030B00000000A0000000000000000000000000006
:1030C00000000000001C00001C000014000016009E
:1030D000001600003600003200002200002300002D
:1030E0007F00007F0000630000610000418000005D
:1030F00000000000000000000000000000000A00C6
:1031000000000000000000000000000000000000BF
:10311000007F80007F800060000060000060000091
:103120007C00007F800061800061C00060C00061A1
:1031300080006180007F0000780000000000000037
:10314000000000000000000000000A000000000075
:10315000000000000000000000000000003C000033
:103160007F00006300006180006100006300007E5A
:1031700000007F000061800060C00060C0006180CE
:10318000007F80007C0000000000000000000000C4
:103190000000000000000800000000000000000027
:1031A0000000000000000000007E00007E000060C3
:1031B000000060000060000060000060000060002F
:1031C000006000006000006000006000006000001F
:1031D000600000000000000000000000000000008F
:1031E00000000B00000000000000000000000000D4
:1031F00000000000003FC0003FC00030C00030C0F1
:103200000030C00030C00030C00030C00030C0000E
:1032100030C00020C00060C000FFE000FFE000C040
:103220006000C06000C060000000000000000800F6
:10323000000000000000000000000000000000008E
:10324000007E00007E000060000060000060000062
:103250006000007E00007E000060000060000060F2
:1032600000006000007E00007E0000000000000002
:10327000000000000000000000000F00000000003F
:1032800000000000000000000000000000E3180043
:103290006318002330003320001360001B40000F30
:1032A000C0003FE000733000631000631800431853
:1032B00000C31800C3080000000000000000000068
:1032C00000000000000008000000000000000000F6
:1032D0000000000000000000001800003E00000692
:1032E00000000300000200000600003800003C005F
:1032F000000600000300000300000600007E00003E
:10330000300000000000000000000000000000008D
:1033100000000B00000000000000000000000000A2
:103320000000000000618000638000638000638013
:10333000006780006580006580006980006980000A
:1033400079800071800071800071800061800000D0
:1033500000000000000000000000000000000B0062
:1033600000000000000000000000000E000000004F
:1033700000618000638000638000638000678000DC
:103380006580006580006980006980007980007137
:1033900080007180007180006180000000000000EA
:1033A000000000000000000000000A000000000013
:1033B000000000000000000000000000006380002A
:1033C0006300006300006600006600006400007C8B
:1033D00000007E00006600006300006300006300E0
:1033E000006180006180000000000000000000001B
:1033F0000000000000000A000000000000000000C3
:103400000000000000000000003F80003F8000310D
:1034100080003180003180003180003180003180B7
:1034200000318000318000318000618000618000C7
:1034300041800000000000000000000000000000CB
:1034400000000D000000000000000000000000006F
:1034500000000000003870003870003870003870CC
:10346000002C70002CB00024B00024B00024900088
:10347000269000231000231000631000601000004D
:1034800000000000000000000000000000000B0031
:10349000000000000000000000000000000000002C
:1034A0000060C00060C00060C00060C00060C0007C
:1034B0007FC0007FC00060C00060C00060C00060CE
:1034C000C00060C00060C00060C0000000000000DC
:1034D000000000000000000000000A0000000000E2
:1034E000000000000000000000000000000C0000D0
:1034F0003F000073800061800061800040C000C018
:10350000C000C0C000C0C000618000618000738046
:10351000003F00000C000000000000000000000060
:103520000000000000000B00000000000000000090
:103530000000000000000000007FC0007FC00060AD
:10354000C00060C00060C00060C00060C00060C01B
:103550000060C00060C00060C00060C00060C000CB
:1035600060C000000000000000000000000000003B
:1035700000000A0000000000000000000000000041
:1035800000000000003800007F0000630000618040
:10359000006180006100006300007F00007C00008B
:1035A000600000600000600000600000600000003B
:1035B0000000000000000000000000000000080003
:1035C00000000000000000000000000000000000FB
:1035D000000600003E0000300000600000600000B7
:1035E000400000C00000C00000C00000600000609B
:1035F00000007000003E00000C0000000000000011
:1036000000000000000000000000080000000000B2
:10361000000000000000000000000000007F00002B
:103620007F000018000018000018000018000018A3
:103630000000180000180000180000180000180012
:10364000001800001800000000000000000000004A
:103650000000000000000800000000000000000062
:103660000000000000000000006300006300006331
:1036700000002200003200003600001600001C008E
:10368000001C00000C0000080000180000300000C2
:1036900060000000000000000000000000000000CA
:1036A00000000C000000000000000000000000000E
:1036B00000000600000600003FC000666000666073
:1036C00000666000C63000C63000C630006660008C
:1036D0006660006660003FC0000F0000060000004A
:1036E00000000000000000000000000000000900D1
:1036F00000000000000000000000000000000000CA
:103700000063000063000062000036000034000027
:103710001C00001C00001C00003C000034000026BF
:10372000000066000063000043000000000000008D
:10373000000000000000000000000B00000000007E
:103740000000000000000000000000000060C00059
:1037500060C00060C00060C00060C00060C0006069
:10376000C00060C00060C00060C00060C00060C0F9
:10377000007FC0007FC00000C00000C00000C0008B
:103780000000000000000A0000000000000000002F
:103790000000000000000000006180006180006106
:1037A00080006180006180006180003180003F8086
:1037B000001F800001800001800001800001800066
:1037C0000180000000000000000000000000000078
:1037D00000000F00000000000000000000000000DA
:1037E0000000000000618C00618C00618C00618C25
:1037F00000618C00618C00618C00618C00618C0028
:10380000618C00618C00618C007FFC007FFC0000FB
:1038100000000000000000000000000000000F0099
:103820000000000000000000000000000000000098
:1038300000618C00618C00618C00618C00618C00E7
:10384000618C00618C00618C00618C00618C006176
:103850008C00618C007FFE007FFE000006000006E9
:10386000000006000000000000000C000000000046
:1038700000000000000000000000000000F8000050
:10388000F800001800001800001800001F00001FBA
:10389000E000186000187000183000186000186010
:1038A000001FC0001E00000000000000000000001B
:1038B0000000000000000E000000000000000000FA
:1038C00000000000000000000060180060180060A8
:1038D00018006018006018007C18007F180063183A
:1038E000006198006198006318006318007E18005A
:1038F0007818000000000000000000000000000038
:1039000000000A00000000000000000000000000AD
:103910000000000000600000600000600000600027
:10392000006000007C00007F800061800061C000BA
:1039300060C0006180006180007F000078000000AE
:10394000000000000000000000000000000009006E
:103950000000000000000000000000000000000067
:10396000003000007C00000E000006000006000091
:103970000200003F00003F000003000006000006B8
:1039800000000E00007C000030000000000000007D
:10399000000000000000000000000E000000000019
:1039A0000000000000000000000000000060600057
:1039B00061F000619800631800631800630C007FD9
:1039C0000C007F0C00630C00630800631800639810
:1039D0000061F000604000000000000000000000F6
:1039E0000000000000000A000000000000000000CD
:1039F0000000000000000000000700003F800031D0
:103A000080006180006180003180001F80001F8085
:103A10000031800031800031800031800061800001
:103A200061800000000000000000000000000000B5
:103A3000000009000000000000000000000000007D
:103A40000000000000000000000000000000000076
:103A5000001800007E00000600000F000077000044
:103A6000430000C300004700007F00002300000067
:103A7000000000000000000000000000000009003D
:103A80000000000000000000000000000000000036
:103A9000000F00001E000030000030000024000075
:103AA0007F0000730000618000618000218000239E
:103AB00000003300001E00000C00000000000000A9
:103AC00000000000000000000000090000000000ED
:103AD00000000000000000000000000000000000E6
:103AE0000000000000000000007C00006100006198
:103AF00000006200007E000067000061800061003D
:103B000000670000780000000000000000000000D6
:103B1000000000000000070000000000000000009E
:103B20000000000000000000000000000000000095
:103B300000000000007C00007C00006000006000CD
:103B40000060000060000060000060000060000095
:103B50006000000000000000000000000000000005
:103B600000000A000000000000000000000000004B
:103B70000000000000000000000000000000000045
:103B8000003F80003F8000318000318000318000A4
:103B90003180003180002180007F8000FFC000C0A4
:103BA000C000C0C0000000000000000000000900CC
:103BB0000000000000000000000000000000000005
:103BC00000000000000000000000000000180000DD
:103BD0003E0000620000430000FF0000FF000040C4
:103BE00000006000007E00001C00000000000000DB
:103BF000000000000000000000000D0000000000B8
:103C000000000000000000000000000000000000B4
:103C1000000000000000000000633000233000338B
:103C200060001340001FC0003F60003320002330BD
:103C3000006330006330000000000000000000005E
:103C4000000000000000080000000000000000006C
:103C50000000000000000000000000000000000064
:103C600000000000003000007C00000C0000080094
:103C7000003800001C00000600000600007C000068
:103C80003000000000000000000000000000000004
:103C900000000A000000000000000000000000001A
:103CA0000000000000000000000000000000000014
:103CB000006300006700006700006300006B000005
:103CC0006B000063000073000073000063000000DD
:103CD00000000000000000000000000000000A00DA
:103CE00000000000000000000000000000000000D4
:103CF000002100001E000000000000000063000022
:103D00006700006700006300006B00006B00006349
:103D1000000073000073000063000000000000005A
:103D2000000000000000000000000900000000008A
:103D30000000000000000000000000000000000083
:103D40000000000000000000006300006200006648
:103D500000006400007C00007E000066000062003D
:103D6000006300006300000000000000000000008D
:103D7000000000000000090000000000000000003A
:103D80000000000000000000000000000000000033
:103D900000000000007F00007F000063000063005F
:103DA00000630000630000630000630000C30000C4
:103DB0008300000000000000000000000000000080
:103DC00000000C00000000000000000000000000E7
:103DD00000000000000000000000000000000000E3
:103DE0000038E00038E00038E0002CA0002520007A
:103DF000252000272000272000263000603000000A
:103E000000000000000000000000000000000A00A8
:103E100000000000000000000000000000000000A2
:103E200000000000000000000000000000618000B1
:103E30006180006180006180007F80007F80006180
:103E4000800061800061800061800000000000004F
:103E50000000000000000000000009000000000059
:103E60000000000000000000000000000000000052
:103E70000000000000000000000C00003F00006394
:103E80000000630000C18000C18000630000630087
:103E9000007F00001C000000000000000000000087
:103EA0000000000000000A00000000000000000008
:103EB0000000000000000000000000000000000002
:103EC00000000000007F80007F8000618000618032
:103ED000006180006180006180006180006180007D
:103EE00061800000000000000000000000000000F1
:103EF00000000900000000000000000000000000B9
:103F000000000000000000000000000000000000B1
:103F1000006400007F000073000063000061800007
:103F20006180006300007300007F00006400006097
:103F3000000060000060000060000000000007005A
:103F40000000000000000000000000000000000071
:103F5000000000000000000000000000000C000055
:103F60003C0000600000600000C00000C000006075
:103F700000006000003C000018000000000000008D
:103F80000000000000000000000008000000000029
:103F90000000000000000000000000000000000021
:103FA000000000000000000000FE0000FE000030E5
:103FB0000000300000300000300000300000300011
:103FC0000030000030000000000000000000000091
:103FD00000000000000008000000000000000000D9
:103FE00000000000000000000000000000000000D1
:103FF0000000000000620000620000660000660031
:10400000002400003400003400001C0000180000F0
:104010001800001800003000007000006000000070
:1040200000000C0000000000000000000000000084
:10403000000000000000000006000006000006006E
:10404000000E000017800026C000264000666000B9
:1040500066600026400026400036C0001F000006B3
:104060000000060000060000060000000000080036
:104070000000000000000000000000000000000040
:1040800000000000000000000000000000620000CE
:104090006600002400003400001800001C00002C02
:1040A0000000240000660000660000000000000020
:1040B000000000000000000000000A0000000000F6
:1040C00000000000000000000000000000000000F0
:1040D00000000000000000000061800061800061BD
:1040E00080006180006180006180006180006180EB
:1040F000007F80007F8000018000018000000000C0
:1041000000000000000009000000000000000000A6
:10411000000000000000000000000000000000009F
:10412000000000000061800061800061800061800B
:10413000007180003F800019800001800001800034
:1041400001800000000000000000000000000000EE
:1041500000000E0000000000000000000000000051
:10416000000000000000000000000000000000004F
:1041700000631800631800631800631800631800D8
:104180006318006318006318007FF8007FF80000D0
:1041900000000000000000000000000000000B0014
:1041A000000000000000000000000000000000000F
:1041B000007F80007F8000180000180000180000B9
:1041C0001900001FC00018C00018C00018600018B7
:1041D000600018600018C00018C00001C000018015
:1041E000000000000000000000000B0000000000C4
:1041F00000000000000000000000000000000000BF
:10420000000000000000000000F00000F00000309E
:1042100000003F00003FC00030C00030600030C0F0
:10422000003FC0001E000000000000000000000071
:104230000000000000000D00000000000000000071
:10424000000000000000000000000000000000006E
:1042500000000000006030006030006030007C3002
:10426000007F300063300061B0006330007F3000B9
:1042700038300000000000000000000000000000D6
:104280000000090000000000000000000000000025
:10429000000000000000000000000000000000001E
:1042A000006000006000006000007C00007F0000F3
:1042B0006300006180006300007F000038000000A0
:1042C00000000000000000000000000000000800E6
:1042D00000000000000000000000000000000000DE
:1042E000000000000000000000000000006000006E
:1042F0007800000C00000400007E00000E000004A6
:1043000000000C00007800006000000000000000C9
:10431000000000000000000000000D000000000090
:10432000000000000000000000000000000000008D
:1043300000000000000000000061800063E00066F3
:1043400060006620007E30007E30006620006660DF
:104350000063E00061800000000000000000000039
:104360000000000000000900000000000000000044
:10437000000000000000000000000000000000003D
:1043800000000000000F0000330000630000330055
:10439000001700001F00003300003300006300001E
:1043A00063000000000000000000000000000000AA
:1043B000000000002DE9F14FB2B09A46914600236B
:1043C0000691CDE900333C9A0F930DF14A01149107
:1043D0004A7011E0329E4F462C4617F8011B069892
:1043E000B0470028069000F026810F98401C641EFC
:1043F0000F90F2D13296A94499F80000252808D1EF
:104400000021002209910A920B910C920D910E92BB
:104410000FE06A464FF0FF31484601F01BF80500F7
:1044200002D10F9800F00CBED4D50125E3E741F08E
:10443000010119F8010F2028F9D023280CD02B28CE
:1044400004D02D2805D0302809D00BE041F002011E
:10445000EFE741F00401ECE741F00801E9E741F042
:104460001001E6E72A280FD1DAF8002052F8040BF1
:10447000CAF800200028119003D54042119041F065
:10448000040109F1010914E01192DFF8503B0AE040
:104490001198984205DA00EB800402EB4402303AAE
:1044A000119209F1010999F80020A2F130000A28BF
:1044B000EED399F800002E2803D04FF0FF3210926F
:1044C00029E019F8010F2A2809D1DAF8000050F87C
:1044D000042BCAF80000109209F101091BE02D28F5
:1044E0000CBF09F10109002000221092DFF8EC2A2C
:1044F0000BE040B9109B934205DA03EB830504EB14
:104500004504303C109409F1010999F80040A4F1E8
:1045100030030A2BEDD3ADF848100FF6C42099F8FC
:10452000001000F0A1FF08B119F8010B8DF84A0046
:104530009DF84A00682805D199F8000068280CD138
:10454000622106E06C2804BF99F800006C2804D1B1
:1045500071218DF84A1009F101091FA8089019F876
:1045600001BBBBF125012DD01C3900F06281091F70
:10457000022940F25E810E392AD0491F00F065847D
:10458000093900F05681891E00F0FB84491E00F0B5
:10459000A784491E022940F24C81091F00F0A08423
:1045A000491F00F0BB80491E00F04F84491E65D0B2
:1045B000C91E21D0891E00F04884C91E00F0458420
:1045C00000F0FEBC25238DF87C30012109912AE002
:1045D0006C208DF84A00DAF8000050F8042BCAF875
:1045E0000000002A43D11499487800283DD04FF0AC
:1045F000FF340FF6F41012E09DF84A006C28EAD060
:10460000DAF8000050F8044BCAF800000794D4B957
:104610001499487898B14FF0FF340FF6E81000F085
:1046200033FF201A07D132981FAA04A900F00BFD0E
:1046300000287FF5E1AE4FF0FF3000F001BD0FF62E
:10464000E0100790EFE7109D002D04D5204600F004
:104650003BFF044607E02A46204600F051FF0028B1
:1046600014BF041B2C460A94DDE70FF6B8123298EB
:1046700004A900F06EFD0028D5D5DCE7DAF80010BB
:1046800051F8040BCAF8001020F00004002121F0BA
:10469000FF351FABCDE904450793DDE904230899F5
:1046A0003C2413B90AB91098A0B102F00F05641E9A
:1046B00030353A2D08DA12090D5542EA03721B090A
:1046C00008BF002A02D105E02735F4E707980D1945
:1046D000A842EAD308190790C4F13C0210980A9244
:1046E000824209DABDF84810821A4FF6EF70014095
:1046F0000C92ADF8481096E7002894D59DF8480034
:1047000000F0140010288ED1119B09990C985B1AA7
:104710001B1A9A1A002A86DD0C9284E714994878AD
:1047200020B14FF0FF340FF6001078E79DF84A00F3
:10473000622862D0682819D06A2840D06C2806D038
:1047400071284DD074282DD07A281ED064E0DAF874
:10475000001051F8040BCAF8001020B94FF0FF34D4
:104760000FF640405BE70F9901605CE7DAF8001054
:1047700051F8040BCAF8001020B94FF0FF340FF6BF
:1047800024404CE70F9901804DE7DAF8001051F80A
:10479000040BCAF800100028E5D14FF0FF340FF6E3
:1047A00004403CE7DAF8001051F8040BCAF8001096
:1047B0000028D8D14FF0FF340FF6E8302FE7DAF8B1
:1047C000001051F8040BCAF8001020B94FF0FF3464
:1047D0000FF6D03023E70F9AD317C0E9002322E762
:1047E000DAF8001051F8040BCAF800100028F2D1D2
:1047F0004FF0FF340FF6AC3011E7DAF8001051F843
:10480000040BCAF8001020B94FF0FF340FF69430B3
:1048100005E70F99017006E7DAF8001051F8040B6C
:10482000CAF8001000289ED14FF0FF340FF6743004
:10483000F5E6DAF80020D21D22F00702CAF80020BF
:10484000D2E900010832CAF80020CDE90401C80FFE
:1048500002D009982D210AE0BDF84800810702D551
:1048600009982B2103E0C00705D5099820211FAA2C
:104870001154401C09901FA80999DDE9044543180B
:104880004BF020006128079315AE0BD0109800283C
:1048900002D50620109005E001BF4BF020006728EC
:1048A00001211091DDE9040148004015401C0A4631
:1048B00011D109030FD0ABF1610703201A2F0A9021
:1048C00002D20FF6F82101E00FF6F4210322184678
:1048D00000F042FEA7E650B9120308D1ABF1610720
:1048E00003201A2F0A9018D30FF6DC21EEE7DDE93A
:1048F000040102AA00F084FECDE904014BF020007F
:10490000612811D1079830210170821C0792BBF1F8
:10491000610F0CBF7821582102E00FF6A821D5E7DE
:1049200041700998801C0990DDE9040120F0000223
:1049300031F0004308BF002A02D10025002446E1DF
:104940004BF02008B8F1610F40F0958010980028D6
:1049500047BF21210391401C0390039F7F1C2046E9
:10496000294600220023DDE9044500F081FE38BF1E
:1049700085F0004502998DF85420091F002F0291FF
:104980000DF1550034DD064620462946002200235D
:1049900000F088FE2BD21C2200F09EFE04460D463D
:1049A00000F038FFFF1F002F804609DD00F04EFFAA
:1049B00002460B462046294601F010F804460D46F3
:1049C000F01D0721B8F1000F0CDD491E5EBF08F095
:1049D0000F0200F8012D4FEA2818F3D502E000225B
:1049E00000F8012D491EFAD5C61D002FCCDC30463B
:1049F0000DF15501401A03990DF1550605468842FF
:104A0000C8BF0D46002D2FD4854206DA0DF15500A2
:104A1000415D0829A8BF0F2000DA0020294615AA09
:104A20000A4400E06D1E12F80139491E8342F9D094
:104A30000F2804D10DF15500425C521C425400294C
:104A400004D50298001D15AE6D1C0290681E0BD493
:104A500031180A783032D3B23A2BA4BF5A443A3ACA
:104A6000401E01F80129F4D51098002840F1AE80CD
:104A7000691E1091AAE00299DFF8E82847F29750E2
:104A8000414391FBF2F2029225F00045C2F1070288
:104A9000002A04DD2046294600F041FC0BE052428A
:104AA0000020DFF8C41800F03AFC02460B4620460E
:104AB000294601F005F804460D46B8F1660F06BF19
:104AC000029F0A37062710983F18142FC8BF1427D3
:104AD00030208DF854000020DFF89018CDE92E0129
:104AE0000DF15506002F33DD2046294601F00CF963
:104AF00001460A4606F1080304200A26B2FBF6F630
:104B000006EB860EA2EB4E02303203F8012C0A228D
:104B1000B6FBF2F202EB820EA6EB4E063036401EDA
:104B200003F8026DE9D1083F002F03F10806D9DD33
:104B3000084601F0FBF802460B462046294600F0E5
:104B40004DFFDDE92E2301F0FFF804460D46CBE7CB
:104B50000DF15500301A0DF1550604E00299491E79
:104B6000401E0291761C31783029F7D0B8F1660FDB
:104B700002D10299491C04E0B8F1650F0CBF012174
:104B80000021109D4D19A842B8BF451E002D1DD40F
:104B9000854204DA705D3428C8BF392000DC30203B
:104BA0002946721E531800E06D1E13F80149491E74
:104BB0008442F9D0392802D1705C401C705400291D
:104BC00004D50298401C16466D1C0290029C00F011
:104BD00045FC406A0778DDF8408028B2002802DCF6
:104BE00001250FF2E8764BF02000662808BF641C10
:104BF00016D0672846D120B210F1040F48DB40459B
:104C000046DA9DF84800641C010703D428B24045E9
:104C1000D8BF804620B2B8EB000848BF4FF000086C
:104C20000FFA84FB07980A99BBF1000F00F3B380D9
:104C30004A1C0A9230234354B8F1000F03DC9DF85C
:104C40004800010704D50A98411C0A9107990F549E
:104C500018EB0B0FB8BFC8F1000424B26042A044A7
:104C60002AB20D909045B8BF4546079B0A982DB2D1
:104C70000B952A463146184400F06EFCA8EB05005F
:104C80000E90CCE0BBF1610F17D14FF0700B19E023
:104C900028B2404504DA9DF848100A0758BF8046FC
:104CA000B8F1010848BF4FF00008BBF1670F14BF0F
:104CB0004FF0450B4FF0650B04E0BBF1410F08BF0F
:104CC0004FF0500B0A98411C0A91B8F1000F079958
:104CD00016F8012B0A5403DC9DF8480001071AD589
:104CE0000A98411C0A91B8F1000F07990F5412DD80
:104CF0006D1E28B28045B8BF454607980A9B2AB268
:104D00003146184400F028FC0A992DB269180A911E
:104D1000A8EB05000D9007980A99084421B20029D4
:104D200080F800B003D42B224270821C04E02D22B4
:104D300042700C46821C644200212EAB20460AE0E1
:104D400004460A2094FBF0F000EB8005A4EB450438
:104D500003F8014B491C00B20028F1DC012906DCF4
:104D60004BF02000652804BF302002F8010B002919
:104D70002EAB08D1302002F8010B06E0491E585C2A
:104D8000303002F8010B0029F8DC07990A98084432
:104D9000121A0B9243E0084429B222B2914219DA66
:104DA0002AB2314600F0D8FB0A992DB269180A914F
:104DB000ABEB0500B8F1000F0D9003DC9DF8480047
:104DC000020704D5079847540B99491C0B91CDF85D
:104DD000388024E0314600F0BFFB0A982D1B584470
:104DE000B8F1000F0A9003DC9DF848100A0703D5BC
:104DF000411C0A9107990F5428B28045B8BF454617
:104E000007980A9B2AB206EB0B01184400F0A4FB9A
:104E10000A982DB228180A90A8EB05000D909DF86D
:104E2000480000F0140010287FF4FDAB099A0A999D
:104E30000D988A180B9982180E988A188218119862
:104E40008242BFF6F0AB821A66E49DF84A006228FF
:104E500008D068280ED06A2814D06C281FD071287A
:104E600010D01CE0DAF8001051F8040BCAF800105A
:104E7000C0B21AE0DAF8001051F8040BCAF80010BA
:104E800080B212E0DAF80020D21D22F00702CAF840
:104E90000020D2E900010832CAF8002006E0DAF862
:104EA000001051F8040BCAF800100021CDE90401EC
:104EB0009DF8480001075AD5DDE90423002B08BFFF
:104EC000002A54D04BF02000782850D109981FA90F
:104ED00030220A54401C431C099301F800B046E0FC
:104EE0009DF84A00622808D068280ED06A2814D09D
:104EF0006C281FD0712810D01CE0DAF8001051F88F
:104F0000040BCAF8001040B21AE0DAF8001051F8A9
:104F1000040BCAF8001000B212E0DAF80020D21D2B
:104F200022F00702CAF80020D2E900010832CAF8CC
:104F3000002006E0DAF8001051F8040BCAF800105F
:104F4000C117CDE90401002902D509982D210AE0F5
:104F5000BDF84800810702D509982B2103E0C0075E
:104F600005D5099820211FAA1154401C09901FA89B
:104F700009990144079104A8594600F04AF9FFF73E
:104F800052BB9DF84A006C280BD001210991DAF838
:104F9000000050F8041BCAF800008DF87C10FFF7E1
:104FA00042BBDAF8000050F8041BCAF80000029176
:104FB0004FF0FF3210920021039102AAFFF757BB76
:104FC00025210122BBF1000F8DF87C1009923FF4DE
:104FD0002AAB8DF87DB00221FFF7F8BACBCCCC0C10
:104FE000686A6C747A4C00007072696E74665F73E4
:104FF0003A2062616420256C7320617267756D656B
:105000006E7400007072696E74665F733A2062613C
:105010006420257320617267756D656E74000000F1
:1050200000000000000000007072696E74665F731B
:105030003A20256E20646973616C6C6F776564003B
:1050400033B0BDE8F08F2DE9FC410F46064690468F
:105050007A6B7869396ABC6A121AB869521A796A25
:10506000121AF869521A121A97F83800141B4107DD
:105070000FD42020002C8DF800000ADD25460123E6
:105080006A463946304600F075F900285DD16D1E3C
:10509000F5D17B6942463946304600F06BF900286D
:1050A00053D130208DF800003D6A002D09DD012329
:1050B0006A463946304600F05DF9002845D16D1E3C
:1050C000F5D1BB69FA683946304600F053F900283B
:1050D0003BD130208DF800007D6A002D08DD0123D2
:1050E0006A463946304600F045F970BB6D1EF6D170
:1050F000F868B969FB6942183946304600F03AF958
:1051000018BB30208DF80000BD6A002D08DD01239A
:105110006A463946304600F02DF9B0B96D1EF6D119
:1051200097F8380041070DD52020002C8DF800009D
:1051300008DD01236A463946304600F01BF920B9E4
:10514000641EF6D10020BDE8F6814FF0FF30BDE8C7
:10515000F6812DE9F8470D46A3B02F6B82469046A5
:10516000002F48BF6FF0004700F0C3FE696B401886
:1051700001AA0021C2E90011812828BF4FF0FF30A9
:1051800044D289461EE0A74230DB68692018812896
:105190000BD30021696303AA29465046FFF753FF4A
:1051A0005FEA000922D40020686103AB6E692246E1
:1051B0006946981900F0D0F9A6196E6158F8040BE9
:1051C000A0B13F1B002F11DDD8F8001001AA6846DE
:1051D00000F042F90446002C05D4D8F8000000285D
:1051E000D1D1641ECFD54FF0FF390EE0B9F1000FD9
:1051F000504604D103AA2946FFF725FF8146B9F19D
:10520000000F02D1002068616863484624B0BDE801
:10521000F0872DE9FC4304466F29256908BF08265D
:1052200005D041F02000782814BF0A261026D4E9C2
:1052300000233C2790469946642918BF692905D167
:10524000002B03D5D8F1000869EB4909B9F1000F2B
:1052500008BFB8F1000F0CD1206B50B9082E3AD11D
:1052600094F83800010736D530203B2785F83B00FD
:1052700031E08DF80010404649463246F31700F001
:105280005FFE3032D0B27F1E3A2801970EDAEA551F
:10529000404649463246F31700F052FE80465FEA28
:1052A000010908BFB8F1000F05D108E09DF8000022
:1052B0001218513AEBE7E068E9198842DBD3082E6F
:1052C00009D194F83800010705D5E85D302802D0EF
:1052D0007F1E3020E855C7F13C02A261E919E16068
:1052E000206B824208DA821A22624FF6EF70218F19
:1052F00001402187BDE8F38300280ED594F83800DB
:1053000000F01400102808D1636B6169206A5B1AF1
:105310001B1A9A1A002AC8BF2262BDE8F3832DE93E
:10532000D04306460F4614464FF00008DFF8409081
:1053300012E0E00707D542464B463046394600F0BA
:1053400003FD06460F464046494642464B4600F09E
:10535000FBFC641080468946002CEAD13046394671
:10536000BDE8D083A08601000000F03F84D79741BC
:1053700000002440F8B505460E4617461C4600209E
:105380005CB117F8011BB068A847B06030B1F06A93
:10539000401CF0620020641EF3D1F2BD4FF0FF30DC
:1053A000F2BD00007072696E74663A20626164201A
:1053B000256E20617267756D656E74006E616E009A
:1053C0004E414E00696E6600494E46003000B1F510
:1053D000807F02D34FF0FF3070470170012070478B
:1053E0000078401E8041C043C00F70471C48704782
:1053F00070B45368D41801E05B1C491E042B08DA12
:1054000000291FBF057804F8015B10F8016B002E1E
:10541000F2D1536070BC704738B514461D4661B177
:10542000FFF7E6FF61686A6B204690476FF0010264
:10543000811A02D0491E01D001E003E005E00021FD
:10544000616032BD6FF0010032BD4FF0FF3032BD00
:10545000DA6B1047024BDFE7014BF9E70148704771
:1054600004030020CC020020C9B202788A421AB19B
:105470001CBF10F8012FF9E718BF00207047026821
:10548000531C03601170704780B500B906A0054930
:105490000B681BB122220021984701E000F068FE52
:1054A000222002BD5C260020636F6E7374726169F6
:1054B0006E742068616E646C65723A20626164206B
:1054C0006D6573736167650000F10103810704D0A6
:1054D00010F8011B820781B1FAD10268A2F10131F3
:1054E000914311F0803104BF50F8042FF6E709BA58
:1054F000B1FA81F100EBD100401CC01A70472E00B8
:10550000C9B2830706D0521E22D310F8013B99423C
:10551000F7D11FE0083A13D302F1040241EA012156
:1055200041EA014150F8043B121F21BF4B40A3F157
:10553000013C2CEA030C1CF0803FF3D0C9B2001FE1
:10554000083210F8013B521E28BF91EA030FF8D829
:1055500018BF0120401E704762B38B0708D0521E4F
:1055600011F8013B00F8013B00F024808B07F6D1D5
:10557000830740F0208000BF103A07D330B4B1E871
:105580003810103AA0E83810F9D230BC530724BFC5
:10559000B1E80810A0E8081044BF51F8043B40F8F7
:1055A000043BD20724BF31F8022B20F8022B44BF62
:1055B0000B7803707047121F17D35B0009D151F8A5
:1055C000043B20F8023B1B0C121F20F8023BF6D2D2
:1055D0000BE051F8043B00F8013B1B0A20F8023BAA
:1055E0001B0C121F00F8013BF3D238BF121D521ED4
:1055F00024BF11F8013B00F8013BF8D87047430085
:1056000010B5144600F002F8226010BDC1F30A5331
:1056100043B14A0012F5001F28D2A3F2FE32A1EBDB
:105620000251704750EA410C20D001F0004C31EAA1
:105630000C01B1FA81F204BFB0FA80F3D2180B3A30
:10564000B2F120032CBF00FA03F1914041EA0C01B2
:105650003EBFC2F1200C20FA0CF319439040524295
:1056600040F2FD33D21A01EB03517047002270471C
:1056700041EA030C50EA4C0C52EA0C0C4FF4001CAB
:1056800009D307D01CEB410F9CBF1CEB430F8B428F
:1056900008BF824270471CEB430FFBD8994208BFFA
:1056A0009042704741EA030C50EA4C0C52EA0C0C51
:1056B0004FF4001C09D307D01CEB410F9CBF1CEB1F
:1056C000430F994208BF904270471CEB410FFBD833
:1056D0008B4208BF82427047124254D440F2FF7C92
:1056E0001CEA11530FD0634531D09B1863453CBF72
:1056F00001EB0251704701F0004141EA0C510020DA
:10570000AFF30080704750EA410320D001F0004C15
:1057100091EA0C011CD0B1FA81F30B3B9A420DD9EE
:10572000D21A994051EA0C01C3F1200C20FA0CFC6A
:1057300061449840531C40F2FF7CD7E7914041EA16
:105740000C01C2F1200C20FA0CF319439040704771
:10575000B0FA80F31533202BE0D3202AEED3203A81
:10576000203B9A4209D9D21A00FA03F141EA0C010E
:105770000020531C40F2FF7CB8E700FA02F141EA36
:105780000C0100207047524240F2FF7C1CEA11538A
:105790000DD06345DBD0B2EB030C3CBFA1EB025153
:1057A00070470CF1010221EA035141F4801150EAE3
:1057B000410CCCD001F0004C352A27DC30B481EA12
:1057C0000C01B2F1200309DAC2F12003044601FA08
:1057D00003F5D0402843D1409C400CE0C3F12002A7
:1057E000450020FA03F418BF44F0010421FA03F045
:1057F00091400C43002174F1004550F1000051EB41
:105800000C01244230BC7FF47BAF7047614600201E
:1058100076E70000C1F30A5340F21E42D31A0CDDB2
:10582000CA0283F3070342EA505242F00042DA40D0
:1058300002EBE17282EAE17070476FEAE17203F213
:10584000E13008B182F000407047000010F00041E4
:1058500060B148BF4042B0FA80F29040D21CC2F51D
:10586000846241EA025202EBD021400570470000F9
:10587000841A71EB030604D26E40001BB141121969
:1058800073414FF4001C1CEB410F34BF7CEB43060B
:1058900083E00C0DA4EB1356362E00F37C80012E12
:1058A00045EAC32341DC43EA525312BFD2029202BB
:1058B0005B08240545EAC12141EA5051D2EBC020E2
:1058C000994125D407D1B0FA80F610FA06F162D0DA
:1058D0000020203608E0B1FA81F6B140C6F120027E
:1058E00020FA02F21143B0404FEAF474B4EB46548C
:1058F00034F001064FEA74040AD8D6F50016760D86
:1059000004F00044F04061FA06F25040F140484093
:10591000C00A40EA415021F0004128BF5FEA50052B
:1059200050F1000044EBD12135E0DB0A45EAC1210A
:10593000C90AB6F120050EDD42EA0242120CC5F199
:10594000200603FA06F6EB4042EA06056D4298414E
:1059500061F100010DE062FA06F5F240554063FA8C
:1059600006FC82EA0C02F3405A406D42904161EB22
:10597000030111F4801F05D1641E620502D06D0081
:105980004041494121F48011430875F1004350F131
:10599000000041EB045170BC70471CEB410F15D265
:1059A00023F0004352EA43060BD04FEA4C0CBCEB09
:1059B000410F04D80C0D661E342EB7DDEBE7801ABC
:1059C000994150EA410608BF0021E4E708BF1CEBFB
:1059D000430F28BF6FF00001DDE7000070B491EACB
:1059E000030F4FF000457FF543AF6B40841A71EB16
:1059F000030603D2001BB141121973414FF4001C7E
:105A00001CEB410F34BF7CEB430442E00C0DA4EBD4
:105A10001356352E4FDC45EAC323DB0A45EAC12184
:105A2000C912B6F120050DDD63FA05F6EB4086EAF2
:105A30000305124218BF45F00105C01851F10001DD
:105A40000CD213E062FA06F5F2405540F3415A4099
:105A5000B340F3405A408018594107D349085FEAE0
:105A600030005FEA350528BF45F0010501F58011DA
:105A7000420875F1004250F1000041EB04514E0024
:105A800016F5001F70BC38BF70470020090D0905CE
:105A900070471CEB410F10D252EA43060BD0BCEB0F
:105AA000410F05D80C0DAB43661E342EB6DD02E067
:105AB000AB438018594170BC704770BC7047000000
:105AC000F0B540F2FF7581EA030C0CF0004C15EACA
:105AD00011541DBF15EA1357AC42AF42E5E0BC417B
