:020000040800F2
:2000000030B9002085AE01081DA101081FA1010821A1010823A1010825A1010800000000A4
:2000200000000000000000000000000027A1010829A101080000000011BE00082BA1010870
:200040009DAE0108A1AE0108A5AE0108A9AE0108ADAE0108B1AE010815AE0108E5C40008EF
:2000600001C50008898E0008A58E0008B5AE0108B9AE0108BDAE0108C1AE0108C5AE010814
:20008000C9AE0108CDAE01082FA10108D1AE0108D5AE0108D9AE0108DDAE0108E1AE0108B3
:2000A000E5AE010835A10108E9AE0108EDAE0108959100082DB00008F1AE0108F5AE01081A
:2000C000F9AE0108FDAE010801AF010805AF010809AF01083BA101080DAF010811AF010812
:2000E00015AF010819AF01081DAF010821AF010825AF010829AF01082DAF010831AF010828
:2001000035AF010839AF0108C3A101083DAF010841AF010845AF010849AF01084DAF0108A3
:2001200051AF010855AF010859AF01085DAF01081519030000000000000000000000000052
:2001400000000000000000000000000000000000000000000000000000000000000000009F
:2001600000000000000000000000000000000000000000000000000000000000000005007A
:2001800000000000000000000000000000000000006000006000006000006000006000007F
:2001A00060000060000020000020000000000000000030000070000020000000000000007F
:2001C0000000000000000000000007000000000000000000000000000000000000C8000050
:2001E00048000048000048000008000000000000000000000000000000000000000000001F
:200200000000000000000000000000000000000000000000000009000000000000000000D5
:200220000000000000000000001200001200001200000000007F000024000024000024009D
:2002400000240000FE0000240000040000000000480000000000000000000000000000000C
:200260000000090000000000000000000000000000000800000800000E00003E00002000F9
:20028000006000003000003800001E00000600000200000300000600003E00001800001001
:2002A00000001000000000000000000000000E000000000000000000000000000000000020
:2002C00000300000480000480000888000880000090000482000725000004000044800000F
:2002E00048000840001050001020000000000000000000000000000000000B0000000000D3
:20030000000000000000000000000000000400001E00001300003300001200001E0000182D
:2003200000003C40004C4000C6C000C380006380007FC00018C000000000000000000000F2
:200340000000000000000400000000000000000000000000000000000060000060000020B9
:2003600000002000000000000000000000000000000000000000000000000000000000005D
:20038000000000000000000000000000000000000000050000000000000000000000000058
:2003A000000008000010000010000020000020000020000020000060000060000060000075
:2003C000200000200000200000200000300000100000080000000000000000000000050050
:2003E000000000000000000000000000000060000020000030000010000010000018000015
:20040000180000180000180000180000180000100000100000100000300000200000600084
:200420000000000000000000000008000000000000000000000000000000000000000000B4
:20044000120000040000480000080000140000120000000000000000000000000000000010
:20046000000000000000000000000000000000000000000000000D0000000000000000006F
:200480000000000000000000000000000000000000000200000200000200000200007FE0F5
:2004A00000060000020000020000020000020000000000000000000000000000000000002E
:2004C000000005000000000000000000000000000000000000000000000000000000000017
:2004E0000000000000000000000000000000000000000000000020000060000040000040FC
:200500000000000000000000000000000000060000000000000000000000000000000000D5
:200520000000000000000000000000000000000000000000000078000078000000000000CB
:20054000000000000000000000000000000000000000000000000000000005000000000096
:2005600000000000000000000000000000000000000000000000000000000000000000007B
:2005800000000000000000000000000000003000007000002000000000000000000000009B
:2005A000000000000000060000000000000000000000000000000000000800000800000025
:2005C00000001000001000001000002000002000002000004000004000004000008000004B
:2005E0008000008000000000000000000000000000000900000000000000000000000000F2
:2006000000000000000800003E0000630000630000610000C18000C18000C18000C1800069
:200620004100006300006300003E0000080000000000000000000000000000000000090064
:2006400000000000000000000000000000000000000C00003C00002C00000C00000C00000E
:200660000C00000C00000C00000C00000C00000C00000C00000C00000C000000000000000E
:20068000000000000000000000000900000000000000000000000000000000000018000039
:2006A0003E00000600000300000300000600000600000600000C000018000030000030005A
:2006C000007F00007F00000000000000000000000000000000000900000000000000000013
:2006E0000000000000000000001800003E00000600000300000200000600001C00001C005B
:20070000000600000300000300000600007E00003000000000000000000000000000000019
:200720000000090000000000000000000000000000000000000600000E00000E0000160078
:2007400000160000260000260000460000460000FF0000FF0000060000060000060000009B
:20076000000000000000000000000000000009000000000000000000000000000000000070
:20078000003E00003E00003000003000002000003800003E000006000003000003000006D5
:2007A00000000600007C00003000000000000000000000000000000000000900000000007E
:2007C000000000000000000000000000000100000F00003800003000006000006400007F5E
:2007E0000000E30000C18000C180006100006300003E00000C000000000000000000000086
:20080000000000000000090000000000000000000000000000000000007F00007F000003CE
:2008200000000200000600000600000400000C00000C000008000018000018000030000026
:2008400030000000000000000000000000000000000009000000000000000000000000005F
:2008600000000000000800003600002200006300006200007600003E000037000063000005
:20088000418000C1800063000077000008000000000000000000000000000000000009006B
:2008A00000000000000000000000000000000000000C00003E0000630000410000C1800009
:2008C000C180006380007F00001100000300000700000E00007C0000400000000000000090
:2008E0000000000000000000000005000000000000000000000000000000000000000000F3
:20090000000000000000000000200000300000200000000000000000000000000000200047
:20092000003000002000000000000000000000000000000000000500000000000000000062
:20094000000000000000000000000000000000000000000000200000300000200000000027
:20096000000000000000000000002000002000006000004000000000000000000000000097
:2009800000000D00000000000000000000000000000000000000000000000000000000004A
:2009A000000060000380000E0000380000700000180000060000018000006000000000009F
:2009C00000000000000000000000000000000D00000000000000000000000000000000000A
:2009E000000000000000000000000000000000007FE0000000000000000000000000007F19
:200A0000E0000000000000000000000000000000000000000000000000000D0000000000E9
:200A2000000000000000000000000000000000000000000000000000007000001C00000327
:200A4000000000C00000600000C00007000018000060000000000000000000000000000037
:200A6000000000000000070000000000000000000000000000001000007C00000C00000CCB
:200A800000000C00000C000018000010000010000030000000000000000018000038000086
:200AA0001000000000000000000000000000000000000D0000000000000000000000000019
:200AC0000000000000000000000000038000000000000000218000049000089000489000EE
:200AE00050800051800048A0000C40000000000000000600000000000000000000000A0011
:200B000000000000000000000000000000000000001C00001C00001400001600001600005D
:200B20003600003200002200002300007F00007F0000630000610000418000000000000085
:200B4000000000000000000000000A0000000000000000000000000000000000003C00004F
:200B60007F00006300006180006100006300007E00007F000061800060C00060C0006180EF
:200B8000007F80007C000000000000000000000000000000000008000000000000000000D2
:200BA0000000000000000000000600003E0000300000600000600000400000C00000C00041
:200BC00000C000006000006000007000003E00000C000000000000000000000000000000DB
:200BE00000000A0000000000000000000000000000000000003800007F0000638000618070
:200C00000061800060C00060C00060C0006080006180006180006380007F00007800000017
:200C20000000000000000000000000000000080000000000000000000000000000000000AC
:200C4000007E00007E00006000006000006000006000007E00007E000060000060000060FC
:200C600000006000007E00007E000000000000000000000000000000000008000000000010
:200C8000000000000000000000000000007E00007E00006000006000006000006000007E5A
:200CA00000007E000060000060000060000060000060000060000000000000000000000076
:200CC0000000000000000A0000000000000000000000000000000000000700001F000038AC
:200CE0000000600000600000600000C78000C78000C180006180006180007180003F800093
:200D00000600000000000000000000000000000000000B00000000000000000000000000C2
:200D2000000000000060C00060C00060C00060C00060C0007FC0007FC00060C00060C00055
:200D400060C00060C00060C00060C00060C0000000000000000000000000000000000500EE
:200D6000000000000000000000000000000000000060000060000060000060000060000093
:200D80006000006000006000006000006000006000006000006000006000000000000000F3
:200DA0000000000000000000000006000000000000000000000000000000000000300000FD
:200DC000300000300000300000300000300000300000300000300000300000300000300003
:200DE00000F00000C000000000000000000000000000000000000A00000000000000000039
:200E00000000000000000000006180006300006300006600006600006400007C00007C0003
:200E20000076000066000063000063000063000061800000000000000000000000000000CC
:200E400000000800000000000000000000000000000000000060000060000060000060000A
:200E6000006000006000006000006000006000006000006000006000007E00007E00000076
:200E800000000000000000000000000000000D000000000000000000000000000000000045
:200EA000003870003870003870003870002C70002CB00024B00024B00024900026900023E5
:200EC00010002310006310006010000000000000000000000000000000000B0000000000E1
:200EE0000000000000000000000000000061800071800071800071800079800069800069F3
:200F0000800065800065800067800063800063800063800061800000000000000000000016
:200F20000000000000000A0000000000000000000000000000000000000C00003F000073E9
:200F4000800061800061800040C000C0C000C0C000C0C0006180006180007380003F0000DB
:200F60000C00000000000000000000000000000000000A000000000000000000000000005B
:200F800000000000003800007F00006300006180006180006100006300007F00007C0000B6
:200FA0006000006000006000006000006000000000000000000000000000000000000A0047
:200FC00000000000000000000000000000000000000C00003F000073800061800061800011
:200FE00040C000C0C000C0C000C0C0006180006180007380003F00000F000001C00000406D
:20100000000000000000000000000A0000000000000000000000000000000000003C00008A
:201020007F00006300006180006100006300007E00007E00006300006300006300006300A1
:201040000061800061800000000000000000000000000000000008000000000000000000C6
:201060000000000000000000000E00003E00003000006000006000003000003C00000E00BA
:20108000000600000300000300000600007E00003800000000000000000000000000000088
:2010A0000000080000000000000000000000000000000000007F00007F00001800001800FA
:2010C000001800001800001800001800001800001800001800001800001800001800000020
:2010E00000000000000000000000000000000B0000000000000000000000000000000000E5
:201100000061800061800061800061800061800061800061800061800061800061800031D4
:2011200000003300003F00000C000000000000000000000000000000000009000000000028
:201140000000000000000000000000000061800061800063800063000063000033000033BE
:2011600000003200003200001600001600001C00001C00001C00000000000000000000008B
:201180000000000000000E000000000000000000000000000000000000E318006318006368
:2011A000180063180067180065900024900024B00024B00034B00038E00038E00018600040
:2011C00018600000000000000000000000000000000009000000000000000000000000008E
:2011E00000000000006300006300006200003600003400001C00001C00001C00003C0000CD
:20120000340000260000660000630000430000000000000000000000000000000000080060
:2012200000000000000000000000000000000000006300006300006300002200003600002D
:201240003400001C00001C0000180000180000180000180000180000180000000000000092
:2012600000000000000000000000080000000000000000000000000000000000007F0000E7
:201280007F00000600000600000C00000C00000800001800001000003000002000006000CB
:2012A000007E00007E0000000000000000000000000000000000050000000000000000002D
:2012C00000000000000070000060000060000060000060000060000060000060000060009E
:2012E0000060000060000060000060000060000060000060000070000000000000000000DE
:201300000000050000000000000000000000000000000000008000008000008000008000C8
:201320000040000040000040000040000020000020000020000020000010000010000010FD
:20134000000000000000000000000000000005000000000000000000000000000000700018
:2013600000300000300000300000300000300000300000300000300000300000300000305D
:2013800000003000003000003000003000007000000000000000000000000D000000000010
:2013A0000000000000000000000000000002000006000005000009000008800018800010E7
:2013C0004000104000206000202000000000000000000000000000000000000000000000BD
:2013E0000000000000000B00000000000000000000000000000000000000000000000000E2
:201400000000000000000000000000000000000000000000000000000000000000000000CC
:20142000000000000000FFC0000000000000000000000600000000000000000000000000E7
:2014400000002000001000001000000000000000000000000000000000000000000000004C
:20146000000000000000000000000000000000000000000000000000000000000000090063
:20148000000000000000000000000000000000000000000000000000000000000018000034
:2014A0007E00000600000F0000770000430000C300004700007F0000230000000000000033
:2014C000000000000000000000000900000000000000000000000000000060000060000043
:2014E0006000006000006000006600007F00007300006380006180006180006100007300FB
:20150000007F000064000000000000000000000000000000000007000000000000000000E1
:201520000000000000000000000000000000000000000000000C00003C00006000006000A3
:2015400000C00000C000006000006000003C000018000000000000000000000000000000F7
:201560000000090000000000000000000000000000000180000180000180000180000180DD
:20158000001180007F8000638000618000C18000C180006180006380007F80001180000021
:2015A000000000000000000000000000000009000000000000000000000000000000000022
:2015C000000000000000000000000000001800003E0000620000430000FF0000FF000040D2
:2015E00000006000007E00001C0000000000000000000000000000000000060000000000EB
:20160000000000000000000000000C00003C0000300000600000600000F80000F800006042
:2016200000006000006000006000006000006000006000006000000000000000000000000A
:20164000000000000000090000000000000000000000000000000000000000000000000081
:2016600000000000001980007F8000638000618000C18000C180006180006380007F8000C9
:201680001180000100000300007F00003800000000000A00000000000000000000000000F4
:2016A00000006000006000006000006000006000006200007F000073000061800061800034
:2016C0006180006180006180006180006180000000000000000000000000000000000500A0
:2016E0000000000000000000000000000000200000600000200000000000000000600000EA
:20170000600000600000600000600000600000600000600000600000600000000000000069
:20172000000000000000000000000500000000000000000000000000000020000060000024
:20174000200000000000000000600000600000600000600000600000600000600000600069
:2017600000600000600000600000600000E000000000000000000900000000000000000000
:201780000000000000006000006000006000006000006000006300006600006600006400D6
:2017A000007C00007C0000660000660000630000630000000000000000000000000000009F
:2017C000000005000000000000000000000000000000600000600000600000600000600024
:2017E000006000006000006000006000006000006000006000006000006000006000000029
:2018000000000000000000000000000000000E0000000000000000000000000000000000BA
:20182000000000000000000000000000006210007F7800738C00618C00618C00618C006118
:201840008C00618C00618C00618C000000000000000000000000000000000A00000000002B
:20186000000000000000000000000000000000000000000000000000006200007F00007314
:20188000000061800061800061800061800061800061800061800000000000000000000021
:2018A00000000000000009000000000000000000000000000000000000000000000000001F
:2018C00000000000000C00003F0000630000630000C18000C180006300006300007F000030
:2018E0001C00000000000000000000000000000000000900000000000000000000000000C3
:2019000000000000000000000000000000000000006400007F00007300006300006180002D
:201920006180006300007300007F0000640000600000600000600000600000000000090084
:201940000000000000000000000000000000000000000000000000000000000000198000EE
:201960007F8000638000618000C18000C180006180006380007F80001180000180000180CC
:2019800000018000018000000000060000000000000000000000000000000000000000003F
:2019A0000000000000000000006400006C00007800007000006000006000006000006000EF
:2019C000006000006000000000000000000000000000000000000700000000000000000040
:2019E000000000000000000000000000000000000000000000180000780000C00000E000B7
:201A0000007800003C00000C00000C0000FC0000600000000000000000000000000000009E
:201A20000000070000000000000000000000000000000000000000000000006000006000DF
:201A400000F80000F8000060000060000060000060000060000070000038000018000000F6
:201A600000000000000000000000000000000900000000000000000000000000000000005D
:201A800000000000000000000000000000618000618000618000618000618000618000619F
:201AA00080003380003F80001180000000000000000000000000000000000800000000009B
:201AC0000000000000000000000000000000000000000000000000000062000066000066D8
:201AE00000006600002400002400003400001C0000180000180000000000000000000000B8
:201B00000000000000000D00000000000000000000000000000000000000000000000000B8
:201B2000000000000062300066300067300065200025200025200029600038C00018C0007E
:201B400018C0000000000000000000000000000000000800000000000000000000000000A5
:201B600000000000000000000000000000000000006200006600002400003400001800002D
:201B80001C00002C0000240000660000660000000000000000000000000000000000080005
:201BA0000000000000000000000000000000000000000000000000000000000000620000C3
:201BC0006200006600006600002400003400003400001C00001800001800001800003000B7
:201BE00000700000600000000000070000000000000000000000000000000000000000000E
:201C00000000000000000000007E00007E00000C000008000018000010000020000060000C
:201C200000FC0000FC000000000000000000000000000000000005000000000000000000A7
:201C4000000000000000100000300000600000600000600000200000200000200000400084
:201C60000040000020000020000020000020000060000060000030000010000000000000A4
:201C80000000050000000000000000000000006000006000006000006000006000006000FF
:201CA000006000006000006000006000006000006000006000006000006000006000006004
:201CC00000006000006000006000006000000500000000000000000000000000000040003F
:201CE00000200000300000300000300000300000300000300000180000100000300000301C
:201D000000003000003000003000003000002000004000000000000000000D000000000096
:201D2000000000000000000000000000000000000000000000000000000000000000001093
:201D400000002C200003400000800000000000000000000000000000000000000000000074
:201D6000000000000000030000000000000000000000000000000000000000000000000060
:201D8000000000000000000000000000000000000000000000000000000000000000000043
:201DA0000000000000000000000000000000000000000B0000000000000000000000000018
:201DC00000000000007F80007F80001800001800001800001900001FC00018C00018C00015
:201DE00018600018600018600018C00018C00001C000018000000000000000000000080081
:201E000000000000000000000400000800000000007E00007E00006000006000006000009A
:201E2000600000600000600000600000600000600000600000600000600000000000000042
:201E400000000000000000000000040000000000000000000000000000000000000000007E
:201E6000000000000000000000000000000000000000000000000000000000000000200042
:201E800000600000400000400000000000000000000000000000070000000000000000005B
:201EA0000000000000000C00000800001000000000000000007C00007C0000600000600046
:201EC0000060000060000060000060000060000060000000000000000000000000000000C2
:201EE0000000070000000000000000000000000000000000000000000000000000000000DB
:201F00000000000000000000000000000000000000000000000024000064000048000048A9
:201F200000000000000000000000000000001500000000000000000000000000000000008C
:201F4000000000000000000000000000000000000000000000000000000000000000000081
:201F600000001830603870E0102040000000000000000000000000000000090000000000B8
:201F8000000000000000000000000000001800001800001800001800007F00007F000018CB
:201FA000000018000018000018000018000018000018000018000018000000000000000061
:201FC0000000000000000900000000000000000000000000000000000018000018000018B0
:201FE00000001800007E00007E00001800001800001800007F00007F000018000018000057
:020000040800F2
:2020000018000000000000000000000000000000000009000000000000000000000000009F
:2020200000000000000600001E0000380000300000300000FE0000600000600000FE000028
:202040006000003000003000001E000004000000000000000000000000000000000014008A
:202060000000000000000000000000000000000000300000484000480000888000880000D0
:202080000900004820C07251200441200449100849100041201051200020C0000000000047
:2020A000000000000000000000000F0000000000000000000000000000000000007F800012
:2020C0007F800061800061800061800061E00061FC00618C00618E00618600618C00C18CC3
:2020E00000C1F80081E00000000000000000000000000000000005000000000000000000C1
:2021000000000000000000000000000000000000000000000000000000000020000040005F
:2021200000400000400000400000200000200000000000000000000000000000000000009F
:2021400000000F0000000000000000000000000000000000006180006180006180006180EC
:202160000061800061E0007FFC007FFC00618E00618600618400618C0061F80061E0000005
:2021800000000000000000000000000000000A00000000000000000006000004000000002B
:2021A000006380006300006300006600006600006400007C00007E00006600006300006320
:2021C00000006300006180006180000000000000000000000000000000000C0000000000CE
:2021E00000000000000000000000000000FF0000FF00003000003000003000003180003F61
:20220000C00038C000306000306000306000306000306000306000000000000000000000A6
:202220000000000000000B00000000000000000000000000000000000060C00060C00060F3
:20224000C00060C00060C00060C00060C00060C00060C00060C00060C00060C0007FC0005F
:202260007FC0000C00000C00000C00000000000000000A00000000000000000000000000F1
:202280000000600000600000FE00006000006000006000007F00007300006300006180002A
:2022A00061800061800061000063000063000006000000000000000000000000000004002B
:2022C00000000000000000000000000000000000000000002000002000004000004000003E
:2022E0000000000000000000000000000000000000000000000000000000000000000000DE
:20230000000000000000000000000400000000000000000000000000000000000020000099
:202320002000004000004000000000000000000000000000000000000000000000000000FD
:20234000000000000000000000000000000000000000000000000700000000000000000076
:202360000000000000000000000000002400002400004C0000480000000000000000000081
:2023800000000000000000000000000000000000000000000000000000000000000000003D
:2023A000000007000000000000000000000000000000000000240000240000440000480042
:2023C0000008000000000000000000000000000000000000000000000000000000000000F5
:2023E0000000000000000000000000000000060000000000000000000000000000000000D7
:202400000000000000000000000000000000000000000000000038000078000038000010C4
:2024200000000000000000000000000000000000000000000000000000000B000000000091
:2024400000000000000000000000000000000000000000000000000000000000000000007C
:2024600000000000007FC0007FC000000000000000000000000000000000000000000000DE
:20248000000000000000150000000000000000000000000000000000000000000000000027
:2024A0000000000000000000000000000000000000FFFFE0FFFFE000000000000000000060
:2024C0000000000000000000000000000000000000000300000000000000000000000000F9
:2024E0000000000000000000000000000000000000000000000000000000000000000000DC
:202500000000000000000000000000000000000000000000000000000000000000000B00B0
:20252000000000000000000000000000000000000076600024200024A00025A000252000B3
:2025400000000000000000000000000000000000000000000000000000000000000000007B
:20256000000000000000000000000E0000000000000000000000000000000000000000004D
:202580000000000000000000007F00007F000063000063E00063F800631800630C006318D7
:2025A00000C3F80083C0000000000000000000000000000000000500000000000000000018
:2025C00000000000000000000000000000000000000000000000000000000040000020009B
:2025E0000020000030000020000040000040000000000000000000000000000000000000EB
:2026000000000E0000000000000000000000000000000000000000000000000000000000AC
:20262000006180006180006180007FE0007FF800619800618C0061980061F80061C00000C8
:2026400000000000000000000000000000000900000000000000000000000000000004006D
:20266000000400000800000000000000006300006200006600006400007C00007E0000665F
:2026800000006200006300006300000000000000000000000000000000000A000000000008
:2026A00000000000000000000000600000600000FE00006000006000006200007F00007348
:2026C0000000618000618000618000618000618000618000618000000000000000000000D3
:2026E0000000000000000A00000000000000000000000000000000000000000000000000D0
:2027000000000000006180006180006180006180006180006180006180006180007F8000B2
:202720007F80000C00000C00000C0000000000000000030000000000000000000000000073
:20274000000000000000000000000000000000000000000000000000000000000000000079
:20276000000000000000000000000000000000000000000000000000000000000000080051
:2027800000000000000000000000001C00000000006300006300006200002200003600009D
:2027A0003600001400001400001C00000C0000080000180000300000200000000000000023
:2027C0000000000000000000000008000000000000000000000000000000000000420000AF
:2027E0003C0000000000000000C300006300006200006600006600003600003400003C00A3
:20280000001C00001800001800003000007000006000000000000600000000000000000066
:20282000000000000000000000300000300000300000300000300000300000300000300018
:2028400000300000300000300000300000F00000C000000000000000000000000000000008
:20286000000009000000000000000000000000000000000000000000000000000000490006
:20288000003E00002200002200006300002200002200003F00004900000000000000000087
:2028A00000000000000000000000000000000800000000000000000000000002000002000C
:2028C000007E00007E0000600000600000600000600000600000600000600000600000609C
:2028E0000000600000600000600000000000000000000000000000000000050000000000B3
:20290000000000000000000000000000006000006000006000006000006000006000006017
:20292000000000000000000000000000000060000060000060000060000060000060000057
:20294000000000000000090000000000000000000000000000000000000600001800003020
:2029600000003000001800002E00002200006300003200001E000006000003000002000001
:20298000260000180000000000000000000000000000080000000000002400006600000067
:2029A00000000000007E00007E00006000006000006000006000007E00007E00006000003F
:2029C0006000006000006000007E00007E00000000000000000000000000000000000E00CD
:2029E0000000000000000000000000000000000000030000084000100000219000040000C7
:202A000000000008080008000000000024000001000008200003000000000000000000004E
:202A200000000000000000000000080000000000000000000000000000000000000C000082
:202A40003E0000300000600000600000400000FC0000FC0000C00000600000600000700020
:202A6000003E00000C00000000000000000000000000000000000800000000000000000004
:202A80000000000000000000000000000000000000000000000000000000002400004400CE
:202AA0000048000048000044000024000022000000000000000000000000000000000000FC
:202AC00000000D0000000000000000000000000000000000000000000000000000000000E9
:202AE000000000003FF0000030000010000010000010000010000000000000000000000037
:202B00000000000000000000000000000000060000000000000000000000000000000000AF
:202B20000000000000000000000000000000000000000000000078000078000000000000A5
:202B400000000000000000000000000000000000000000000000000000000800000000006D
:202B6000000000000000000000000000000000001000004A000052000000000000000000A9
:202B8000000000000000000000000000000000000000000000000000000000000000000035
:202BA000000000000000050000000000000C00009C00000000000000006000006000006048
:202BC000000060000060000060000060000060000060000060000060000060000060000035
:202BE00060000000000000000000000000000000000006000000000000000000000000006F
:202C000000000000000000000000004800000000002000000000000000000000000000004C
:202C20000000000000000000000000000000000000000000000000000000000000000D0087
:202C4000000000000000000000000000000000000000000000000000000002000002000070
:202C60000200007FE0000600000200000200000200000000000000007FE000000000000088
:202C8000000000000000000000000B00000000000000000000000000000000000000000029
:202CA0000000000000000000000400000A00000A000011000011000020800020800040401A
:202CC000004040007FC0000000000000000000000000000000000500000000000000000030
:202CE0000000000000002000006000002000000000000000006000006000006000006000B4
:202D0000006000006000006000006000006000006000000000000000000000000000000073
:202D2000000007000000000000000000000000000000000000000000000000040000040084
:202D4000007C00007C0000600000600000600000600000600000600000600000600000007B
:202D600000000000000000000000000000000A000000000000000000000000000000000049
:202D800000000000000000000000000000618000618000618000618000618000618000618C
:202DA00080007380007F80006C80006000006000006000002000000000000900000000006C
:202DC000000000000000000000000000000E0000310000710000F10000F10000F1000071FF
:202DE00000003100001100001100001100001100001100001100000000000000000000003C
:202E00000000000000000500000000000000000000000000000000000000000000000000AD
:202E20000000000000000000000000000000300000700000200000000000000000000000D2
:202E4000000000000000000000000000000000000000090000000000000000000000000069
:202E600000002200006300000000000000000000001800003E0000620000430000FF0000D3
:202E8000FF00004000006000007E00001C00000000000000000000000000000000001000E9
:202EA000000000000000000000000000000000000061800071880071940071960079B600FD
:202EC000699400699C00658000659C00678000638000638000638000618000000000000099
:202EE0000000000000000000000008000000000000000000000000000000000000000000CA
:202F00000000000000000000000600001E00003000002000007E00007000003000003000EF
:202F2000001E00000600000000000000000000000000000000000800000000000000000065
:202F4000000000000000000000000000000000000000000000000000000000440000240009
:202F600000220000120000240000440000480000000000000000000000000000000000006D
:202F800000000500000000000000000000000000000020000060000020000000000000008C
:202FA0000060000060000060000060000060000060000060000060000060000060000060F1
:202FC0000000600000E00000000000000000080000000000000000000000000000000000A9
:202FE000000E00003E00003000006000006000003000003C00000E0000060000030000030F
:2030000000000600007E0000380000000000000000000000000000000000070000000000ED
:2030200000000000000000000000000000000000000000000000000000180000780000C040
:203040000000E000007800003C00000C00000C0000FC000060000000000000000000000068
:2030600000000000000005000000000000000000000000000000880000980000000000002B
:203080000000000000600000600000600000600000600000600000600000600000600000D0
:2030A0006000000000000000000000000000000000000A00000000000000000000000000A6
:2030C00000000000001C00001C0000140000160000160000360000320000220000230000CB
:2030E0007F00007F00006300006100004180000000000000000000000000000000000A0043
:2031000000000000000000000000000000000000007F80007F800060000060000060000091
:203120007C00007F800061800061C00060C0006180006180007F0000780000000000000039
:20314000000000000000000000000A0000000000000000000000000000000000003C000029
:203160007F00006300006180006100006300007E00007F000061800060C00060C0006180C9
:20318000007F80007C000000000000000000000000000000000008000000000000000000AC
:2031A0000000000000000000007E00007E00006000006000006000006000006000006000D3
:2031C0000060000060000060000060000060000060000000000000000000000000000000AF
:2031E00000000B0000000000000000000000000000000000003FC0003FC00030C00030C0E6
:203200000030C00030C00030C00030C00030C00030C00020C00060C000FFE000FFE000C090
:203220006000C06000C06000000000000000080000000000000000000000000000000000E6
:20324000007E00007E00006000006000006000006000007E00007E000060000060000060D6
:2032600000006000007E00007E00000000000000000000000000000000000F0000000000E3
:2032800000000000000000000000000000E318006318002330003320001360001B40000F35
:2032A000C0003FE000733000631000631800431800C31800C308000000000000000000009D
:2032C000000000000000080000000000000000000000000000000000001800003E0000068A
:2032E00000000300000200000600003800003C00000600000300000300000600007E0000BF
:203300003000000000000000000000000000000000000B0000000000000000000000000072
:20332000000000000061800063800063800063800067800065800065800069800069800080
:203340007980007180007180007180006180000000000000000000000000000000000B00B5
:2033600000000000000000000000000E0000000000618000638000638000638000678000CE
:203380006580006580006980006980007980007180007180007180006180000000000000E4
:2033A000000000000000000000000A00000000000000000000000000000000000063800020
:2033C0006300006300006600006600006400007C00007E000066000063000063000063006E
:2033E000006180006180000000000000000000000000000000000A00000000000000000001
:203400000000000000000000003F80003F8000318000318000318000318000318000318008
:203420000031800031800031800061800061800041800000000000000000000000000000F6
:2034400000000D0000000000000000000000000000000000003870003870003870003870BF
:20346000002C70002CB00024B00024B0002490002690002310002310006310006010000079
:2034800000000000000000000000000000000B000000000000000000000000000000000021
:2034A0000060C00060C00060C00060C00060C0007FC0007FC00060C00060C00060C000602E
:2034C000C00060C00060C00060C0000000000000000000000000000000000A0000000000C2
:2034E000000000000000000000000000000C00003F000073800061800061800040C000C00C
:20350000C000C0C000C0C0006180006180007380003F00000C0000000000000000000000EB
:203520000000000000000B0000000000000000000000000000000000007FC0007FC00060A2
:20354000C00060C00060C00060C00060C00060C00060C00060C00060C00060C00060C0006B
:2035600060C0000000000000000000000000000000000A0000000000000000000000000021
:2035800000000000003800007F00006300006180006180006100006300007F00007C000090
:2035A000600000600000600000600000600000000000000000000000000000000000080023
:2035C00000000000000000000000000000000000000600003E0000300000600000600000B7
:2035E000400000C00000C00000C000006000006000007000003E00000C00000000000000D1
:2036000000000000000000000000080000000000000000000000000000000000007F000023
:203620007F000018000018000018000018000018000018000018000018000018000018001B
:20364000001800001800000000000000000000000000000000000800000000000000000032
:203660000000000000000000006300006300006300002200003200003600001600001C0065
:20368000001C00000C00000800001800003000006000000000000000000000000000000052
:2036A00000000C0000000000000000000000000000000600000600003FC000666000666067
:2036C00000666000C63000C63000C630006660006660006660003FC0000F000006000000DC
:2036E0000000000000000000000000000000090000000000000000000000000000000000C1
:20370000006300006300006200003600003400001C00001C00001C00003C0000340000262D
:2037200000006600006300004300000000000000000000000000000000000B000000000072
:203740000000000000000000000000000060C00060C00060C00060C00060C00060C0006049
:20376000C00060C00060C00060C00060C00060C0007FC0007FC00000C00000C00000C0002B
:203780000000000000000A00000000000000000000000000000000000061800061800061FC
:2037A00080006180006180006180003180003F80001F8000018000018000018000018000D3
:2037C0000180000000000000000000000000000000000F0000000000000000000000000059
:2037E0000000000000618C00618C00618C00618C00618C00618C00618C00618C00618C0074
:20380000618C00618C00618C007FFC007FFC000000000000000000000000000000000F00DC
:203820000000000000000000000000000000000000618C00618C00618C00618C00618C00E7
:20384000618C00618C00618C00618C00618C00618C00618C007FFE007FFE000006000006E7
:20386000000006000000000000000C000000000000000000000000000000000000F800003E
:20388000F800001800001800001800001F00001FE000186000187000183000186000186092
:2038A000001FC0001E00000000000000000000000000000000000E000000000000000000FD
:2038C0000000000000000000006018006018006018006018006018007C18007F18006318EA
:2038E000006198006198006318006318007E180078180000000000000000000000000000BA
:2039000000000A00000000000000000000000000000000000060000060000060000060001D
:20392000006000007C00007F800061800061C00060C0006180006180007F000078000000D1
:2039400000000000000000000000000000000900000000000000000000000000000000005E
:20396000003000007C00000E00000600000600000200003F00003F000003000006000006F2
:2039800000000E00007C00003000000000000000000000000000000000000E00000000005F
:2039A0000000000000000000000000000060600061F000619800631800631800630C007F19
:2039C0000C007F0C00630C0063080063180063980061F0006040000000000000000000000F
:2039E0000000000000000A0000000000000000000000000000000000000700003F800031C6
:203A000080006180006180003180001F80001F8000318000318000318000318000618000D0
:203A200061800000000000000000000000000000000009000000000000000000000000009C
:203A400000000000000000000000000000000000001800007E00000600000F000077000044
:203A6000430000C300004700007F000023000000000000000000000000000000000009004E
:203A800000000000000000000000000000000000000F00001E000030000030000024000075
:203AA0007F00007300006180006180002180002300003300001E00000C0000000000000031
:203AC0000000000000000000000009000000000000000000000000000000000000000000DD
:203AE0000000000000000000007C00006100006100006200007E00006700006180006100FF
:203B00000067000078000000000000000000000000000000000007000000000000000000BF
:203B20000000000000000000000000000000000000000000007C00007C00006000006000CD
:203B4000006000006000006000006000006000006000000000000000000000000000000025
:203B600000000A00000000000000000000000000000000000000000000000000000000003B
:203B8000003F80003F80003180003180003180003180003180002180007F8000FFC000C013
:203BA000C000C0C000000000000000000000090000000000000000000000000000000000BC
:203BC000000000000000000000000000001800003E0000620000430000FF0000FF000040AC
:203BE00000006000007E00001C00000000000000000000000000000000000D0000000000BE
:203C000000000000000000000000000000000000000000000000000000633000233000338B
:203C200060001340001FC0003F600033200023300063300063300000000000000000000087
:203C400000000000000008000000000000000000000000000000000000000000000000005C
:203C600000000000003000007C00000C00000800003800001C00000600000600007C0000A8
:203C80003000000000000000000000000000000000000A00000000000000000000000000EA
:203CA00000000000000000000000000000000000006300006700006700006300006B000005
:203CC0006B00006300007300007300006300000000000000000000000000000000000A00C3
:203CE00000000000000000000000000000000000002100001E000000000000000063000022
:203D00006700006700006300006B00006B00006300007300007300006300000000000000F0
:203D200000000000000000000000090000000000000000000000000000000000000000007A
:203D40000000000000000000006300006200006600006400007C00007E0000660000620012
:203D6000006300006300000000000000000000000000000000000900000000000000000074
:203D80000000000000000000000000000000000000000000007F00007F000063000063005F
:203DA00000630000630000630000630000C300008300000000000000000000000000000031
:203DC00000000C0000000000000000000000000000000000000000000000000000000000D7
:203DE0000038E00038E00038E0002CA00025200025200027200027200026300060300000B1
:203E000000000000000000000000000000000A000000000000000000000000000000000098
:203E2000000000000000000000000000006180006180006180006180007F80007F8000619F
:203E4000800061800061800061800000000000000000000000000000000009000000000036
:203E6000000000000000000000000000000000000000000000000000000C00003F00006394
:203E80000000630000C18000C180006300006300007F00001C0000000000000000000000DC
:203EA0000000000000000A00000000000000000000000000000000000000000000000000F8
:203EC00000000000007F80007F8000618000618000618000618000618000618000618000BD
:203EE0006180000000000000000000000000000000000900000000000000000000000000D8
:203F000000000000000000000000000000000000006400007F000073000063000061800007
:203F20006180006300007300007F0000640000600000600000600000600000000000070060
:203F400000000000000000000000000000000000000000000000000000000000000C000055
:203F60003C0000600000600000C00000C000006000006000003C00001800000000000000B1
:203F8000000000000000000000000800000000000000000000000000000000000000000019
:203FA000000000000000000000FE0000FE00003000003000003000003000003000003000E5
:203FC000003000003000000000000000000000000000000000000800000000000000000079
:203FE000000000000000000000000000000000000000000000620000620000660000660031
:020000040800F2
:20400000002400003400003400001C000018000018000018000030000070000060000000B0
:2040200000000C000000000000000000000000000000000000000000060000060000060062
:20404000000E000017800026C00026400066600066600026400026400036C0001F000006FC
:20406000000006000006000006000000000008000000000000000000000000000000000026
:20408000000000000000000000000000006200006600002400003400001800001C00002CA0
:2040A00000002400006600006600000000000000000000000000000000000A000000000006
:2040C0000000000000000000000000000000000000000000000000000061800061800061BD
:2040E00080006180006180006180006180006180007F80007F8000018000018000000000DB
:20410000000000000000090000000000000000000000000000000000000000000000000096
:2041200000000000006180006180006180006180007180003F8000198000018000018000B0
:204140000180000000000000000000000000000000000E00000000000000000000000000D0
:204160000000000000000000000000000000000000631800631800631800631800631800D8
:204180006318006318006318007FF8007FF8000000000000000000000000000000000B00B5
:2041A00000000000000000000000000000000000007F80007F8000180000180000180000B9
:2041C0001900001FC00018C00018C00018600018600018600018C00018C00001C0000180DD
:2041E000000000000000000000000B000000000000000000000000000000000000000000B4
:20420000000000000000000000F00000F000003000003F00003FC00030C00030600030C0E0
:20422000003FC0001E00000000000000000000000000000000000D00000000000000000054
:204240000000000000000000000000000000000000000000006030006030006030007C3002
:20426000007F300063300061B0006330007F30003830000000000000000000000000000041
:20428000000009000000000000000000000000000000000000000000000000000000000015
:2042A000006000006000006000007C00007F00006300006180006300007F00003800000085
:2042C0000000000000000000000000000000080000000000000000000000000000000000D6
:2042E000000000000000000000000000006000007800000C00000400007E00000E00000446
:2043000000000C00007800006000000000000000000000000000000000000D0000000000AC
:204320000000000000000000000000000000000000000000000000000061800063E00066F3
:2043400060006620007E30007E300066200066600063E000618000000000000000000000AB
:20436000000000000000090000000000000000000000000000000000000000000000000034
:2043800000000000000F00003300006300003300001700001F000033000033000063000046
:2043A00063000000000000000000000000000000000000006A6A00000000000000000000C6
:2043C00000000000000000000000448633111111400111111366740000000000000000005D
:2043E00000000000000000000000000000000000000000000000000000000000000C83111D
:20440000111111111140031111111111367400000000000000000000000000000000000005
:20442000000000000000000000000000000000000047911511111111111140031111115162
:204440001111113A40000000000000000000000000000000000000000000000000000000AF
:20446000000000000086155111111111111111400311111111111115511640000000000074
:2044800000000000000000000000000000000000000000000000000004A31111111111110F
:2044A000111111114003111111111111115511138000000000000000000000000000000005
:2044C000000000000000000000000000008111111111111115111111114003111111111104
:2044E000111111111113A000000000000000000000000000000000000000000000000000B4
:2045000000A31151111111111111111111114003111111151111111111115119C0000000D1
:204520000000000000000000000000000000000000000000004611115111111111113691A6
:2045400011111140031111111A611111111111115117000000000000000000000000000069
:204560000000000000000000000A1511151111111136840071111111400311111130044763
:20458000311111111111113A000000000000000000000000000000000000000000043151C4
:2045A00011111111116C0000006511111140031111113000000C71111511111111700000A5
:2045C00000000000000000000000000000000000000041111115111111740000000061114A
:2045E0001111400311111130000000048311111111111340000000000000000000000000C4
:2046000000000000000008111111111111A40000000000611111114003111111300000004E
:204620000000731111111111140000000000000000000000000000000000007151111111A9
:20464000117400000000000061111111400311111130000000000000715151111151800095
:204660000000000000000000000000000000000611111111119400000000000000611111C8
:2046800011400311111130000000000000046151151111170000000000000000000000005F
:2046A000000000006111111111180000000000000000611111114003111111300000000003
:2046C0000000000A1111111115700000000000000000000000000000091111111113400067
:2046E0000000000000000061111111400311111130000000000000000043111111511700A2
:204700000000000000000000000000000061111111117000000000000000000061111111F0
:204720004003111111300000000000000000003111111111800000000000000000000000DE
:204740000007111111111A00000000000000000000611111114003111111300000000000BA
:20476000000000000A151111111C000000000000000000000000A1111111114000000000A6
:20478000000000000000611111114003111111300000000000000000000085511111514056
:2047A0000000000000000000000004111111111C00000000000000000000006111111140C1
:2047C0000311111130000000000000000000000815111115300000000000000000000041AE
:2047E00051111111C00000000000000000000000611111114003111111300000000000003B
:204800000000000000A11111111300000000000000000000311111111C0000000000000031
:2048200000000000006111111140031111113000000000000000000000000A111111118070
:204840000000000000000000081111111180000000000000000000000000611111114003B5
:204860001111113000000000000000000000000071111111140000000000000000411111BA
:204880001116000000000000000000000000007111111140031111113000000000000000A7
:2048A000000000000006151111130000000000000000911111119000000000000000000054
:2048C0000000000061111111400311111130000000000000000000000000001511111170E6
:2048E0000000000000000C11111113000000000000000000000000000035111111400311AA
:20490000111110000000000000000000000000004111111110000000000000411111111459
:20492000000000000000000000000000000411511111400311111114000000000000000065
:20494000000000000007111111160000000000006111111160000000000000000000000013
:2049600000000711111111400311111117000000000000000000000000000031111111807B
:204980000000000000155111110000000000000000000000000000031111111140031111E3
:2049A000111300000000000000000000000000004111111190000000000715111558000035
:2049C000000000000000000000000000451111111140031111111140000000000000000087
:2049E000000000000006111111140000000001111115300000000000000000000000000002
:204A0000007511111111400311111111A0000000000000000000000000000011111119006A
:204A20000000008111111540000000000000000000000000000011111111130007111111ED
:204A40001190000000000000000000000000000071111111000000003111111900000000A5
:204A60000000000000000000000004111111111C0004111111111400000000000000000076
:204A8000000000000041111111A000000411111114000000000000000000000000000008AF
:204AA000111111111000041111111157000000000000000000000000000007111111300099
:204AC0000006111111300000000000000000000000000000091111111190000061111111FC
:204AE000160000000000000000000000000000041111111C000001111111A0000000000079
:204B00000000000000000000004111111115700000811111111100000000000000000000D7
:204B20000000000000911111570000811111114000000000000000000000000000008111E5
:204B4000111111800000411115111140000000000000000000000000000071111111000035
:204B6000751111160000000000000000000000000000009111111113000000031115111166
:204B800060000000000000000000000000000041111111C0003111115C00000000000000D2
:204BA000000000000000000011111111160000000711111111100000000000000000000040
:204BC000000000000911111180041111111000000000000000000000000000000C11111193
:204BE000111400000004111111111400000000000000000000000000000811111190081150
:204C0000111190000000000000000000000000000007111111111000000004111115111724
:204C20000000000000000000000000000000041111111409111111A000000000000000004D
:204C4000000000000000431111111190000000006111111113000000000000000000000096
:204C60000000000411111114091111114000000000000000000000000000004111111111E8
:204C80008000000000711111111180000000000000000000000000000061111117011111A2
:204CA0001140000000000000000000000000000071111111114000000000411111111180A9
:204CC0000000000000000000000000000000811111174111111300000000000000000000A4
:204CE000000000000011111111130000000000031111111190000000000000000000000086
:204D0000000000811111137111111600000000000000000000000000000C111111111700CD
:204D2000000000000711111111140000000000000000000000000000011111117111111736
:204D4000000000000000000000000000000006111111111800000000000411111111180091
:204D6000000000000000000000000000000111111181111116000000000000000000000046
:204D8000000000031111111114000000000004111111111900000000000000000000000057
:204DA000000009111111651111180000000000000000000000000000411111111160000033
:204DC0000B0000006111111111400000000000000000000000000009111111351111100040
:204DE00000000000000000000000000000A1111111118000000D0000007111111111C000CC
:204E00000000000000000000000000000911111135111114000000000000000000000000EB
:204E200000003111111111000000E2B00000011111111160000000000000000000000000C6
:204E400000091111113111111400000000000000000000000000041111511119000000F21C
:204E6000B00000031111111110000000000000000000000000000911111131111114000088
:204E80000000000000000000000000071111111517000000D2F00000061111111118000088
:204EA00000000000000000000000000911111131111114000000000000000000000000004F
:204EC00003111111111400000B22D00000041111111118000000000000000000000000001A
:204EE00009111111311111180000000000000000000000000041111111111000000B222B1E
:204F0000000000111111111100000000000000000000000000091111113111111800000095
:204F20000000000000000000000081111111117000000F222F0000006111111111400000F7
:204F400000000000000000000000091111113111111400000000000000000000000000911D
:204F6000111111118000000D222D00000071111111116000000000000000000000000009F3
:204F800011111161111117000000000000000000000000001111111111400000022222B0B9
:204FA000000001111111113000000000000000000000000009111111711111170000000096
:204FC0000000000000000000081111111116000000E22222E000000311111115140000000A
:204FE00000000000000000000001111111711111170000000000000000000000000651116B
:20500000111118000000F22222F000000711111111180000000000000000000000000111BB
:20502000111141111113000000000000000000000000415111111114000000D22222D00019
:20504000000A11111111130000000000000000000000008111111141111111400000000087
:205060000000000000000041111111113000000B2222222B0000001111111111000000008A
:205080000000000000000000811111170911111180000000000000000000000071111111F6
:2050A000117000000B2222222E0000003111151111A0000000000000000000000071111124
:2050C000160911111180000000000000000000000031111111114000000F2222222D0000A7
:2050E000007111111111600000000000000000000000911111140811111190000000000009
:2051000000000000000C11111151110000000D2222222200000041111111111000000000C4
:20512000000000000000041111111008111111100000000000000000000006111511511639
:20514000000000B222222222B0000003111111111C00000000000000000000081111119037
:20516000041111111C0000000000000000000003111111111C000000E222222222E000002F
:20518000071111111117000000000000000000000911111180006111111700000000000057
:2051A00000000000411111111114000000F222222222D000000C11111111110000000000AB
:2051C0000000000000011111114000A11111114000000000000000000071111111159000FE
:2051E0000000D22222222220000000151111111140000000000000000000C5111111400064
:20520000011111118000000000000000000031111111117000000B22222222222E00000012
:20522000911111111170000000000000000000611111160000065111119000000000000087
:205240000000041111111151C000000E22222222222F000000811111111130000000000019
:20526000000000041111111C000004111111140000000000000000071111111153000000F2
:205280000D2222222222220000004111111111140000000000000000071111113000000032
:2052A00011111116000000000000000003111111111700000002222222222222B0000009C0
:2052C000111111111A000000000000000001111111700000007111111140000000000000E8
:2052E0000041111111111C000000E2222222222222E000000711151111130000000000001D
:2053000000007111111100000000415111116000000000000000A11111111110000000E2FE
:20532000222222222222D000000C11151111114000000000000004111111160000000007D8
:205340005111111400000000000000311111111190000000D22222222222222B00000411E3
:20536000111111118000000000000006111111140000000000111151130000000000000492
:205380001111111111A0000000222222222222222E00000031111111156000000000000023
:2053A0004111111130000000000071111111A000000000000C11111111114000000E222212
:2053C00022222222222F0000008151111111100000000000003111111180000000000001FA
:2053E0001111111400000000000911111111114000000F2222222222222222000000411157
:2054000011111118000000000007511111170000000000000A11111113000000000001114E
:20542000111111170000000D2222222222222222B0000003111111111700000000004111A5
:2054400011151000000000000000311111157000000000811111111114000000B22222224D
:205460002222222222E000000711111111130000000000311111118000000000000000411F
:205480001111115800000000951111111114000000E22222222222222222D000000451116C
:2054A00011111140000000061111115300000000000000000711111111400000001111112F
:2054C000111160000000F222222222222222222000000011111111117000000071111115BB
:2054E000140000000000000000001111111514000008111111111170000000D22222222215
:20550000222222222B00000091111111113000000751111111A00000000000000000008127
:205520001115115140000611111111114000000B2222222222222222222F000000811111F9
:205540001111100000C151111113000000000000000000000811111111140001111111112D
:20556000130000000E2222222222222222222D000000411111111118000C111111111400AA
:20558000000000000000000000007111111111408111111111170000000F2222222222225F
:2055A00022222222B0000003111111111600A151111111C00000000000000000000000046D
:2055C000444444440004444444444000000000BBBBBBBBBBBBBBBBBBBB000000004444444D
:2055E0004440004444444444000000000000000000000000000000000000000000000000D3
:2056000000000000000000000000000000000000000000000000000000000000000000008A
:205620000000000000000000000000000693333340000000000000004A63399999993397B0
:20564000A0000C33333380933333333339999397A400000000000000000000000000000086
:20566000000311111140000000000000071511111111111111134008111111A011111111AF
:205680001111111111530000000000000000000000000000000006111111400000000000E9
:2056A00000611511113333331511111008111111A011111113133333111151600000000005
:2056C000000000000000000000000006111111400000000000001111113400000081111147
:2056E0005708111111A01111116000000071511130000000000000000000000000000000E2
:205700000611111140000000000008111111400000000711555308111111A0111111900A2D
:205720007AAA951111300000000000000000000000000000000611111140000000000006DF
:20574000511151000000000A11111308111111A01111117435111115111140000000000007
:2057600000000000000000000000061111114000000000000A1111114000000007111153B7
:2057800008111111A0111111963333333336700000000000000000000000000000000006ED
:2057A00011111100000000000000111111340000004151111A08111111A011111160000024
:2057C00000000000000000000000000000000000000000000611111176666666666A607543
:2057E0005111113666661511153008111111A011111160000000000000000000000000005B
:205800000000000000000000000311111115555555555160061511111115555111134008C3
:20582000511111A011111190000000000000000000000000000000000000000000000A3355
:2058400033333333333333370000C763333333333337800004333333806333337000000076
:20586000000000000000000000000000000000000000000000000000000000000000000028
:20588000000000000000000000000000000000000000000000000000000000000000000008
:2058A0000000000000000000000000000000000000400000000000000000000000000000A8
:2058C000000040000000000000000000000000000000000000000000000000000000000088
:2058E00000000000000A311333333333333333333333333333311338000000000000000047
:205900000000000000000000000000000000000000000000000000000000004861151511A3
:2059200011111111111111111115136C00000000000000000000000000000000000000003A
:20594000000000000000000000000000000000000004486311111111111111111133684024
:20596000000000000000000000000000000000000000000000000000000000000000000027
:20598000000000000000000000447779333933377784000000000000000000000000000002
:2059A00000000000000000002DE9FF47DFF8645A0446286810B914F1010F37D1DFF8588A7D
:2059C00098F8019098F800A001F071FB4DF6DB6608B900270FE0DFF8C41B08780127C0B1EF
:2059E000DFF8BC8B98F8019098F800A002F04EF801280AD13CB900964B465246CD21052035
:205A000003F01BF811E0012C0FD10296DFF8980B02E00296DFF8940B0190CDF800804B4619
:205A20005246CD21052002F019FB2F60BDE8FF872DE9FF4703F020FA054603F018FA00EB57
:205A40004504012CDFF86C5B01DC287820BB6F69DFF8646BDFF8649B032C4FF29E784DF6BD
:205A6000DB606FD8DFE804F0021A204D0290DFF8501BDFF8500B019000914B780A78602172
:205A80004FF4937002F0EAFA012FC4BF012003F0AFFA0020A8706C61BDE8FF870290DFF8E1
:205AA000281BDFF8280BE6E70290DFF8241BDFF8240B00F052F8602102F0D0FA012F43DC58
:205AC0004FF4784000F042F8542703F055F8307CDFF804ABCDF8048078430AEB0003CDF8F3
:205AE000009000F0EDFA307CCDF8048047430AEB070000F12A03CDF8009000222521642065
:205B00001DE00290DFF8D41ADFF8D40A00F025F8422102F0A3FA022F16DC4FF478400090CF
:205B200000F022F8327CDFF8BC1ACDF80480262042438B18CDF8009000221E215A2002F027
:205B4000CAFE01E0012CA4DD0120A3E7009046234FF49B720521052070474B780A78019022
:205B600000914FF49370704746234FF49B720521052003F001B8FEB54FF4FC6000F0DFF8CE
:205B8000DFF8646ADFF8347A02F0F6FF297C302400F0DEF8782002F09EFE00F0CAF801F16B
:205BA0001803009700222821782002F094FEDFF8040A012179220170C260F7BDF0B58BB0E3
:205BC00003F05AF9044603F052F900EB4400022818BF032854D0DFF8141A087800284FD1AB
:205BE0004DF6DB640094FFF7B2FF02F026FF009441234FF49B720A21FFF7BAFFDFF8B879A7
:205C0000DFF8EC59387C00280CBFDFF8E809DFF8E809029401950090437802781C2101F012
:205C200003F9DFF8D869306803F04AFA97F82020002A02460B4614BF0FF248010FF24C0184
:205C400003A803F061FA0022009203AB01F08FF8DFF8AC09437802780090029401951C21B7
:205C6000A52002F0FBF9B06801F06EF803A8DFF8941903F049FA0020009003AB00F0CEFB8E
:205C80000BB0F0BD25362E3266B0430025362E3166B043007FB5DFF870592E68044603F0CE
:205CA00060FA864208BF002C19D003F05AFA0400DFF85809437802784DF6DB6109D0029143
:205CC00000909220DFF828190191CD2102F0C6F904E000919220CD2102F0AFFE2C607FBDBD
:205CE000FEB54FF6E07000F02AF8DFF82469DFF8CC7802F041FF297C5A2400F029F84B20FA
:205D000002F0E9FD00F015F801F12D030097002228214B2002F0DFFD03B0DFF89818DFF840
:205D2000F4380120087018706422BDE8F04005214CE0297C1F204C430190311970470090D4
:205D400046234FF49B7205210520DFF86C5870471F2001906143731800970022122170474B
:205D60002DE9FC414FF47840DFF84C58DFF8A868DFF84878FFF7EAFE722402F0FDFE287CD7
:205D8000009760434FF29E783318CDF8048000221221412002F09FFD287CCDF80480444326
:205DA000301900F13903009700222821412002F092FD02B0DFF8FC17DFF8603801200870E5
:205DC00000221A706422BDE8F0410421022003F0EDB900002DE9F04F8BB0044603F046FACE
:205DE000DFF8D477DFF83898DFF8D0A7DFF8C4678046B87C03F0ADFB00900025404604F0C6
:205E0000D5F8009904F0E4F84FF29E7B04D3DFF8140801688A0429D5707800B134B3012092
:205E20004FF47841707000914425FFF79DFE00F041F96843484400F1980300F03FF900F0F6
:205E400039F9454309EB050000F1BA03CDF800A000222521732002F03EFD002000F07EF9CD
:205E60000022FF21022003F0A1F90225B87C03F0DDFB002836D0F07808B1002C32D001206D
:205E80004FF47841F0700091FFF761FE4FF04C0802F072FE397CCDF804B008FB01F109EBB4
:205EA000010300F00BF9B87C03F0C0FB0346387C08FB00F109EB010000F1260275A103A848
:205EC00003F022F9CDF804B0CDF800A003AB002225214B2002F0FFFC002000F03FF90120FF
:205EE00000F07DF9DFF80417087870B3307900B174B301204FF47841307100914FF054083C
:205F0000FFF732FE00F0D6F808FB00F0484400F59073CDF800A000221221782002F0DBFC0B
:205F200000F0C8F808FB00F109EB010000F5A573CDF800A0002225214B2002F0CCFC0020A9
:205F400000F00CF9012000F04AF90CB10020B06103F08CF904F02AF80446B87C03F0F9FA18
:205F60000146204604F0B8F8DFF8BC1604F030F802D20020B0610225B87C03F051FB03F079
:205F80009FF821F000410122DFF8A03604F0ECF802D80B20306201E0306A10B1306A401EA5
:205FA00030624DF6DB643069002837D101F07FF8002833D0306A002830D1B87C03F004FB88
:205FC0000146DFF86C0604F0E9F804F074FB04F09DFB00258046B8F5C87FC8BF4FF4C87884
:205FE000F069404526D010F1010F01D100F06DF8387C0028424614BF0FF2A0010FF2A40116
:020000040800F2
:2060000003A803F081F8009503AB0122D22140F23B1002F072F8C6F81C800BE0306908B998
:206020000021B1614FF0FF30F06101F040F808B91E203061B76903F019F9874227D0F06977
:2060400010F1010F01D000F040F8DFF8E805DFF8D41C43780278019100900294C3214FF497
:206060008F7001F0FBFF03F001F902460FA103A803F04AF8009503AB0122D22140F21D10B9
:2060800002F03BF81E20306103F0F0F8B0610BB0BDE8F08F25732025640000002044256413
:2060A0005600000020442564540000002534644300000000387CCDF804B07047CDF800A000
:2060C000002212215A2002F006BC00942F238922BE21B22002F0B1BC78B589B0044604F0F8
:2060E000ABFF03F063FFDFF85015DFF83C6C04F0EFFF05461CB12021304605F075F8284665
:2061000002F0DEFF02460B4628464FF07E5105F06FF803D9002105F07FF801D10BA100E078
:206120000CA100F0A3FA314601A805F083F838B10020009001AB0122D221822001F0DDFFCB
:2061400001A9304605F080F80AB070BD25342E306625250025342E3166252500032800D9F8
:20616000704710B5DFE800F0020B161F4CF6596400F029F800F02DF84CF218631BE04FF48E
:20618000784300F021F84FF4784300F023F84CF6AA0310E041F6076400F015F800F019F8B3
:2061A00043F6EA3307E04FF6076400F00CF800F010F84CF6EA33BDE81040372260211720A1
:2061C00001F043BE10BD234636226121152001F03CBE234637226021162001F036BE2DE929
:2061E000F8479BB0DFF8CC4B48B1202104F1080004F0FAFF202104F1280004F0F5FF0BA909
:20620000012001F01BFB03A9002001F017FBDFF8A81B0878012500B1022500F0A1F820B90D
:2062200000F099F8002800F08C80DFF88CA30FF61C499AF81200DFF88473012843F28F28C2
:206240004DF6DB6637D100F08BF890B1012003F0EDF950B90BA800900195022322686421EE
:20626000A02002F0A4F8206003E000F088F800F07CF800F070F8F0B1002003F0D7F968B99C
:2062800003AA494613A802F03FFF0020009013AB02229621A02001F030FF0CE000961A23EF
:2062A000FA229621232002F0C8FB00F04DF89621A02002F06DFB9AF81200002837D100F049
:2062C0004FF8A8B1012003F0B1F968B90BAA494613A802F019FF0020009013AB022264211F
:2062E000A02001F00AFF03E000F049F800F03DF800F031F8D8B1002003F098F950B903A8B1
:2063000000900195022362688221A02002F04FF860600CE000961A23FA228221232002F059
:206320008CFB00F011F88221A02002F031FB0BA904F1080004F088FF03A904F1280004F073
:2063400083FF1CB0BDE8F087CDF808800196009703AB0222704703A904F1280004F06ABFE9
:206360000BA904F1080004F065BFCDF80880019600970BAB02226421A02002F009BB00966E
:206380001A23FA226421232002F057BBF0B589B00D4602F071FD064602F069FD002400EB94
:2063A0004600012833DC834B1A785878D978024318790A4302432AD1DFF8001A8A680FF693
:2063C0007C213C264FF461676AB9986868B13A46B0FBF2F207FB1207B7FBF6F306FB137628
:2063E000012400960CE005B102243846B2FBF0F007FB1027B7FBF6F306FB137600960246D3
:2064000001A802F081FE009401AB00F007F809B0F0BD000008B30020787601080022202198
:20642000C82001F06ABE00002DE9F04389B01AB3401E04285BA31ED8DFE800F01503090FA7
:2064400015000124009400222021682011E00121009100222021C8200BE0012000900022D6
:206460002021F02005E00120009051A300222021322001F042FE8EE0401E04280FF6DC1969
:206480000FF6D0184C4E0FF6DC1401AF0D46F2D8DFE800F0032959647400284603F086FDBB
:2064A000DFF81C1904F014FE02F00AFE00F0E8F804D000F0DAF80022FA7004E0494600F07B
:2064C000D5F800223A710120009000F04FFC00F0BBF803D000F0C9F8002023E0494600F06D
:2064E000C5F8002028E0284603F060FDDFF8D01804F0EEFD02F0E4FD00F0C2F804D000F01A
:20650000B4F80022FA7004E0494600F0AFF800223A71009200F02AFC00F096F808D000F07E
:20652000A4F80120009002AB00222021682030E0494600F09BF8012000900DF10903002277
:206540002021782025E000F079F800F08AF8012000F08FF800F07EF8002009E000F06EF82D
:2065600000F07FF8002000F084F800F073F80120009001AB00222021F0200AE02A460FF69E
:20658000EC0100F06FF80120009001AB00222021322001F0B2FD09B0BDE8F083070000200D
:2065A000847C010820200000D4AB010894AA010820202000ACB10020549F0020300100089A
:2065C0000C70010854AA0108A46B0108CCAC0108D86D010814AA01082C060020706901084D
:2065E000D4A90108D4060020A00800200AB2002014AB01088C800108887E0108F0AF0020CC
:20660000747401083C6E00080CB30020807A0108E4A101081AB30020B89301081BB3002038
:2066200070860108081001400000A041000049400000704240720108000020414FF46160C6
:2066400095FBF0F63246704796F82000002822462B4670474FF4616000FB16553C2195FBD8
:20666000F1F2214601A802F04FBD414601A802F04BBD009001AB00222021C82001F03DBD8D
:2066800096F8202004460D46002A22462B4670472DE9F14FDFF82C47DFF82CB7D4F83490EB
:2066A0008CB0484602F00CFDCDE902019DF83010266BD4F82CA065792078DFF80077DFF8C3
:2066C0000C87491E112900F22583DFE811F0120018003D008000A5023902F200230323031D
:2066E000160323032303CA001E032303BA00BE00C3004DF6DB6001F079FB0021E160002084
:206700002070FFF75BFADFF8C826DFF8C80600F032FB572100F087FB00F0C9FCFFF71EFD67
:20672000FFF786F998F8120002F03BFF0120FFF756FD0120FFF74EFB0120FFF7ABFA01206F
:20674000FFF7CAFC00F0FCFA6179206CDFF8885610B1401E206409D12878084306D000211D
:2067600061712970022002F043FC01E000292DD10020FFF734FD0020FFF78CFA0020FFF75A
:2067800029FB0020FFF7A8FC00F0DAFA606A00281CD0401E606219D100F089FC78B900F0D9
:2067A0006DFB60B100F0EEFA00F0CDFB0120FFF793FC00F0C5FA00F07AFCFFF7CFFC2878B4
:2067C000002803D03C212164FFF7CAFAA2E2A16A09B1491EA162216909B1491E216175B914
:2067E00068B1E0680028F1D0401E0128E060EDD100220121042002F0D9FC792057E0D8F8FB
:206800002800DFF8D81503F0E3FB09D2DFF8D015087828B1DFF8CC15087808B9FFF760FA82
:20682000DBF81C00E16B01F5E171884208DBDBF81C00E063A06BC0F10100A063FFF7B4F894
:2068400068E2002DFCD1012100E000210020FFF79DFD5FE2002DFCD100F029FCFFF77EFC61
:2068600058E208B100F0DAFA85B10020607100F01EFC002818BFBAF1000F25D000F0FEFA9A
:2068800010B300F07FFA00F05EFB1DE000F00FFC00280DD000F076FA00F0EEFB0020FFF737
:2068A0001BFC00F04DFA0120FFF758FCF120E06030E23C21216400F0FAFB08B10021A1601A
:2068C000207818B100212170022019E0F5B9606AC8B102F0D1FA054602F0C9FA00EB4500AC
:2068E00001280FDC22786078E178024320790A43024307D10120607100216162E162072031
:2069000002F076FB06E202206062F2E13C217143BAF1050F019104AD00F20181DFE81AF01D
